:020000040800F2
:10000000102000201102000821130008BB12000874
:1000100000000000000000000000000000000000E0
:100020000000000000000000000000002513000890
:1000300000000000000000009701000831130008D4
:1000400023020008230200082302000823020008FC
:1000500023020008230200082302000823020008EC
:1000600023020008230200082302000823020008DC
:1000700023020008230200082302000823020008CC
:100080002302000823020008BD1300082302000811
:1000900023020008230200082302000823020008AC
:1000A000230200082302000823020008230200089C
:1000B00023020008230200082302000800F002F8CF
:1000C00000F03EF80CA030C8083824182D18A246BD
:1000D000671EAB4654465D46AC4201D100F030F895
:1000E0007E460F3E0FCCB6460126334200D0FB1AA7
:1000F000A246AB463343184788300000A8300000C2
:10010000103A02D378C878C1FAD8520701D330C860
:1001100030C101D504680C60704700000023002442
:1001200000250026103A01D378C1FBD8520700D32E
:1001300030C100D50B6070471FB51FBD10B510BD95
:1001400000F09CF91146FFF7F7FF01F020FA00F0EC
:10015000B4F903B4FFF7F2FF03BC00F0BBF90000F1
:10016000084B19680868203080F30988022080F362
:100170001488BFF36F8F3FBCAE4608BC04BC62B6A8
:100180001847000014000020EFF3108072B670478B
:1001900080F310887047EFF309800E4B1A682038FF
:1001A0001060F0C044464D4656465F46F0C008B564
:1001B00072B602F015FA62B60CBC1168086810300D
:1001C000F0C8A046A946B246BB4680F3098820384D
:1001D000F0C818471400002070B505460C461646B6
:1001E00002E00FCC0FC5103E102EFAD2082E02D31B
:1001F00003CC03C5083E042E07D301CC01C5361F2E
:1002000003E021782970641C6D1C761EF9D270BD44
:100210000748804707480047FEE7FEE7FEE7FEE79E
:10022000FEE7FEE704480549054A064B7047000013
:10023000BB130008BD000008101A00201020002089
:10024000101C0020101C0020F8B5042A2CD38307B2
:1002500012D00B78491C0370401C521E83070BD030
:100260000B78491C0370401C521E830704D00B7886
:10027000491C0370401C521E8B079B0F05D0C91AE6
:10028000DF002023DE1B08C90AE0FFF7A5FFF8BD49
:100290001D4608C9FD401C46B4402C4310C0121F27
:1002A000042AF5D2F308C91A521EF0D40B78491C5F
:1002B0000370401C521EEAD40B78491C0370401C8A
:1002C000012AE4D409780170F8BDD2B210B5130246
:1002D0009A1813049A1800F00EF810BD01E004C03B
:1002E000091F0429FBD28B0701D50280801CC90796
:1002F00000D00270704700290BD0C30702D00270F3
:10030000401C491E022904D3830702D50280801CA9
:10031000891EE3E70022EEE70022DFE7002203095F
:100320008B422CD3030A8B4211D300239C464EE010
:1003300003460B433CD4002243088B4231D30309CC
:100340008B421CD3030A8B4201D394463FE0C3097E
:100350008B4201D3CB01C01A524183098B4201D396
:100360008B01C01A524143098B4201D34B01C01A81
:10037000524103098B4201D30B01C01A5241C308F9
:100380008B4201D3CB00C01A524183088B4201D368
:100390008B00C01A524143088B4201D34B00C01A54
:1003A0005241411A00D201465241104670475DE069
:1003B000CA0F00D04942031000D3404253400022EC
:1003C0009C4603098B422DD3030A8B4212D3FC2295
:1003D000890112BA030A8B420CD3890192118B4214
:1003E00008D3890192118B4204D389013AD092112A
:1003F00000E08909C3098B4201D3CB01C01A5241E5
:1004000083098B4201D38B01C01A524143098B42AD
:1004100001D34B01C01A524103098B4201D30B0196
:10042000C01A5241C3088B4201D3CB00C01A5241BB
:1004300083088B4201D38B00C01A5241D9D24308A2
:100440008B4201D34B00C01A5241411A00D20146DF
:10045000634652415B10104601D34042002B00D549
:100460004942704763465B1000D3404201B500200B
:10047000C046C04602BD704770477047754600F0E1
:1004800025F8AE46050069465346C008C0008546BB
:1004900018B020B5FFF7C6FE60BC00274908B64675
:1004A0000026C0C5C0C5C0C5C0C5C0C5C0C5C0C583
:1004B000C0C5403D49008D46704710B50446C04652
:1004C000C0462046FFF745FE10BD000000487047BB
:1004D000AC19002001491820ABBEFEE7260002003F
:1004E000704772B600BFFEE7014800687047000021
:1004F00004000020034800680349097840180149B6
:1005000008607047040000200C00002010B5002493
:1005100008480068FF2101310843064908600320AC
:1005200000F00AF8002801D0012401E000F04AF8A8
:10053000204610BD0020024070B586B0044600255C
:10054000002600222146122000F07AF8122000F046
:1005500065F800BF1648C06B202108431449C863E2
:100560000846C06B20210840009000BF00BF01A9D1
:1005700002A800F085F900F0A7F905460D492846C4
:10058000FFF7CCFE461E0C480C4908600C490B488E
:10059000C160466000210161816000F008FD002813
:1005A00004D1064800F03AFD06B070BD0120FBE71B
:1005B0000010024040420F00001400408C00002058
:1005C000E703000008B500BF134800680121084395
:1005D0001149086008460068C007C00F009000BFBE
:1005E00000BF00BF0C484038C06B890508430A496A
:1005F0004039C8630846C06B09040840009000BF3A
:1006000000BF00220321481F00F01AF80320400217
:1006100000F0BEFC08BD0000401002400146002969
:1006200009DB00BF00BFCB06DB0E01229A40034B63
:100630001A6000BF00BF00BF7047000000E100E08B
:1006400070B504460D4616462946204600F024FFA4
:1006500070BD000070B504461148006803214902CE
:10066000884320430E4908604815844216D10D493D
:1006700009680622514308460B49FFF74FFE451C07
:1006800005E0002D01D06D1E01E0032070BD04487F
:1006900040690121890208408842F2D00020F5E734
:1006A000007000401000002040420F0070B504466A
:1006B0000D46002C01D1012070BD6B480068400739
:1006C000400FA84218D268480068C008C0002843FC
:1006D00065490860FFF708FF064607E0FFF704FFDB
:1006E000801B6249884201D90320E5E75E48006823
:1006F0004007400FA842F1D102212068084002289B
:1007000015D1042120680840042807D15848806882
:100710000721090388434018554988605448806878
:100720000F2109028843A168084351498860207855
:10073000C007C00F002854D06068012808D14C4879
:10074000006801214904084000282ED10120B3E7A8
:100750006068022808D1464800680121490608401F
:10076000002822D10120A7E76068002808D140486E
:100770000068012189020840002816D101209BE76A
:100780006068032808D13A484030006A02210840D6
:1007900000280AD101208FE735484030C069022186
:1007A0000840002801D1012086E731488068C00850
:1007B000C000616808432E498860FFF795FE064631
:1007C00007E0FFF791FE801B2849884201D90320EA
:1007D00072E727488068382108406168C90088426C
:1007E000EFD1214800684007400FA84218D91E48A1
:1007F0000068C008C00028431B490860FFF774FE6A
:10080000064607E0FFF770FE801B1849884201D9B1
:10081000032051E7144800684007400FA842F1D177
:10082000042120680840042808D111488068072165
:1008300009038843E16808430D49886000F058F8CF
:100840000B4989680F2212021140090A8900094ADE
:10085000515CC906C90EC8400749086007480068CE
:10086000FFF76AFE28E7000000200240881300001E
:100870000010024014310008100000200800002081
:10088000072202600B4A92685207520F4260094ADF
:1008900092680F231B021A408260064A926807235F
:1008A0001B031A40C260044A12685207520F0A60C2
:1008B000704700000010024000200240014800681C
:1008C000704700001000002000B5FFF7F7FF064951
:1008D0008968072212031140090B8900034A515C01
:1008E000C906C90EC84000BD0010024054310008BE
:1008F000FEB5354880683821084000280DD13248BF
:10090000006809020840C10A0120884000902F4871
:100910000099FFF703FD044654E02B488068382116
:100920000840082801D12A4C4CE02748806838212B
:100930000840102834D12448C0688607B60F2248E2
:10094000C068702108400009401C0190022E0FD0A1
:10095000032E0CD11E480199FFF7E0FC1A49C96823
:100960007F2212021140090A484305460DE000BFEC
:1009700016480199FFF7D2FC1349C9687F22120279
:100980001140090A4843054600BF00BF0E48C06831
:10099000400F471C39462846FFF7C0FC044611E0CB
:1009A0000948806838210840202801D1840209E0E4
:1009B0000548806838210840182802D17D24240287
:1009C00000E000242046FEBD001002400024F40098
:1009D00000127A00FEB50446002C01D10120FEBDB4
:1009E0002078C007C00F00286FD0F74887683821EB
:1009F0000F40C0688607B60F102F01D1032E01D01B
:100A0000082F0BD1F0480068012149040840002854
:100A10005BD06068002858D10120E0E700BF0121C9
:100A200009046068884205D1E74800680843E64940
:100A3000086021E005210904606888420ED1E2487F
:100A40000068012189040843DF49086008460068FE
:100A5000012109040843DC4908600DE0DA48006818
:100A6000012109048843D84908600846006801212B
:100A700089048843D449086000BF6068002812D008
:100A8000FFF732FD054606E0FFF72EFD401B642808
:100A900001D90320A3E7CC4800680121490408409C
:100AA0000028F1D011E0FFF71FFD054606E0FFF733
:100AB0001BFD401B642801D9032090E7C248006851
:100AC0000121490408400028F1D102212068084092
:100AD000022873D1BC488068382108400746BA48CC
:100AE000C0688607B60F102F01D1022E01D0002F4B
:100AF00036D1B5480068012189020840002804D099
:100B0000E068002801D1012069E7AF4840687F21F3
:100B100009028843616909020843AB494860002F14
:100B200016D1084600680721C90288432169084395
:100B3000A5490860084600680722D2021040C20A90
:100B4000012090400146A148FFF7E8FBA04908605A
:100B5000A0480068FFF7F0FC002849D001203EE7DC
:100B6000E06800282BD0984800680721C902884314
:100B700021690843944908600846006889150843BC
:100B800091490860FFF7B0FC054606E0FFF7ACFCB2
:100B9000401B022801D9032021E78B48006801216E
:100BA000890208400028F1D0874840687F21090267
:100BB00088436169090208438349486018E0824814
:100BC0000068FF21013188437F490860FFF78CFCF2
:100BD000054606E0FFF788FC401B022801D90320E8
:100BE000FDE6794800680121890208400028F1D11A
:100BF000082120680840082849D1734880683821B6
:100C0000084018280BD170484030006A0221084083
:100C100000283CD0A069002839D10120DFE6A06976
:100C200000281AD068484030006A0121084366490C
:100C300040310862FFF758FC054606E0FFF754FC18
:100C4000401B022801D90320C9E65F484030006AF2
:100C5000022108400028F1D019E05B484030006ACA
:100C600040084000584940310862FFF73DFC054606
:100C700006E0FFF739FC401B022801D90320AEE64D
:100C800051484030006A022108400028F1D1042177
:100C90002068084004287CD1002001904A488068E0
:100CA0003821084020280BD147484030C069022134
:100CB000084000286ED0A06800286BD101208EE685
:100CC0004148C06B010F01208843002810D000BFAD
:100CD0003D48C06B0121090708433B49C8630846EA
:100CE000C06B09040840009000BF00BF01200190C4
:100CF00039480068FF2101310840002816D13648E4
:100D00000068084334490860FFF7EEFB054606E03B
:100D1000FFF7EAFB401B022801D903205FE62E48BB
:100D20000068FF21013108400028F1D000BFA06811
:100D3000012808D124484030C069012108432249D4
:100D40004031C86120E0A06805280FD11E4840301E
:100D5000C069042108431C494031C8610846C06984
:100D60000121084318494031C8610DE01648403060
:100D7000C0694108490014484030C161C06904217C
:100D8000884311494031C86100BFA068002816D0CF
:100D900001E040E03EE0FFF7A7FB054607E0FFF774
:100DA000A3FB401B0D49884201D9032017E60648E2
:100DB0004030C069022108400028F0D01EE0FFF753
:100DC00093FB054614E00000001002400024F400EC
:100DD0001000002008000020007000408813000070
:100DE000FFF782FB401B6649884201D90320F6E5E4
:100DF0006448C069022108400028F1D10198012807
:100E000008D160484038C06B0121090788435D491B
:100E10004039C86300BFE06900285CD059484038B9
:100E200080683821084010287CD0E069022853D11E
:100E30005448403800680121090688435149403927
:100E40000860FFF751FB054606E0FFF74DFB401B2E
:100E5000022801D90320C2E54A4840380068012130
:100E6000490608400028F0D1616A206A0843A16A57
:100E700009020843E16A0843216B0843616B084398
:100E800040494039C968404A114008433D4940390A
:100E9000C8600846006801210906084339494039FD
:100EA00008600846C0680904084336494039C860EC
:100EB000FFF71AFB054606E0FFF716FB401B02286A
:100EC00001D903208BE52F484038006801214906ED
:100ED00008400028F0D050E02A484038006801213E
:100EE00009068843274940390860FFF7FDFA05469F
:100EF00006E0FFF7F9FA401B022801D903206EE54E
:100F00002048403800680121490608400028F0D1F7
:100F10001C484038C0681D4908401A494039C8601B
:100F20002BE0FFE7E069012800D158E5154840387B
:100F3000C668B107890F206A81421CD170203040F9
:100F4000616A884217D17F2000023040A16A0902FD
:100F5000884210D11F2040043040E16A88420AD103
:100F6000072040063040216B884204D1710F4907A9
:100F7000606B814201D0012031E500202FE50000A7
:100F800088130000401002408C80C111FCFFFEEE6F
:100F9000044909680322520291430143014A116046
:100FA000704700000000014070477047704710B55F
:100FB0000446002C01D1012010BD3D20005D002819
:100FC00005D100213C200155204600F026F80221E1
:100FD0003D200155211D206800F0F8F9012148202D
:100FE000015500BF3E2001553F20015540200155CD
:100FF00041200155422001554320015500BF00BF4B
:1010000044200155452001554620015547200155F2
:1010100000BF3D2001550020CEE7704701463D202E
:10102000405C012801D00120704702233D20435439
:101030000868C068012318430B68D860144B08681F
:1010400098420CD001239B070868984207D0114BA7
:101050000868984203D0104B086898420FD108687E
:1010600082680E4B1A40062A0FD0D81F82420CD03D
:1010700008680068012318430B68186005E00868D9
:101080000068012318430B6818600020CCE70000BB
:10109000002C014000040040004001400700010016
:1010A0007047000010B5044620680069022108401E
:1010B000400800281CD02068C0680840400800286C
:1010C00016D0481F216808610120207720688069B8
:1010D0008007800F002803D02046FFF7E1FF05E0DE
:1010E000204600F0DBF8204600F0D9F800202077F9
:1010F0002068006904210840800800281DD020686D
:10110000C06808408008002817D0C84321680861DB
:101110000220207720688069032109020840002806
:1011200003D02046FFF7BCFF05E0204600F0B6F8EC
:10113000204600F0B4F800202077206800690821DC
:101140000840C00800281CD02068C0680840C008BB
:10115000002816D0C8432168086104202077206841
:10116000C0698007800F002803D02046FFF798FF52
:1011700005E0204600F092F8204600F090F80020AC
:1011800020772068006910210840000900281DD040
:101190002068C06808400009002817D0C8432168AB
:1011A0000861082020772068C069032109020840EF
:1011B000002803D02046FFF773FF05E0204600F02B
:1011C0006DF8204600F06BF8002020772068006959
:1011D000C007C00F01214840484000280CD02068BB
:1011E000C068084048404840002805D0C81E216813
:1011F0000861204600F054F820680069802108400A
:10120000C00900280BD02068C0680840C009002829
:1012100005D0C843216808612046FFF7C6FE206854
:101220000069FF2101310840000A00280CD0206825
:10123000C06880210840C009002805D016482168F0
:1012400008612046FFF7B0FE206800694021084091
:10125000800900280BD02068C06808408009002859
:1012600005D0C84321680861204600F025F82068B1
:10127000006920210840400900280BD02068C06880
:1012800008404009002805D0C8432168086120466D
:10129000FFF78CFE10BD0000FFFEFFFF7047704798
:1012A00010B5044603492068884201D1FFF722F9AE
:1012B00010BD000000140040704700BFFEE70000B2
:1012C00010B5044A0021044800F0B8F90349086049
:1012D00010BD0000E83000082713000800000020BF
:1012E00008B500BF0D48406B202108430B494863F7
:1012F0000846406B20210840009000BF00BF00BF9F
:101300000648406B01210843044948630846406B86
:10131000C007C00F009000BF00BF08BD0010024012
:1013200000BFFEE7704700BF012000F03EF9FBE779
:1013300010B50448006901F0ABFC012801D001F0B0
:10134000ABF910BD00E000E000B593B0382105A86E
:10135000FEF7E2FF0020019002900390049001202C
:101360004002FFF777F90120059000040690022063
:101370000C9003210D9100210E9110210F91010479
:101380001091010611910107129105A8FFF722FBA8
:10139000002801D0FFF7A5F8072001900220029055
:1013A000002003900490022101A8FFF77FF9002894
:1013B00001D0FFF796F813B000BD704710B5024892
:1013C000FFF770FE10BD00008C00002010B5026811
:1013D000244B984206D001239B07984202D0224B0F
:1013E000984205D170241346A3431A464B681A430A
:1013F0001C4B984212D001239B0798420ED01A4BE7
:1014000098420BD0194B984208D0194B984205D0FE
:10141000184B984202D0184B984206D1032424025C
:101420001346A3431A46CB681A4380241346A343AA
:101430004C6923431A4602608B68C3620B6883625F
:10144000084B984208D00A4B984205D0094B984265
:1014500002D0094B984201D10B6903630123436118
:1014600010BD0000002C014000040040002000409E
:1014700000400140004401400048014030B474463F
:10148000641E2578641CAB4204D3635D5B00E318E3
:1014900030BC18471D46F8E710B5002819DB1A4A7A
:1014A00003231B02D21883089B00D2588307DC0E4B
:1014B000FF23A3409A438B071B0E8407E40EA3402F
:1014C0001A43114B032424021B198408A4001A5147
:1014D00018E00E4A03071B0F083B9B089B00D258DD
:1014E0008307DC0EFF23A3409A438B071B0E840760
:1014F000E40EA3401A43054B0407240F083CA4083C
:10150000A4001A5110BD000000E100E01CED00E055
:1015100010B5002819DB1A4A03231B02D2188308CE
:101520009B00D2588307DC0EFF23A3409A438B070E
:101530001B0E8407E40EA3401A43114B032424021C
:101540001B198408A4001A5118E00E4A03071B0F48
:10155000083B9B089B00D2588307DC0EFF23A34067
:101560009A438B071B0E8407E40EA3401A43054BD6
:101570000407240F083CA408A4001A5110BD000061
:1015800000E100E01CED00E0EFF305807047FEF79E
:10159000BDFFFFF7D9FEFFF7A3FE00F017F8FFF736
:1015A0008FFE00F02BF800BFFEE770B50546FFF791
:1015B000EBFF002802D00524E44305E00024002DC1
:1015C00002D0284600F050FF204670BD10B5FFF74E
:1015D000DBFF002802D00524E4430AE00648006847
:1015E000002804D1012004490860002401E00024FF
:1015F000E443204610BD00006400002010B5FFF752
:10160000C3FF002802D00524E44312E00A48006822
:1016100001280CD100BF0021801FFFF779FF00BF18
:1016200002200549086000F083FF002401E0002447
:10163000E443204610BD000064000020F7B586B0EA
:10164000144600200490FFF79FFF00285BD1069806
:10165000002858D08026182500200590471E002C11
:1016600032D02068002801D020680590A0690028A9
:1016700000D0A569002D06D0382D04D82079C007E8
:10168000C00F002802D0002009B0F0BD606900281A
:1016900001D060698608A06800280AD0E0685C284C
:1016A00007D32069002804D06069002801D00127F1
:1016B0000BE0A068002808D1E068002805D1206967
:1016C000002802D1002700E00027012F0CD121695A
:1016D000A0680095019102903246079B05990698F3
:1016E00001F091FA04900EE0002F0CD104A8B2B2E0
:1016F00000950190079B0599069801F053FA01287F
:1017000001D0002004900498BEE70000F8B505461B
:101710000E461748076817480068001D00F078FD5E
:10172000681C002808D1002E06D012480168091D47
:10173000114800F0C4FD1AE07C190E4800684460AE
:10174000BC4207D20B480168091D0C48006800F034
:101750009BFD0CE007480168091D0948006800F07E
:1017600093FD08480068844201D206480460F8BD31
:101770002800002014000020C80500201C000020C4
:10178000180000204400002010B5044600F0A4FD1D
:1017900022480068401C2149086021480068002850
:1017A00008D11F4804600846006801280ED100F0E7
:1017B000EDF90BE01B480068002807D118480068C5
:1017C000C06AE16A884201D815480460164800687A
:1017D000401C154908600846006860641349E06AC7
:1017E0000968884202D91149E06A08601422E16A56
:1017F00051430F4A8818211D00F061FD00F07AFD69
:1018000008480068002807D005480068C06AE16AF7
:10181000884201D200F0E0FD10BD0000240000204D
:101820001400002030000020400000202C00002088
:101830001801002008B500F04FFD1348006800288B
:101840001ED1124800F010FD114800F00DFD0F48A8
:10185000104908600E481049086000200F4B104ADC
:10186000102100900A2000F029FF0749086008466F
:101870000068002804D00BA10348006800F0B8FD00
:1018800000F038FD08BD000058000020DC050020F5
:10189000F005002050000020540000200406002025
:1018A00054060020546D72510000000010B516E07F
:1018B00000F012FD0C48C068C468201D00F0A8FCB0
:1018C0000A480068401E0949086009480068401E2F
:1018D0000749086000F00EFD204600F061F804485A
:1018E00000680028E4D110BDB405002024000020C9
:1018F0002000002070B504460D46206C00280ED054
:10190000216CE0684118E160A168E068884201D379
:101910002168E1602846226CE168FEF795FC70BD05
:10192000F8B504460F46154600200090A66B206CC3
:10193000002809D1206800282ED1A06801F05EFAA5
:1019400000900020A06027E0002D0FD13946226CC6
:101950006068FEF779FC216C606840186060A168DF
:101960006068884218D32068606015E03946226CB0
:10197000E068FEF769FC216CE068411AE1602168CB
:10198000E068884203D2216CA068411AE160022D10
:1019900002D1002E00D0761E701CA0630098F8BD06
:1019A00010B504465920005D002806D1206B00F0D8
:1019B000B5FC204600F0B2FC13E05920005D012880
:1019C00003D1204600F0AAFC0BE05920005D02285C
:1019D00001D1012000E00020002802D172B600BF32
:1019E000FEE710BD0146094A12681268002A01D1BB
:1019F000012200E000220A600A68002A04D1034A9A
:101A00001268D268106800E0002070475000002083
:101A100030B503239B0217484407640F002C05D000
:101A2000C01DC008C000134C041B1B1B0246124CF7
:101A300022600024104D6C60D0180838C008C00027
:101A40000E4C206000240D4D2D686C600B4D2D68F0
:101A50002C601146441A4C60084C24680C60084DF8
:101A60004C682C60074D4C682C600124E407064D3F
:101A70002C6030BDAC0D00206800002070000020FC
:101A800078000020740000208400002000BFFFF7D1
:101A90000DFF034800680128F9D900F09DFCF6E726
:101AA00018010020FFB581B006460D4617460A9C76
:101AB000002D01D1246000E02760E6632564012148
:101AC000204600F04BFE4C210498085505B0F0BDAF
:101AD000FFB581B00E460A9F0C9C039A9100A52287
:101AE000206BFEF7F2FB216B0398401E8000081864
:101AF00000900098C008C000009000984007400F78
:101B0000002801D1012000E00020002802D172B697
:101B100000BFFEE7002E11D0002508E0715D2046D1
:101B200034304155705D002800D102E06D1C102D4D
:101B3000F4D300BF00214320015502E000213420EE
:101B40000155382F00D33727E762E764002020656E
:101B5000201D00F096FB2046183000F092FB246117
:101B60003820C01BA06164620020606500215820FD
:101B70000155049A0199009800F03AFB20600B98F7
:101B8000002801D00B98046005B0F0BD10B500240A
:101B900006E0142161430E4A881800F065FB641CBE
:101BA000382CF6D30B4800F05FFB0B4800F05CFBD1
:101BB0000A4800F059FB0A4800F056FB094800F0BB
:101BC00053FB04480849086003480849086010BDF1
:101BD00018010020780500208C050020A0050020B9
:101BE000B4050020C8050020180000201C000020BB
:101BF00010B50146164800E0006803688B42FBD32D
:101C0000024643689B188B4204D143684C681B19F9
:101C1000436001460A464B689B180468A34211D1F1
:101C20000C4C03682468A34208D04B6804686468BD
:101C30001B194B6003681B680B6005E0054B1B68B4
:101C40000B6001E003680B60884200D0016010BDAA
:101C50006800002070000020F8B504460D461646C6
:101C60001F460020009065602461B5420CD8F01B2F
:101C7000A169884202D30120009011E0211D09488A
:101C8000006800F001FB0BE0BE4204D2BD4202D36B
:101C90000120009004E0211D0348006800F0F4FAE0
:101CA0000098F8BD540000205000002070B5054693
:101CB00000F012FBA86B002801D1012400E00024F1
:101CC00000F018FB204670BD70B5054600F004FB1F
:101CD000A86BE96B884201D1012400E0002400F0E8
:101CE00009FB204670BD0000F8B505460F461748B1
:101CF0000068C068C468201D00F08AFA2820005DD2
:101D000004210840002817D0A06941192B463A4603
:101D10002046FFF7A1FF002814D0002003462A46E2
:101D200001460090204601F0A1F90646002E02D19E
:101D300072B600BFFEE705E02820005D41084900BB
:101D4000282001552046216A8847F8BD5000002010
:101D5000F0B587B090E0039800280ADA04AF002FAE
:101D600002D172B600BFFEE73A68B968786890475A
:101D700000BF039800287FDB059C6069002801D123
:101D8000012000E00020002802D1201D00F040FAD0
:101D900002A800F0D1F8054603980300FFF76EFB98
:101DA0000A0A0608353D590709363E6A00BF00BFDA
:101DB00000BF00BF2820005D0121084328210855ED
:101DC0000498A269811803462A462046FFF744FF7B
:101DD000002819D02046216A88472820005D042168
:101DE0000840002810D0002000900498A1694218F3
:101DF00000231946204601F039F90646002E02D18B
:101E000072B600BFFEE700BF35E000BF2820005DCE
:101E100041084900282001552DE000BF2820005D21
:101E200001210843282108550498A061A0690028D1
:101E300001D0012000E00020002802D172B600BFCE
:101E4000FEE7A06941192B462A462046FFF704FF0A
:101E500011E02820005D02210840002803D120461F
:101E600000F05CFA05E02820005D410849002820C8
:101E7000015500E000BF00BF002203A9044800682C
:101E800000F0BAFD002800D065E707B0F0BD000003
:101E900058000020F8B505460C4600F099FB68464E
:101EA00000F04AF806460098002822D1002C08D1FC
:101EB000B54206D801F02AF831462846FFF714FF4C
:101EC00019E0002C08D00C4800680068002801D1F7
:101ED000012000E000200446A91B224607480068B4
:101EE00000F09CFA01F012F8002804D100F074FA16
:101EF00001E001F00BF8F8BD54000020580000206C
:101F00000B4909680968002901D1012100E000217D
:101F1000002904D00021C943064A116006E00449A3
:101F20000968C968C868034A4168116070470000C1
:101F3000180000204400002070B5044600F0BAFEEE
:101F4000054607480068854204D200F00BF80120DE
:101F5000206001E00020206001480560284670BD37
:101F600060000020FEB52EE021480068C0680568CA
:101F70001F480068C068C468201D00F049F9204669
:101F8000216A88472820005D0421084000281AD0D3
:101F9000A0694619AE4207D966602461211D144824
:101FA000006800F071F90EE0002003462A46014661
:101FB0000090204601F05AF80746002F02D172B671
:101FC00000BFFEE700BF0A4800680068002801D192
:101FD000012000E000200028C6D0054800680190DC
:101FE0000448006802490860024901980860FEBD83
:101FF000500000205400002007480068401C0028C2
:1020000001D1012000E00020002802D172B600BFFB
:10201000FEE772B600BFFEE78800002008B500BFEB
:102020006846FFF7DFFC044620460099FFF732FFC1
:10203000FFF78EFEF4E770B5044600F04DF9452039
:10204000055713E0606A002801D1012000E000205C
:10205000002808D12046243000F014FF002803D0C7
:1020600000F030FA00E003E0681E45B2002DE9DC24
:1020700000BF0021C9434520015500F03BF900F0A5
:102080002BF94420055713E02069002801D10120D5
:1020900000E0002000280AD12046103000F0F2FEB7
:1020A000002801D000F00EFA681E45B200E001E001
:1020B000002DE9DC00BF0021C9434420015500F098
:1020C00019F970BDF8B504460020009000F080FAC0
:1020D00041480068002801D1FFF79AFC3F4800689A
:1020E0002040002866D1002C15D008346007400F2E
:1020F000002810D06007400F0821081A0419600753
:10210000400F002801D1012000E00020002802D16A
:1021100072B600BFFEE7002C4CD031480068844204
:1021200048D8304E3046056801E02E462D68686874
:10213000A04202D228680028F7D1274800688542CB
:1021400038D0306808300090286830606868001B1C
:10215000102813D92F197807400F002801D101202A
:1021600000E00020002802D172B600BFFEE76868D8
:10217000001B78606C603846FFF73AFD18496868C4
:102180000968081A1649086008460068164909686F
:10219000884203D212480068134908600F496868F2
:1021A0000968084368600020286010480068401CE7
:1021B0000E49086000F0AAFE00984007400F002872
:1021C00001D1012000E00020002802D172B600BF3A
:1021D000FEE70098F8BD0000700000208400002099
:1021E0007400002068000020780000207C0000209F
:1021F000001F01231B060360001F0160001F034B2B
:10220000036014380260203870470000F91F00088E
:1022100001460A694B68886898608B68486858600E
:102220005068884201D188685060002008611068B9
:10223000401E106010687047034B0360034B0B6037
:102240008023136070470000F40600205007002030
:10225000034B0360034B0B60FF2301331360704794
:1022600050090020AC0900200146083141600021DE
:10227000C943816001460831C160016100210160EC
:10228000704700210161704710B502460B685C1C65
:10229000002C01D1106907E01046083000E04068CA
:1022A000446824689C42FAD944684C604C68A16038
:1022B000886041600A611468641C146010BD426843
:1022C0004A6093688B609368596091600861036805
:1022D0005B1C03607047000072B605480068401C34
:1022E00003490860BFF34F8FBFF36F8F7047000043
:1022F0008800002008480068002802D172B600BF9C
:10230000FEE705480068401E03490860084600686B
:10231000002800D162B670478800002070B50646DC
:102320003546002E3AD0083D2C461D4960680968A4
:102330000840002801D0012000E00020002802D140
:1023400072B600BFFEE72068002801D1012000E03E
:102350000020002802D172B600BFFEE71049606875
:1023600009680840002819D02068002816D10C49B7
:10237000606809688843606000F02AF9094960686C
:1023800009684018074908602046FFF731FC0648F5
:102390000068401C0449086000F0B8FD70BD0000F2
:1023A00084000020740000208000002010B5002070
:1023B0000749086188617D21C90006480068FDF76A
:1023C000ADFF401E024948610720086110BD0000B2
:1023D00000E000E0100000200120000703494860F1
:1023E000BFF34F8FBFF36F8F7047000000ED00E029
:1023F00010B5024600200BE0C300074CE358002B49
:1024000005D1C300E150C3001B195A6002E0401C13
:102410000828F1D300BF10BDD8000020F8B505464C
:102420000E4617462C46FFF757FF44210857401C1D
:10243000002802D100214420015545210857401CA5
:10244000002802D1002145200155FFF753FFA06B62
:10245000002805D13A4631462046243000F04EF897
:102460002046FFF7E8FDF8BD70B504460025002CB6
:1024700014D00D480068002801D1012000E00020A0
:10248000002802D172B600BFFEE700F0A1F80021DB
:102490002046FFF73BF900F039FD0546002D01D13C
:1024A000FFF79AFF70BD00004C0000200349096847
:1024B0000160034909684160704700003C0000204A
:1024C00028000020012001490860704738000020E2
:1024D00070B504460D46002C02D172B600BFFEE76F
:1024E0000548016818312046FFF7CEFE0121284635
:1024F000FFF70CF970BD00001400002070B5054610
:102500000E461446002D02D172B600BFFEE7074802
:10251000016818312846FFF7D2FE002C01D00026B2
:10252000F64321463046FFF7F1F870BD1400002055
:1025300010B586B000200590049003AA04A905A850
:10254000FFF77AFE00220499059813460092019144
:10255000029018A11948039A00F055FB1849086029
:1025600008460068002801D0012400E00024012C66
:1025700002D100F043FD0446012C0DD172B60020BB
:10258000C0431049086001200F49086000200F492E
:10259000086000F065F80AE0601C002801D0012006
:1025A00000E00020002802D172B600BFFEE706B0AE
:1025B00010BD000049444C45000000008D1A000881
:1025C00048000020440000203000002028000020A7
:1025D00002480068401C0149086070474C00002018
:1025E0001A480068002803D00120194908602CE02F
:1025F0000020174908601748016805E0002902D14A
:1026000072B600BFFEE7491E14204843124A105814
:10261000002801D1012000E000200028EED1142282
:102620004A430D4BD0184268526842600246083255
:102630004368934202D14268526842604268D2685D
:10264000064B1A600348016000BF70474C00002031
:10265000380000202C000020180100201400002069
:1026600010B50B48006AFF210904084308490862B5
:102670000846006AFF210906084305490862FFF77A
:1026800095FE002003490860FDF76AFD002010BD9B
:1026900000ED00E08800002010B5FDF775FD044650
:1026A00000F00EFB002803D001200007024948601B
:1026B0002046FDF76DFD10BD00ED00E0FFB581B0D7
:1026C0000E4617461D460198002801D0012000E063
:1026D0000020002802D172B600BFFEE7002D01D015
:1026E000012000E00020002802D172B600BFFEE702
:1026F000002F01D0002E01D0012000E00020002892
:1027000002D172B600BFFEE7002F01D1002E01D129
:10271000012000E00020002802D172B600BFFEE7D1
:10272000502000900098502801D1012000E00020A6
:10273000002802D172B600BFFEE700BF2C46002C75
:1027400009D001214620015500943A4631460A9BA2
:102750000198FFF7A7F9204605B0F0BD70B5054612
:102760000E462C46002C02D172B600BFFEE7FFF7E2
:10277000B3FD216CE06B484321684018A060002045
:10278000A06320686060E06B401E216C48432168B4
:102790004118E1600021C9434420015545200155FD
:1027A000002E10D12069002801D1012000E0002076
:1027B000002810D12046103000F064FB00280AD019
:1027C000FFF70AFE07E020461030FFF74DFD2046D8
:1027D0002430FFF749FDFFF78DFD012070BDFFB5E7
:1027E00083B006461D46002002903446002C02D1DC
:1027F00072B600BFFEE70498002802D1206C0028C2
:1028000001D1012000E00020002802D172B600BFF3
:10281000FEE7022D02D1E06B012801D1012000E08A
:102820000020002802D172B600BFFEE700F030FAA7
:10283000002802D10598002801D1012000E00020E5
:10284000002802D172B600BFFEE700BFFFF744FDCB
:10285000A06BE16B884201D3022D1FD12A4620468E
:102860000499FFF75DF80746606A002801D101204E
:1028700000E00020002808D12046243000F002FBB0
:10288000002806D0FFF7A8FD03E0002F01D0FFF7D6
:10289000A3FDFFF72FFD012007B0F0BD059800282C
:1028A00003D1FFF727FD0020F6E70298002804D1A6
:1028B0006846FFF7FBFD01200290FFF71BFDFFF7C5
:1028C00087FEFFF709FD44210857401C002802D16C
:1028D00000214420015545210857401C002802D101
:1028E000002145200155FFF705FD05A9684600F0C8
:1028F0001FF9002819D12046FFF7E6F900280ED06D
:10290000204610300599FFF7E3FD2046FFF793FBC3
:1029100000F0FCFA002899D1FFF75EFD96E720460B
:10292000FFF789FB00F0F2FA90E72046FFF783FB00
:1029300000F0ECFA0020AFE7FFB585B00646174679
:102940001D463446002C02D172B600BFFEE7069841
:10295000002802D1206C002801D1012000E00020D5
:10296000002802D172B600BFFEE7022D02D1E06B53
:10297000012801D1012000E00020002802D172B618
:1029800000BFFEE7FDF700FC0390A06BE16B8842FF
:1029900001D3022D28D1452001570291A06B01904F
:1029A0002A4620460699FEF7BBFF0298401C0028E5
:1029B00012D1606A002801D1012000E00020002827
:1029C00009D12046243000F05DFA002803D0002F02
:1029D00001D00120386004E00298401C41B245203B
:1029E00001550120049001E0002004900398FDF7B8
:1029F000CFFB049809B0F0BDF7B584B005460E468C
:102A0000002003902C46002C02D172B600BFFEE7D6
:102A1000002E02D1206C002801D1012000E000200E
:102A2000002802D172B600BFFEE700F031F900289D
:102A300002D10698002801D1012000E000200028E2
:102A400002D172B600BFFEE700BFFFF745FCA76BDF
:102A5000002F1AD031462046FEF74CFF781EA063A7
:102A60002069002801D1012000E00020002807D1C2
:102A70002046103000F006FA002801D0FFF7ACFC29
:102A8000FFF738FC012007B0F0BD0698002803D1FD
:102A9000FFF730FC0020F6E70398002804D101A8D6
:102AA000FFF704FD01200390FFF724FCFFF790FDE2
:102AB000FFF712FC44210857401C002802D10021D6
:102AC0004420015545210857401C002802D100210F
:102AD00045200155FFF70EFC06A901A800F028F8D3
:102AE000002819D12046FFF7E1F800280ED0204633
:102AF00024300699FFF7ECFC2046FFF79CFA00F023
:102B000005FA0028A1D1FFF767FC9EE72046FFF7F2
:102B100092FA00F0FBF998E72046FFF78CFA00F0F4
:102B2000F5F92046FFF7C2F800288ED00020AAE76A
:102B300070B505460C46002D02D172B600BFFEE707
:102B4000002C02D172B600BFFEE7FFF7C5FB1348A9
:102B500002686868131A2068401C002801D100260A
:102B600017E00F4928680968884204D068689042D5
:102B700001D801260DE02068984207D92068C01AC4
:102B800020602846FFF792FC002602E0002020602B
:102B90000126FFF7AFFB304670BD00002800002083
:102BA0003C000020FFB585B01746B800FFF78AFA51
:102BB0000646002E0BD05C20FFF784FA0446002C5A
:102BC00001D0266304E03046FFF7A8FB00E00024B4
:102BD000002C13D000215920015500220F990E9886
:102BE0006B4613C303923A46089B06990598FEF775
:102BF0006FFF2046FEF7C8FD012501E00025ED43EB
:102C0000284609B0F0BDFFB585B00E9F0F9E109C01
:102C1000002E01D0012000E00020002802D172B671
:102C200000BFFEE7002C01D0012000E000200028BA
:102C300002D172B600BFFEE75C20039003985C28C7
:102C400001D1012000E00020002802D172B600BFAF
:102C5000FEE700BF002C15D0002E13D025462E63B2
:102C600002212C4659204155002004A900970295C5
:102C70000191039005A80FC8FEF72AFF2846FEF72A
:102C800083FD01E000200490049809B0F0BD00002D
:102C900006490968002901D1012006E004490968B4
:102CA000002901D1022000E0002070473000002000
:102CB0004C000020014908687047000028000020EF
:102CC000F8B50020009042480068002878D14148BB
:102CD0000068451C3F480560002D1CD13E48006837
:102CE0000068002801D1012000E00020002802D166
:102CF00072B600BFFEE738480768384800683649B2
:102D000008603648076036480068401C344908604F
:102D1000FFF7F6F800BF3348006885423DD300BF97
:102D20002D4800680068002801D1012000E0002043
:102D3000002804D00020C0432A4908602CE026481F
:102D40000068C068C4686668B54202D2254806605B
:102D500022E0201DFFF75CFAA06A002803D020467D
:102D60001830FFF755FA2049E06A0968884202D90D
:102D70001D49E06A08601422E16A51431B4A881821
:102D8000211DFFF79CFA1A49E06A0968C96A88425E
:102D9000C6D301200090C3E700BF15480068C06A91
:102DA0001421484311490858012801D901200090F5
:102DB00010480068002801D00120009005E0FFE7DE
:102DC0000D480068401C0C4908600098F8BD0000E0
:102DD0004C00002028000020180000201C000020CB
:102DE0003C000020440000202C000020180100209E
:102DF00014000020380000203400002070B5054683
:102E00002C460026002D35D01B480068844201D195
:102E1000012000E00020002802D172B600BFFEE7CA
:102E2000206D002802D172B600BFFEE7206D401E63
:102E30002065E16CE06A88421CD0206D002819D121
:102E4000201DFFF7E5F9E06CE0623821E06A081A1E
:102E5000A0610A49E06A0968884202D90749E06A24
:102E600008601422E16A5143054A8818211DFFF7C2
:102E700026FA0126304670BD140000202C000020E8
:102E80001801002070B50646F068C468002C02D115
:102E900072B600BFFEE720461830FFF7B9F91548B3
:102EA0000068002813D1201DFFF7B2F91249E06A2B
:102EB0000968884202D91049E06A08601422E16A70
:102EC00051430E4A8818211DFFF7F9F904E0214605
:102ED00018310B48FFF7F3F90A49E06A0968C96A33
:102EE000884204D9012501200749086000E0002537
:102EF000284670BD4C0000202C0000201801002046
:102F0000A0050020140000203800002070B5002427
:102F1000002632480068002802D172B600BFFEE7E2
:102F2000FFF7DAF92D480068401E2C490860084672
:102F3000006800284DD12A480068002849D022E0C6
:102F40002848C068C46820461830FFF761F9201D82
:102F5000FFF75EF92449E06A0968884202D92249EC
:102F6000E06A08601422E16A5143204A8818211D52
:102F7000FFF7A5F91E49E06A0968C96A884202D3C9
:102F800001201C49086017480068002801D1012071
:102F900000E000200028D3D0002C01D0FEF7B0FFC5
:102FA00015480568002D0DD000BFFFF789FE0028E9
:102FB00002D001200F4908606D1E002DF5D10020C0
:102FC0000D4908600B480068002802D00126FFF771
:102FD00003FAFFF78FF9304670BD00004C00002067
:102FE00024000020A00500202C0000201801002053
:102FF00014000020380000203400002010B586B0F6
:103000000024FEF717FC1448006800281BD000209D
:103010000590049003AA04A905A8FFF719F9022254
:103020000499059800230092019102900BA10D488C
:10303000039AFFF7E8FD0C4908600846006800287D
:1030400000D0012400BF002C02D172B600BFFEE701
:10305000204606B010BD000058000020546D7220BC
:10306000537663001D2000085C000020F0B585B099
:1030700004460D4616461F4600200490002C02D13F
:1030800072B600BFFEE715480068002822D0009500
:1030900001960294062D15DAFFF7FAFD022808D1F1
:1030A000002369460D480A9A0068FFF798FB0490D0
:1030B00010E000231A46694608480068FFF78FFBB6
:1030C000049007E000233A46694604480068FFF789
:1030D00033FC0490049805B0F0BD000058000020B7
:1030E000081C3044586C8000743100080000000057
:1030F00000000000000000000000000000020000CE
:10310000180000000000000000000000081C30440F
:10311000586C80000000000000000000000000006B
:10312000000000000000000000000000000000009F
:103130000000000001000000020000000300000089
:103140000400000006000000070000000800000066
:103150000900000000000000000000000000000066
:103160000000000001000000020000000300000059
:103170000400000064656661756C745461736B00D3
:10318000A0310008000000208C00000000010008B1
:103190002C3200088C000020841F00001C01000855
:1031A000000000000000000004000000010000001A
:1031B0000024F400000000000000000000000000F7
:1031C00000000000000000000000000000000000FF
:1031D00000000000000000000000000000000000EF
:1031E00000000000000000000000000000000000DF
:1031F00000000000000000000000000000000000CF
:1032000000000000000000000000000000000000BE
:1032100000000000000000000000000000000000AE
:0C3220000000000000000000AAAAAAAAFA
:04000005080000BD32
:00000001FF
