:020000040800F2
:10000000382500200D0300088D2A0008272A000843
:1000100000000000000000000000000000000000E0
:10002000000000000000000000000000912A00080D
:100030000000000000000000930200089D2A000854
:100040001F0300081F0300081F0300081F03000808
:100050001F0300081F0300081F0300081F030008F8
:100060001F0300081F0300081F0300081F030008E8
:100070001F0300081F0300081F0300081F030008D8
:100080001F0300081F030008292B00081F03000896
:100090001F0300081F0300081F0300081F030008B8
:1000A0001F0300081F0300081F0300081F030008A8
:1000B0001F0300081F0300081F03000800F002F8D8
:1000C00000F0BDF80CA030C8083824182D18A2463E
:1000D000671EAB4654465D46AC4201D100F0AFF816
:1000E0007E460F3E0FCCB6460126334200D0FB1AA7
:1000F000A246AB463343184784570000A45700007C
:10010000103A02D378C878C1FAD8520701D330C860
:1001100030C101D504680C60704700000023002442
:1001200000250026103A01D378C1FBD8520700D32E
:1001300030C100D50B60704710B56E2902D100F0B8
:10014000DBFC10BD702902D100F0FBF910BD66295F
:1001500002D105F00DFA10BD652902D105F008FAAB
:1001600010BD672902D105F003FA10BD612902D143
:1001700005F006FA10BD03681B0A01D3802319435A
:10018000692902D100F068F910BD642902D100F09C
:1001900063F910BD752902D100F05EF910BD6F2919
:1001A00002D100F0B1FD10BD782902D100F0B6F9FE
:1001B00010BDE92902D100F04DFD10BDE42902D1A6
:1001C00000F048FD10BDF52902D100F043FD10BD3F
:1001D000EF2902D100F0A4FD10BDF82902D100F0F2
:1001E000ABF910BD0368DB0901D3802319436329F0
:1001F00002D100F0C5FC10BD732902D100F0C8FC8B
:1002000010BDE32902D101F068F910BDF32902D134
:1002100001F06BF910BD002010BD1FB501F0B0F961
:1002200004000020002105F08DF9401C60600020D2
:10023000002105F071F9E0601FBD10B510BD01F09F
:1002400078F91146FFF7E9FF03F0A0FB01F0A8FCE5
:1002500003B4FFF7F2FF03BC01F0F2FC084B19688E
:100260000868203080F30988022080F31488BFF3E7
:100270006F8F3FBCAE4608BC04BC62B61847000096
:1002800014000020EFF3108072B6704780F31088DE
:100290007047EFF309800E4B1A6820381060F0C0E9
:1002A00044464D4656465F46F0C008B572B604F067
:1002B000B3FB62B60CBC116808681030F0C8A046E9
:1002C000A946B246BB4680F309882038F0C81847D3
:1002D0001400002070B505460C46164602E00FCC0F
:1002E0000FC5103E102EFAD2082E02D303CC03C540
:1002F000083E042E07D301CC01C5361F03E0217848
:100300002970641C6D1C761EF9D270BD07488047A9
:1003100007480047FEE7FEE7FEE7FEE7FEE7FEE7E9
:1003200004480549054A064B70470000272B000882
:10033000BD000008381F002038250020382100208B
:10034000382100207CB51D4616460C00009001D0D7
:100350000019401E084B7B442A46694601903046EE
:1003600000F0E3FB002C054603D06946002000F0B6
:10037000EFFB28467CBD0000010800000FB47CB5EF
:100380000C0009AA009001D00019401E094B7B44C3
:1003900069460190089800F0C8FB002C054603D080
:1003A0006946002000F0D4FB28467CBC08BC04B0A1
:1003B00018470000C907000070B504468569006849
:1003C000C10601D5302600E02026C00707D070BD49
:1003D00062683046A1689047206A401C20626D1E0A
:1003E000F6D570BD70B5044685690078C00707D1A1
:1003F00070BD6268A16820209047206A401C20627E
:100400006D1EF6D570BD70B50C460546012A05D0A7
:100410002878800600D5EA69002302E0012305E080
:100420005B1C934202D2E05C0028F9D1A869E6186F
:10043000C01AA861286AC01828622846FFF7BCFFC6
:1004400004E06A682078A968641C9047B442F8D335
:100450002846FFF7C7FF70BDF7B50025752910685E
:10046000009914A611D000F0DDFA002802DA40420B
:1004700011A608E0009909688A0701D50FA602E0D5
:10048000490704D50EA6012501E000F0D4FA009F2B
:100490000024243704E000F04DFC30313955641C51
:1004A0000028F8D12B4632462146009800F0CCFABD
:1004B000FEBD0000000000002D0000002B00000029
:1004C00020000000F8B50F460188090502D5224C2E
:1004D0007C4402E0204C7C440E3405460021243547
:1004E00008E016071209360FA65D6E541E07324348
:1004F0001B09491C16461E43F3D1224604780023EB
:10050000240705D5702F06D0002901D0022311320F
:1005100000F09AFAF8BD01231032F9E770B50446ED
:100520000D462146106800F086FA0023024629464F
:100530002046FFF7C7FF70BDD21DD308DB000CCBF0
:10054000C0E730B403682024126823430360082303
:10055000C36130BC0023B5E755520000F3B5044633
:10056000002081B020622046E1688847002872D0D0
:10057000252802D06268A168ABE0594F00267F446D
:100580002046E16888472028054608DB312D06D241
:10059000781920380078002801D00643F0E7B0072A
:1005A00001D5042086430020E0610746A0612A2D82
:1005B0000AD0284602F0CFFB002827D0B800001947
:1005C000303D0090856119E00298BA00121902C806
:1005D000916102902046E1688847012F054617D1B6
:1005E000E06900281FDA202086431CE000980A21D9
:1005F0008069484300994019303888612046E16895
:100600008847054602F0A7FB0028EFD1012F0AD04A
:100610002E2D08D12046E168884705462020064354
:100620007F1C022FC3DBA069002803DA4042A061CF
:1006300001200643F00701D0102086436C2D0BD01B
:10064000682D09D04C2D3CD06A2D38D0742D38D06F
:100650007A2D36D016E040E0E1682F4620468847E4
:10066000B842054609D16C2F29D001208002E168EB
:10067000064320468847054604E06C2F1DD0FF2026
:1006800001300643002D28D028464138192803D8C8
:100690000120C00206432035204626602946029AE2
:1006A0001646FFF749FD002810D001280BD0F61D93
:1006B000F008C0000830029055E74020E1E78020B4
:1006C000D5E70020D3E7361D02964CE7626828463E
:1006D000A1689047206A401C44E7206AFEBD0000E4
:1006E000CF51000030B505460B462A461C781078DD
:1006F000521C5B1C002801D0A042F7D0002C03D074
:10070000002802D06D1CEFE7284630BD30B5441CF0
:1007100003E00178401C00290DD08107F9D10B4B73
:10072000DD0104C8D11A91432940FAD0001B0A0602
:1007300003D0C01E30BD001B30BD0A0401D0801E96
:1007400030BD0902FCD0401E30BD00000101010196
:100750000346F0B50B439B072DD1244DEF01042A2E
:1007600029D308C810C95E1B9E43121F3E4017D0F4
:10077000D8B2E1B2401A3106014310D198B2A1B209
:10078000401A310401430AD118022102000A090A61
:10079000401A3102014302D1180E210E401AF0BD59
:1007A000A342DCD018BA21BA884201D90120F0BD99
:1007B0000020C043F0BD002A01D10020F0BD037825
:1007C0000C78401C491C002B0DD0A3420BD1521EAB
:1007D00009D003780C78401C491C002B03D0A3429D
:1007E00001D1521EEBD1181BF0BD00000101010127
:1007F000F8B5042A2CD3830712D00B78491C037058
:10080000401C521E83070BD00B78491C0370401C00
:10081000521E830704D00B78491C0370401C521EE3
:100820008B079B0F05D0C91ADF002023DE1B08C9E8
:100830000AE0FFF74FFDF8BD1D4608C9FD401C4604
:10084000B4402C4310C0121F042AF5D2F308C91A71
:10085000521EF0D40B78491C0370401C521EEAD47F
:100860000B78491C0370401C012AE4D409780170FC
:10087000F8BDD2B210B513029A1813049A1800F0FA
:100880000EF810BD01E004C0091F0429FBD28B073C
:1008900001D50280801CC90700D002707047002972
:1008A0000BD0C30702D00270401C491E022904D39A
:1008B000830702D50280801C891EE3E70022EEE751
:1008C0000022DFE7002203098B422CD3030A8B426C
:1008D00011D300239C464EE003460B433CD4002238
:1008E00043088B4231D303098B421CD3030A8B424A
:1008F00001D394463FE0C3098B4201D3CB01C01A18
:10090000524183098B4201D38B01C01A52414309E2
:100910008B4201D34B01C01A524103098B4201D3D0
:100920000B01C01A5241C3088B4201D3CB00C01A3D
:10093000524183088B4201D38B00C01A52414308B5
:100940008B4201D34B00C01A5241411A00D20146DA
:100950005241104670475DE0CA0F00D04942031073
:1009600000D34042534000229C4603098B422DD3C2
:10097000030A8B4212D3FC22890112BA030A8B426A
:100980000CD3890192118B4208D3890192118B42B9
:1009900004D389013AD0921100E08909C3098B423E
:1009A00001D3CB01C01A524183098B4201D38B0181
:1009B000C01A524143098B4201D34B01C01A524124
:1009C00003098B4201D30B01C01A5241C3088B4269
:1009D00001D3CB00C01A524183088B4201D38B0054
:1009E000C01A5241D9D243088B4201D34B00C01ADE
:1009F0005241411A00D20146634652415B101046F3
:100A000001D34042002B00D54942704763465B103A
:100A100000D3404201B50020C046C04602BD704729
:100A20007047704709684A0501D540B27047C9054B
:100A3000FCD500B2704709684A0501D5C0B27047BD
:100A4000C905FCD580B27047FFB504460D4681B09C
:100A5000243000902168880604D51022E069914373
:100A6000216000E00120A84201DD471B00E00027D3
:100A70000498A1697A191018081AA0612078C00694
:100A800002D42046FFF798FC002608E0039862682D
:100A9000A168805D9047206A401C761C2062049803
:100AA0008642F3DB2078C0060AD52046FFF784FC97
:100AB00006E06268A16830209047206A401C2062EE
:100AC00038467F1E0028F4DC07E000986268A168C1
:100AD000405D9047206A401C206228466D1E002819
:100AE000F3DC2046FFF77EFC2078000602D50220CA
:100AF00005B0F0BD0120FBE711680268006A5305EC
:100B000001D5087009E0D30501D5088005E013067A
:100B100002D5C21705C100E008600120704700003F
:100B200001694A1C02610878704700B58FB00291D4
:100B300000210591054901937944039111460490E0
:100B40006846FFF70BFD0FB000BD0000E5FFFFFF9B
:100B50000A681070521C0A6070470CC908399A4222
:100B600002D2531C0B601070704710B54369002B04
:100B700002D0C046C04601E0FFF745FC012010BD91
:100B80001278014624310A7000224A700122ECE7F3
:100B900011680022D243E8E7F7B50446154686B04F
:100BA0002B487844002703C83E460090019111E08D
:100BB00007986A467100415A02A800F09AFC411C4D
:100BC00007D02178890603D5E269391891420ED8F9
:100BD0003F18761C2078800602D5E069B84206DD11
:100BE000AE42E5DB07987100405A0028E0D1A069C9
:100BF000C01BA0612046FFF7DFFB154878445A3838
:100C000003C800900020019116E041006A46079851
:100C1000415A02A800F06DFC0590401C0AD0002546
:100C200005E0626802A8A168405D90476D1C0598C8
:100C30008542F6D30498401CB0420490E5DB206A5C
:100C4000C01920622046FFF7CDFB09B0F0BD0000BF
:100C5000BE4B0000F7B5D21D0025D20815A6D20064
:100C6000F52905CA11D0002A05DA00214042914138
:100C700011A60A4608E0009909688B0701D50FA65E
:100C800002E0490701D50EA601251146009F002468
:100C9000243704E000F062F830323A55641C024612
:100CA0000A43F7D12B46324621460098FFF7CCFE87
:100CB000FEBD0000000000002D0000002B00000021
:100CC0002000000070B504460021243408E05507D8
:100CD000D2086D0F303565545D072A43DB08491C87
:100CE00015461D43F3D10468002310A2250708D53B
:100CF000A40601D4002904D0C46901230CA2641EF7
:100D0000C461FFF7A1FE70BD10B50446214610680E
:100D1000FFF791FE002302462046FFF7D3FF10BDE8
:100D2000D21DD108C9000CC9CCE7000000000000AA
:100D30003000000001468008081A02091018020A53
:100D40001018020C1018C008820012185200891ADC
:100D500001E0401C0A390A29FBD270470B4670B5E6
:100D6000024689078008084319469D08141AA941BC
:100D700025090807054308092C194841250A0106D9
:100D80000D43010A2C194141200C0D0428430D0C80
:100D900000194D41002140194D41C0086907084321
:100DA000E908840F8D002543840024184D4124193F
:100DB0006D41121BAB4107E00925ED432C1152197F
:100DC00063410024401C61411C460A250026551B36
:100DD000B441F1D270BD00007047FFB50C461E460D
:100DE0008FB003CA089009914F007D0D00D16D1E90
:100DF000002108460020C0460321099A89050840C1
:100E0000002A03DA8200801840080840800D01287B
:100E10000A9002DD0020C0430A90089807430DD0D5
:100E2000EF48F049281848430714189800281DD0A7
:100E30007542291E1DDD0A9842421BE018980128C0
:100E400002D00020302104E00020F24305E02154CC
:100E5000401CB042FBDB30460022189B002121548D
:100E60000F998B600A60486013B0F0BDBD1B6D1C0C
:100E7000DFE70A9A002900DA69420BA800F0C8FBF4
:100E80000BAB07CB03AB07C30899099800F024FC10
:100E90006B4607C30146D4480918002D00910ADDAE
:100EA000D14903980A9A4942401803A90390684619
:100EB00000F045FE07E003990A9A081803A9039079
:100EC000684600F004FE6B4607C30004000C03D024
:100ED0000020C043410800E01046189A002A03D0C1
:100EE0000022009215461EE0751E05D4FFF736FF5E
:100EF000303262556D1EF9D501220843079602D0A3
:100F000000227F1C04E02078302801D100227F1EBF
:100F1000002A069789D01EE0112D07DAFFF71EFF81
:100F2000303262556D1C02460A43F5D1084303D0A6
:100F30000098002819D00EE00021681E05E0235C0F
:100F4000625C63542254401E491C8142F7DBA81B9B
:100F5000401E07950690079A18990020A0540F98F4
:100F6000079B069A81600CC07EE71126002018902E
:100F70005BE7D21DF0B50D460446D10893B0C90019
:100F800003C90C900D9101F055FE02460D98C00F5B
:100F900001D02D2007E02068810701D52B2002E039
:100FA0004007C00F4001032A0F9001D0072A05DB3C
:100FB00003462946204600F0E7FA0EE12078800635
:100FC00001D5E76900E006272846652D04D066288C
:100FD00014D0672D69D12DE00020112F009001DB86
:100FE000112300E07B1C0CAA03A910A8FFF7F5FE53
:100FF0001199002610987D1C0E9142E001203B467D
:101000000CAAC0070B900120009003A910A8FFF7BD
:10101000E4FE119D12981099002600280E9501D12A
:10102000781C0D18781B02D446427D1C761EE81BE6
:1010300000903AE0012F00DA01270020112F0090E4
:1010400001DD112300E03B460CAA03A910A8FFF71D
:10105000C4FE11993D46109800260E91217809078B
:101060000BD40E99A94200DA0D4603A9012D04DD27
:101070004A19203AD27F302A06D0B84201DA011D3F
:1010800004DA012100910FE06D1EEFE7002802DC79
:1010900086192D1A03E0411CA94200DD0D46801B74
:1010A000401C00900120C0070B902078000705D459
:1010B0000098A84202DB0020C0430090694600204F
:1010C000C8720B98012102AF0337C907884225D0A7
:1010D000022010902B2011900B9800280BDA404230
:1010E0000B902D20119006E00B98FFF723FE303176
:1010F0007F1E0B9039701099481E00291090F3DC68
:101100000B980028F0D111987F1E387020880005B8
:1011100001D5452000E065207F1E387001A8C01B66
:10112000C01D0B900F98002800D001204119009895
:10113000C01709180B980818A169081A401EA06169
:101140002078C00602D42046FFF736F90F98002811
:1011500005D06268A1689047206A401C2062207810
:10116000C00625D52046FFF727F921E0002E07DB32
:101170000E98B04204DD03A86268805DA16802E0B9
:101180006268A16830209047206A761C401C20626B
:101190000098401E002800900AD100F0F1F9C068C4
:1011A00062680168405CA1689047206A401C206228
:1011B00028466D1E0028D9DC07E062683878A168EF
:1011C0007F1C9047206A401C20620B99481E002912
:1011D0000B90F2DC2046FFF705F9032044E60000FF
:1011E00001FCFFFF104D0000E1DFFFFFD21DF0B555
:1011F00004460D46D0088DB0C000466807683146E9
:10120000384601F017FD0246F00F01D02D2307E00C
:101210002068810701D52B2302E04007C00F43015E
:101220006846002B037001D0012000E00020032A53
:101230000A9001D0072A04DB2946204600F0A4F9D1
:101240002DE12078800601D40D2500E0E5697000CD
:10125000400D0D2D01904BDA300D00210B9008460A
:101260000020C046032189050840002E05DA8200CF
:101270008018C20F1018401008408015012801DDA9
:101280000020C043A9000023182906D39C460A4623
:101290000123183A1B07D34003E001221205CA407C
:1012A00094460C31202902D33A46203900E03246D8
:1012B0008A40002802DD002A06D119E0002817D153
:1012C0000121C9078A4213D3194663467F185E413C
:1012D000002806D10120C007824202D10846874378
:1012E0009E430B98310D814202D00198401C019021
:1012F0002088000502D57149794402E06F4979449C
:1013000019396B460A9830221A540A980A7C401CF4
:101310001A54401C0A900198002801DC302000E09B
:1013200031201872019A0120002A02D0644BD21891
:1013300004E072003A4302D0614A521C0192002D2F
:1013400002DC2278120703D56A462E205072022052
:101350000022864694460CE032033601120F6D1EC1
:101360008B5C02AA13546246521C401C9446052A08
:1013700001DA002DF0DC002202AE08E03B0F3F0155
:10138000CB5C521C6D1E3354401C082A01DA002D20
:10139000F4DC23689A0601D511E0401E704504DD97
:1013A0003218203AD27F302AF7D0002807DD3218D1
:1013B000203AD27F2E2A02D11A0700D4401E002DD7
:1013C00003DD3E223254401C6D1E497C315401998C
:1013D000401C002906DA2D21471C31540198404257
:1013E000019003E02B21471C315401987D21C90055
:1013F000884206DBFFF770FA3030F0557F1C019110
:1014000001E0642808DB01986421FFF765FA3030B9
:10141000F0557F1C019101E00A2806DB01980A21A2
:10142000FFF75AFA3030F0557F1C01980A21FFF778
:1014300053FA3031F1550A98A1697F1C7A191018B6
:10144000081AA0612078C00602D42046FEF7B4FF37
:10145000216A6E460A980818206204E062683078B3
:10146000A168761C90470A98401E0A90401CF5D14E
:101470002078C00602D52046FEF79EFF02AE09E0A6
:101480003078761C3E280DD06268A1689047206AAB
:10149000401C20627F1EF3D22046FEF7A3FF0DB052
:1014A0000320F0BD206A4019206203E06268A16851
:1014B000302090476D1EEDD3F8E700008344000014
:1014C00001FCFFFF10B54369002B02D0C046C046A7
:1014D00001E0FFF761FB012010BD128801462431B5
:1014E00082840022C2840122ECE711680022D243E8
:1014F000E8E770B516460C46054600F039F8036873
:10150000FF200230C05C012807D0FF2C0ED8185DE8
:1015100000280BD001202C7070BDFF3332462146CD
:1015200008331868C3182846984770BD0020C04388
:1015300070BD754600F03CFBAE460500694653465B
:10154000C008C000854618B020B5FEF7E9FE60BCB3
:1015500000274908B6460026C0C5C0C5C0C5C0C5DD
:10156000C0C5C0C5C0C5C0C5403D49008D46704717
:1015700010B500F005F8001D10BD00BFC93F000008
:1015800000487047F81E0020F8B51F4604460123A6
:101590000068DB02032601461840072A05DB002805
:1015A00001D017A506E017A504E0002801D016A574
:1015B00000E016A5102081432160A069C01E002F05
:1015C000A06101D0401EA0612046FEF7F5FE002F6D
:1015D00009D038466268A1689047206A401C2062A2
:1015E000C01C206206E0206AFAE762682878A168D9
:1015F0006D1C9047761EF8D22046FEF7F3FEF8BD2C
:101600004E414E006E616E00494E4600696E6600A6
:10161000F7B516468AB02F4878446C4603467C33AB
:10162000C06F5A689B680DC42A487844763003AC72
:101630000DC80DC43720C001081837211B30FFF733
:101640004BF905460C46803D1B3C02D56442012007
:1016500000E00020002709900FE0E0070BD00C20ED
:101660001C497843794432464C394118684600F0A9
:101670002EFA6B4607C364107F1C002CEDD1154F6A
:101680007F442C3F15E0E80711D02001C0190EC897
:101690000691089307920068F04201D198190890CA
:1016A000324606A903A800F012FA03AB07C36D1077
:1016B000641C002DE7D1324669460998002803A82A
:1016C00002D000F03CFA01E000F001FA0A9B07C3E7
:1016D0000DB0F0BD78410000034640000A4610B549
:1016E000400D0BD00121C9070F24A40200191C03CF
:1016F00064082143540D2143D20207E00021012058
:10170000F2E7D40F490021435200401E0029F8DAC5
:10171000DB0FDB07184310BDFFB50D46144685B03F
:101720004868516801F060FA00910190A868A168CA
:1017300001F05AFA02910390A868616801F054FA26
:10174000029A12188242029201D2012000E0002087
:10175000019A0B18D2180028019202D08A4202D9AD
:1017600003E08A4201D2012000E00020009908181D
:1017700000906868A16801F037FA029A1218824254
:10178000029201D2012000E00020019A0B18D21829
:101790000028019202D08A4202D903E08A4201D293
:1017A000012000E0002000990818009028682168B6
:1017B00040004900400849084018F549471814E01E
:1017C00001994000C90F0843009001980299400018
:1017D000C90F08430190029803994000C90F0843BC
:1017E0000290039840007F1E039000980028E7DADB
:1017F0000898002801D0E74E00E00026B74228DA1A
:10180000F71BF806C00E15D0029B2021091A039A77
:101810008B401A430392029A019BC2408B401A43A9
:101820000292019A009BC2408B4000991A43019298
:10183000C14000917A110BD06B460320811A01D56B
:10184000002101E0890059588700401ED951F5D583
:10185000374603980299002800D0012001430898D8
:101860000291002808460CD0002800D001200199E0
:10187000019A490508430121D20AC902D202019204
:1018800000E001210E9B0122D207012B02D0002B88
:1018900003D013E0002807D116E0904204D890420C
:1018A0000CD1019B0B4209D0019B5918019105D124
:1018B0000099491C009101D17F1C0092002803D09F
:1018C000102108460020C04628682168019B009A24
:1018D0004840C10F0598C90739430EC009B0F0BD93
:1018E000FFB587B0099A08980899536892684068CC
:1018F000896896460022039317469446089A126810
:101900005300099A5B081268520052089A1AA24BB7
:10191000D4180A9A002A01D0352200E0402206920B
:101920000022012315460492DB07059324E0002DD5
:1019300005D175460346039E4D1BB34109D3754639
:101940006646039B491B049D9841059B7519AC464F
:101950005F4163463B4308D0059B049EDD07760844
:101960002E435B080496059301E0521E641EC50FCA
:10197000ED0749184041521C069B9A42D7DB002DC7
:1019800004D17546039A6B1A824101D203200CE000
:10199000039A0B466B404240134303D0014303D0EC
:1019A000012002E0022000E00020614601910021B8
:1019B000009702910A99002905D06146400201432F
:1019C000744B019102E08007002302909C423ADAB6
:1019D0001A1BD006C00E15D0029D2021019C091AA9
:1019E000C5408C402543029C8C4000D001242543F7
:1019F000019C02953D46C4408D4039462C43C14070
:101A00000194009154111DD06D460221002202293B
:101A10000CD10320001B07E0002804DB8600AE5930
:101A2000002E00D00122401C0328F5DB081B02D544
:101A300088002A5004E08000285810438A00A850EB
:101A4000491EE3D51C460A98002802980CD00028AD
:101A500000D001200199019A490508430121D20AC9
:101A6000C902D202019200E00121109B0122D2079B
:101A7000012B02D0002B03D013E0002807D116E081
:101A8000904204D890420CD1019B0B4209D0019B9B
:101A90005918019105D10099491C009101D1641C8C
:101AA0000092002803D0102108460020C046089864
:101AB0000999019A0068096848400099C30F07987E
:101AC000DB0723430360826041600BB0F0BD1FB5AC
:101AD000002300920A46014601A8FFF71DFE01AB54
:101AE00007CB04B010BDF0B585B0012300920A46C3
:101AF000014601A8FFF710FE01990F2202989202F9
:101B0000CF0F4900039E49088C1AFF0700210028C7
:101B100000DB0C46450021486D08844206D30D4683
:101B20000E460446102108460020C0462005E90A5A
:101B3000084369053843F20A05B01143F0BD1FB5EB
:101B4000002300920A46014601A8FFF7C9FE01AB37
:101B500007CBC6E71FB5012300920A46014601A83C
:101B6000FFF7BEFE01AB0F2407CBA402C30F40005A
:101B7000DB074008001B002900DB002049000005AE
:101B80004908CC0A204349051843D20A1143A8E763
:101B900002C0FFFF013C0000FF3F0000FF07000004
:101BA00010B50446C046C0462046FEF751FB10BDA6
:101BB00000487047D81E0020024670B50A439207BD
:101BC0002AD11E4DEE0104C808C9541B9443344069
:101BD00017D0D0B2D9B2401A2106014310D190B229
:101BE00099B2401A210401430AD110021902000AD5
:101BF000090A401A2102014302D1100E190E401A9F
:101C000070BD9A42DFD010BA19BA884201D90120BA
:101C100070BD0020C04370BD02780B78401C491C89
:101C2000002A09D09A4207D102780B78401C491C3F
:101C3000002A01D09A42EFD0D01A70BD01010101F3
:101C400001491820ABBEFEE726000200704772B6BD
:101C500000BFFEE701480068704700000400002054
:101C60000348006803490978401801490860704733
:101C7000040000200C00002010B500240848006873
:101C8000FF210131084306490860032000F00AF8EB
:101C9000002801D0012401E000F04AF8204610BDE0
:101CA0000020024070B586B00446002500260022C0
:101CB0002146122000F07AF8122000F065F800BFEB
:101CC0001648C06B202108431449C8630846C06BFE
:101CD00020210840009000BF00BF01A902A800F029
:101CE00085F900F0A7F905460D492846FEF7EAFDFB
:101CF000461E0C480C4908600C490B48C160466000
:101D000000210161816000F008FD002804D106482F
:101D100000F03AFD06B070BD0120FBE70010024064
:101D200040420F0000140040C0000020E703000004
:101D300008B500BF13480068012108431149086035
:101D400008460068C007C00F009000BF00BF00BF7A
:101D50000C484038C06B890508430A494039C863BC
:101D60000846C06B09040840009000BF00BF002275
:101D70000321481F00F01AF80320400200F0BEFCC7
:101D800008BD0000401002400146002909DB00BFE9
:101D900000BFCB06DB0E01229A40034B1A6000BF46
:101DA00000BF00BF7047000000E100E070B50446CE
:101DB0000D4616462946204600F052FF70BD000031
:101DC00070B5044611480068032149028843204346
:101DD0000E4908604815844216D10D49096806224B
:101DE000514308460B49FEF76DFD451C05E0002DEB
:101DF00001D06D1E01E0032070BD0448406901213F
:101E0000890208408842F2D00020F5E700700040C7
:101E10001000002040420F0070B504460D46002C13
:101E200001D1012070BD6B4800684007400FA842F7
:101E300018D268480068C008C00028436549086097
:101E4000FFF708FF064607E0FFF704FF801B624923
:101E5000884201D90320E5E75E4800684007400F4B
:101E6000A842F1D1022120680840022815D104219E
:101E700020680840042807D15848806807210903D2
:101E80008843401855498860544880680F210902EA
:101E90008843A1680843514988602078C007C00F73
:101EA000002854D06068012808D14C4800680121FE
:101EB0004904084000282ED10120B3E760680228B9
:101EC00008D146480068012149060840002822D16F
:101ED0000120A7E76068002808D140480068012178
:101EE00089020840002816D101209BE7606803287A
:101EF00008D13A484030006A0221084000280AD13F
:101F000001208FE735484030C06902210840002891
:101F100001D1012086E731488068C008C0006168AF
:101F200008432E498860FFF795FE064607E0FFF755
:101F300091FE801B2849884201D9032072E7274877
:101F40008068382108406168C9008842EFD1214883
:101F500000684007400FA84218D91E480068C00812
:101F6000C00028431B490860FFF774FE064607E0DF
:101F7000FFF770FE801B1849884201D9032051E702
:101F8000144800684007400FA842F1D1042120689E
:101F90000840042808D111488068072109038843B4
:101FA000E16808430D49886000F058F80B498968DA
:101FB0000F2212021140090A8900094A515CC90620
:101FC000C90EC8400749086007480068FFF76AFE65
:101FD00028E70000002002408813000000100240A3
:101FE000C4550008100000200800002007220260ED
:101FF0000B4A92685207520F4260094A92680F23B7
:102000001B021A408260064A926807231B031A408B
:10201000C260044A12685207520F0A6070470000FB
:102020000010024000200240014800687047000094
:102030001000002000B5FFF7F7FF06498968072266
:1020400012031140090B8900034A515CC906C90EED
:10205000C84000BD0010024004560008FEB53548D7
:1020600080683821084000280DD1324800680902F4
:102070000840C10A0120884000902F480099FEF7CF
:1020800021FC044654E02B48806838210840082889
:1020900001D12A4C4CE0274880683821084010289C
:1020A00034D12448C0688607B60F2248C068702122
:1020B00008400009401C0190022E0FD0032E0CD1C5
:1020C0001E480199FEF7FEFB1A49C9687F221202D9
:1020D0001140090A484305460DE000BF1648019922
:1020E000FEF7F0FB1349C9687F2212021140090A6A
:1020F0004843054600BF00BF0E48C068400F471C5C
:1021000039462846FEF7DEFB044611E009488068A0
:1021100038210840202801D1840209E00548806860
:1021200038210840182802D17D24240200E0002430
:102130002046FEBD001002400024F40000127A0088
:10214000FEB50446002C01D10120FEBD2078C00759
:10215000C00F00286FD0F748876838210F40C0684B
:102160008607B60F102F01D1032E01D0082F0BD1F7
:10217000F048006801214904084000285BD06068ED
:10218000002858D10120E0E700BF01210904606860
:10219000884205D1E74800680843E649086021E025
:1021A00005210904606888420ED1E24800680121D7
:1021B00089040843DF4908600846006801210904D2
:1021C0000843DC4908600DE0DA4800680121090491
:1021D0008843D8490860084600680121890488437B
:1021E000D449086000BF6068002812D0FFF732FDB4
:1021F000054606E0FFF72EFD401B642801D90320A9
:10220000A3E7CC4800680121490408400028F1D028
:1022100011E0FFF71FFD054606E0FFF71BFD401B21
:10222000642801D9032090E7C248006801214904CD
:1022300008400028F1D1022120680840022873D10B
:10224000BC488068382108400746BA48C0688607FD
:10225000B60F102F01D1022E01D0002F36D1B54874
:102260000068012189020840002804D0E0680028A5
:1022700001D1012069E7AF4840687F210902884306
:10228000616909020843AB494860002F16D108462E
:1022900000680721C902884321690843A5490860ED
:1022A000084600680722D2021040C20A012090406E
:1022B0000146A148FEF706FBA0490860A048006857
:1022C000FFF7F0FC002849D001203EE7E068002835
:1022D0002BD0984800680721C90288432169084328
:1022E00094490860084600688915084391490860C8
:1022F000FFF7B0FC054606E0FFF7ACFC401B0228E8
:1023000001D9032021E78B48006801218902084098
:102310000028F1D0874840687F210902884361691D
:10232000090208438349486018E082480068FF2199
:10233000013188437F490860FFF78CFC054606E0C1
:10234000FFF788FC401B022801D90320FDE67948ED
:1023500000680121890208400028F1D10821206885
:102360000840082849D17348806838210840182857
:102370000BD170484030006A0221084000283CD050
:10238000A069002839D10120DFE6A06900281AD011
:1023900068484030006A01210843664940310862BC
:1023A000FFF758FC054606E0FFF754FC401B0228E7
:1023B00001D90320C9E65F484030006A0221084085
:1023C0000028F1D019E05B484030006A4008400026
:1023D000584940310862FFF73DFC054606E0FFF72B
:1023E00039FC401B022801D90320AEE65148403099
:1023F000006A022108400028F1D104212068084029
:1024000004287CD1002001904A4880683821084087
:1024100020280BD147484030C069022108400028DD
:102420006ED0A06800286BD101208EE64148C06BB9
:10243000010F01208843002810D000BF3D48C06B29
:102440000121090708433B49C8630846C06B0904DA
:102450000840009000BF00BF01200190394800688B
:10246000FF2101310840002816D136480068084392
:1024700034490860FFF7EEFB054606E0FFF7EAFB8C
:10248000401B022801D903205FE62E480068FF2187
:10249000013108400028F1D000BFA068012808D110
:1024A00024484030C0690121084322494031C861B5
:1024B00020E0A06805280FD11E484030C0690421E3
:1024C00008431C494031C8610846C06901210843DE
:1024D00018494031C8610DE016484030C0694108D4
:1024E000490014484030C161C06904218843114942
:1024F0004031C86100BFA068002816D001E040E06C
:102500003EE0FFF7A7FB054607E0FFF7A3FB401BF4
:102510000D49884201D9032017E606484030C069BA
:10252000022108400028F0D01EE0FFF793FB05468B
:1025300014E00000001002400024F400100000200D
:10254000080000200070004088130000FFF782FBA5
:10255000401B6649884201D90320F6E56448C069FA
:10256000022108400028F1D10198012808D16048D3
:102570004038C06B0121090788435D494039C86371
:1025800000BFE06900285CD0594840388068382195
:10259000084010287CD0E069022853D154484038C4
:1025A0000068012109068843514940390860FFF756
:1025B00051FB054606E0FFF74DFB401B022801D901
:1025C0000320C2E54A484038006801214906084016
:1025D0000028F0D1616A206A0843A16A0902084311
:1025E000E16A0843216B0843616B08434049403965
:1025F000C968404A114008433D494039C86008460F
:102600000068012109060843394940390860084635
:10261000C0680904084336494039C860FFF71AFB0F
:10262000054606E0FFF716FB401B022801D90320F0
:102630008BE52F48403800680121490608400028F2
:10264000F0D050E02A48403800680121090688434C
:10265000274940390860FFF7FDFA054606E0FFF715
:10266000F9FA401B022801D903206EE520484038C2
:1026700000680121490608400028F0D11C48403874
:10268000C0681D4908401A494039C8602BE0FFE77F
:10269000E069012800D158E515484038C668B107FF
:1026A000890F206A81421CD170203040616A8842C3
:1026B00017D17F2000023040A16A0902884210D160
:1026C0001F2040043040E16A88420AD107204006BA
:1026D0003040216B884204D1710F4907606B814201
:1026E00001D0012031E500202FE500008813000013
:1026F000401002408C80C111FCFFFEEE04490968C5
:102700000322520291430143014A116070470000C5
:102710000000014070477047704710B50446002C18
:1027200001D1012010BD3D20005D002805D1002110
:102730003C200155204600F026F802213D2001559D
:10274000211D206800F0F8F901214820015500BF43
:102750003E2001553F2001554020015541200155A3
:10276000422001554320015500BF00BF44200155C0
:1027700045200155462001554720015500BF3D2009
:1027800001550020CEE7704701463D20405C0128FE
:1027900001D00120704702233D2043540868C068DF
:1027A000012318430B68D860144B086898420CD07A
:1027B00001239B070868984207D0114B086898428C
:1027C00003D0104B086898420FD1086882680E4BFE
:1027D0001A40062A0FD0D81F82420CD00868006821
:1027E000012318430B68186005E00868006801239E
:1027F00018430B6818600020CCE70000002C014053
:102800000004004000400140070001007047000044
:1028100010B50446206800690221084040080028DD
:102820001CD02068C06808404008002816D0481F07
:102830002168086101202077206880698007800F67
:10284000002803D02046FFF7E1FF05E0204600F016
:10285000DBF8204600F0D9F80020207720680069D6
:1028600004210840800800281DD02068C068084066
:102870008008002817D0C84321680861022020770B
:1028800020688069032109020840002803D02046FF
:10289000FFF7BCFF05E0204600F0B6F8204600F048
:1028A000B4F8002020772068006908210840C0089B
:1028B00000281CD02068C0680840C008002816D036
:1028C000C84321680861042020772068C069800718
:1028D000800F002803D02046FFF798FF05E0204630
:1028E00000F092F8204600F090F800202077206851
:1028F000006910210840000900281DD02068C06828
:1029000008400009002817D0C84321680861082042
:1029100020772068C069032109020840002803D0FD
:102920002046FFF773FF05E0204600F06DF82046D3
:1029300000F06BF80020207720680069C007C00F06
:1029400001214840484000280CD02068C068084059
:1029500048404840002805D0C81E2168086120462C
:1029600000F054F82068006980210840C009002860
:102970000BD02068C0680840C009002805D0C843B3
:10298000216808612046FFF7C6FE20680069FF2124
:1029900001310840000A00280CD02068C06880215E
:1029A0000840C009002805D0164821680861204663
:1029B000FFF7B0FE20680069402108408009002828
:1029C0000BD02068C06808408009002805D0C843A3
:1029D00021680861204600F025F820680069202160
:1029E0000840400900280BD02068C0680840400912
:1029F000002805D0C843216808612046FFF78CFEF7
:102A000010BD0000FFFEFFFF7047704710B5044681
:102A100003492068884201D1FFF722F910BD000068
:102A200000140040704700BFFEE7000010B5044AE4
:102A30000021044801F01EF80349086010BD0000A1
:102A400098550008932A00080000002008B500BF30
:102A50000D48406B202108430B4948630846406BF2
:102A600020210840009000BF00BF00BF0648406B17
:102A700001210843044948630846406BC007C00F62
:102A8000009000BF00BF08BD0010024000BFFEE77D
:102A9000704700BF012000F0A3FFFBE710B504481A
:102AA000006902F011FB012801D002F011F810BDFD
:102AB00000E000E000B593B0382105A8FDF700FF65
:102AC0000020019002900390049001204002FFF743
:102AD00077F9012005900004069002200C90032154
:102AE0000D9100210E9110210F910104109101060A
:102AF00011910107129105A8FFF722FB002801D0D0
:102B0000FFF7A5F807200190022002900020039013
:102B10000490022101A8FFF77FF9002801D0FFF7F8
:102B200096F813B000BD704710B50248FFF770FE6D
:102B300010BD0000C000002010B50268244B984270
:102B400006D001239B07984202D0224B984205D120
:102B500070241346A3431A464B681A431C4B9842F1
:102B600012D001239B0798420ED01A4B98420BD0EB
:102B7000194B984208D0194B984205D0184B9842EF
:102B800002D0184B984206D1032424021346A343D3
:102B90001A46CB681A4380241346A3434C69234347
:102BA0001A4602608B68C3620B688362084B9842C6
:102BB00008D00A4B984205D0094B984202D0094BE5
:102BC000984201D10B6903630123436110BD0000EA
:102BD000002C014000040040002000400040014063
:102BE0000044014000480140F8B5040C8BB2264671
:102BF00082B25E43104658430D0C370C3604002158
:102C00008019164679416E43370C360480192646E2
:102C100079416E438919F8BD30B47446641E257835
:102C2000641CAB4204D3635D5B00E31830BC1847FF
:102C30001D46F8E74900CA020243100000D00420F4
:102C40004A0D01D001221043044A490D914201D19D
:102C500002210843012800D105207047FF0700002A
:102C600010B5002819DB1A4A03231B02D218830867
:102C70009B00D2588307DC0EFF23A3409A438B07A7
:102C80001B0E8407E40EA3401A43114B03242402B5
:102C90001B198408A4001A5118E00E4A03071B0FE1
:102CA000083B9B089B00D2588307DC0EFF23A34000
:102CB0009A438B071B0E8407E40EA3401A43054B6F
:102CC0000407240F083CA408A4001A5110BD0000FA
:102CD00000E100E01CED00E010B5002819DB1A4A05
:102CE00003231B02D21883089B00D2588307DC0EF3
:102CF000FF23A3409A438B071B0E8407E40EA340D7
:102D00001A43114B032424021B198408A4001A51EE
:102D100018E00E4A03071B0F083B9B089B00D25884
:102D20008307DC0EFF23A3409A438B071B0E840707
:102D3000E40EA3401A43054B0407240F083CA408E3
:102D4000A4001A5110BD000000E100E01CED00E0FD
:102D5000EFF30580704730380A2801D20120704710
:102D60000020704770B586B00646002E1CD127485B
:102D70000068002811D1FF20E130254925A22AA3AF
:102D8000049001930292039100900B462FA236A16A
:102D9000002000F095F800BFFEE7FF22E1321C4959
:102DA0001CA01A4B1B689847002405253048007C5E
:102DB000002802D1284606B070BD00F09BFA00241E
:102DC0001CE0600121182A48AF380818203000782C
:102DD000012811D1600122182548AF381018411C74
:102DE0001E223046FDF7B4FC002805D160012118F1
:102DF0001F48AF38455C03E0601CC4B2052CE0DB23
:102E000000BF00F0A9FA2846D5E70000BC0000206A
:102E1000B656000874616720213D202828766F6926
:102E200064202A293029000028257329206861732D
:102E300020617373657274206661696C65642061DA
:102E4000742025733A256C642E0000002E2E5C65DC
:102E50006173796C6F676765725C7372635C656CD4
:102E60006F672E6300000000656C6F670000000054
:102E7000C01A002010B500241048007C012801D1A0
:102E8000204610BD00F086FA0446002C01D02046F2
:102E9000F7E7012000F040FA00210848C1740175ED
:102EA000012000F0BFFB052000F07AFA00F0D6FA0E
:102EB0000121024801742046E3E70000C01A002007
:102EC0000FB4F0B58FB005460F463846FDF71EFC2F
:102ED0000E90002401200D9000200B900C90079084
:102EE000089009900A90052D1ADDD748006800283F
:102EF00010D1D648D649D7A2DDA3049001930292FF
:102F0000039100900B46E3A2E9A10020FFF7D8FF50
:102F100000BFFEE7CD4ACE49CEA0CB4B1B689847F9
:102F2000E548407C002804D10FB0F0BC08BC04B0D8
:102F30001847E148E0380078A84204DB3846FFF73C
:102F400011FFA84200DAEFE7DB49DF393846FDF729
:102F5000C9FB002800D1E7E71AA8069000F0CAF9DB
:102F6000D548407D00280FD0D4480119D4A220466E
:102F700000F004FC0419A800D24B1A58CF480119DC
:102F8000204600F0FBFB04190121284600F078FCE4
:102F9000002808D0A800CC4B1A58C8480119204670
:102FA00000F0ECFB04190221284600F069FC00281F
:102FB0001ED0C24801193A46204600F0DFFB041932
:102FC0000E980F280DD80F220E98111A202207A84C
:102FD000FDF74FFCB948011907AA204600F0CEFBC7
:102FE0000419B6480119B9A2204600F0C7FB04191C
:102FF0001C21284600F044FC002857D0AF48011996
:10300000B3A2204600F0BAFB04190421284600F0C0
:1030100037FC002816D000F0B9F90590A74801192F
:103020002046059A00F0AAFB04191821284600F052
:1030300027FC002806D0A1480119A4A2204600F0D0
:103040009DFB04190821284600F01AFC002816D020
:1030500000F094F90590994801192046059A00F06E
:103060008DFB04191021284600F00AFC002806D028
:103070009248011995A2204600F080FB0419102106
:10308000284600F0FDFB002809D000F07BF90590F0
:103090008A4801192046059A00F070FB04198748F8
:1030A00001198CA2204600F069FB04192021284652
:1030B000169A00F04BFC00280DD140212846179AA3
:1030C00000F044FC002806D180212846189A00F020
:1030D0004DFC002868D0794801197FA2204600F0F5
:1030E0004DFB041920212846169A00F02FFC0028D9
:1030F00023D0724801192046169A00F03FFB0419AC
:1031000040212846179A00F021FC002807D06B4880
:10311000011972A2204600F031FB04190DE0802154
:103120002846189A00F022FC002806D063480119AE
:1031300066A2204600F022FB041980212846189A36
:1031400000F014FC00281AD065A205210BA8189BDA
:10315000FDF714F9594801190BAA204600F00EFB9F
:10316000041940212846179A00F0F0FB002806D0E9
:103170005248011955A2204600F000FB04194021D5
:103180002846179A00F0E2FB002806D04B480119A8
:103190002046179A00F0F2FA04194848011951A282
:1031A000204600F0EBFA041901208002011B43487D
:1031B00000190590069B199AFDF7C4F806460020F1
:1031C0000690A01901218902884203D8002E01DB54
:1031D000A41901E00124A402201D0D994018012129
:1031E0008902884203D90C46241F0D98241A3248BC
:1031F000C038007800280CD00020304908552E49EE
:10320000C0392E48FDF76EFA002802D100F0A4F86C
:103210008AE62948407D002806D02848011932A2B4
:10322000204600F0ABFA04192448011930A22046C8
:1032300000F0A4FA04192146204800F0ADF800F08F
:103240008BF800BF70E60000BC0000203E020000CA
:10325000CE5600086C6576656C203C3D20454C4F91
:10326000475F4C564C5F564552424F534500000055
:103270002825732920686173206173736572742037
:103280006661696C65642061742025733A256C64FD
:103290002E0000002E2E5C656173796C6F67676588
:1032A000725C7372635C656C6F672E630000000074
:1032B000656C6F6700000000C01A0020D81A00205B
:1032C0001B5B0000A40000208C00002020000000F8
:1032D0005B0000005D200000280000003A000000B4
:1032E000256C6400290000001B5B306D00000000AD
:1032F0000A00000010B50748807C002805D000F0C7
:103300004CF801210348017502E001210148C17414
:1033100010BD0000C01A002010B504460D4884748A
:10332000807C002814D00B48007D002806D1094875
:10333000C07C002802D000F030F809E00548007D8C
:10334000002805D00348C07C002801D100F026F8F1
:1033500010BD0000C01A002010B50748807C00286E
:1033600005D000F01BF800210348017502E00021A0
:103370000148C17410BD0000C01A002000A07047B1
:103380000000000000A070470000000000A070478F
:103390000000000000207047704770477047000031
:1033A00010B586B00446052C1CDD104800680028C6
:1033B00011D1FF205B300E490EA215A3049001939A
:1033C0000292039100900B461AA221A10020FFF760
:1033D00077FD00BFFEE7FF225B32054905A0034BE6
:1033E0001B6898471C48047006B010BDBC00002044
:1033F0008A5600086C6576656C203C3D20454C4F34
:10340000475F4C564C5F564552424F5345000000B3
:103410002825732920686173206173736572742095
:103420006661696C65642061742025733A256C645B
:103430002E0000002E2E5C656173796C6F676765E6
:10344000725C7372635C656C6F672E6300000000D2
:10345000656C6F6700000000E019002010B50024C3
:1034600000BF14E0610162180A495118481C1F216D
:10347000FDF724FA002160012218064881546001FA
:1034800022180448101820300170601CC4B2052CAA
:10349000E8DB10BD111A002030B585B004460D469A
:1034A000052C1CDD10480068002811D1FF20413098
:1034B0000E490FA215A3049001930292039100906C
:1034C0000B461BA221A10020FFF7FAFC00BFFEE77C
:1034D000FF224132054906A0034B1B689847A10013
:1034E0001C48455005B030BDBC0000206D5600089A
:1034F0006C6576656C203C3D20454C4F475F4C56D3
:103500004C5F564552424F53450000002825732911
:103510002068617320617373657274206661696CE1
:1035200065642061742025733A256C642E000000C8
:103530002E2E5C656173796C6F676765725C737260
:10354000635C656C6F672E6300000000656C6F67DD
:1035500000000000B81A002010B586B00446002C08
:103560001ED0012C1CD010480068002811D1FF206B
:1035700016300E490EA218A30490019302920391F3
:1035800000900B461DA224A10020FFF799FC00BF6C
:10359000FEE7FF221632054905A0034B1B6898473A
:1035A0001F48447406B010BDBC0000203956000806
:1035B00028656E61626C6564203D3D2066616C73B8
:1035C0006529207C7C2028656E61626C6564203DE5
:1035D0003D20747275652900282573292068617360
:1035E00020617373657274206661696C6564206123
:1035F000742025733A256C642E0000002E2E5C6525
:103600006173796C6F676765725C7372635C656C1C
:103610006F672E6300000000656C6F67000000009C
:10362000C01A002010B586B00446002C1ED0012C14
:103630001CD010480068002811D1FF2022300E490C
:103640000EA218A3049001930292039100900B46DE
:103650001DA224A10020FFF733FC00BFFEE7FF22DC
:103660002232054905A0034B1B6898471F48447543
:1036700006B010BDBC0000205156000828656E61E0
:10368000626C6564203D3D2066616C736529207C19
:103690007C2028656E61626C6564203D3D207472FB
:1036A000756529002825732920686173206173736B
:1036B000657274206661696C65642061742025738D
:1036C0003A256C642E0000002E2E5C656173796CC7
:1036D0006F676765725C7372635C656C6F672E639E
:1036E00000000000656C6F6700000000C01A002039
:1036F0000EB50B48007C002800D10EBD0120FFF75D
:103700002BFF08A009A1F622124B00920191029012
:1037100011A218A10320FFF7D3FB00BFEDE70000C3
:10372000C01A0020322E322E3939000045617379DB
:103730004C6F676765722056257320697320696E28
:10374000697469616C697A65207375636365737305
:103750002E000000245600082E2E5C656173796CE3
:103760006F676765725C7372635C656C6F672E630D
:1037700000000000656C6F6700000000F0B585B0C8
:1037800006460D4614462746002D1AD125480068E6
:10379000002810D12C20244924A225A304900193B1
:1037A0000292039100900B462AA232A10020FFF75B
:1037B00087FB00BFFEE72C221B491CA0194B1B688E
:1037C0009847002C1AD117480068002810D12D20E6
:1037D00015492AA216A30490019302920391009026
:1037E0000B461CA223A10020FFF76AFB00BFFEE7E7
:1037F0002D220D4921A00B4B1B6898470BE030464A
:10380000761C01218902884204D220782870641C29
:103810006D1C00E002E020780028F0D100BFE01B22
:1038200005B0F0BDBC0000200657000864737400AA
:103830002825732920686173206173736572742071
:103840006661696C65642061742025733A256C6437
:103850002E0000002E2E5C656173796C6F676765C2
:10386000725C7372635C656C6F675F7574696C73AF
:103870002E630000656C6F670000000073726300C8
:1038800030B585B004460D46052C1ADD1248006897
:10389000002810D11148124912A219A304900193D3
:1038A0000292039100900B461EA225A10020FFF773
:1038B00007FB00BFFEE7094A09490AA0064B1B683F
:1038C0009847A100204840582840002802D00120F5
:1038D00005B030BD0020FBE7BC000020DF02000087
:1038E000DA5600086C6576656C203C3D20454C4FEF
:1038F000475F4C564C5F564552424F5345000000BF
:1039000028257329206861732061737365727420A0
:103910006661696C65642061742025733A256C6466
:103920002E0000002E2E5C656173796C6F676765F1
:10393000725C7372635C656C6F672E6300000000DD
:10394000656C6F6700000000B81A002070B505466E
:103950000E461446002C07D031462846FFF790FF4C
:10396000002801D0012070BD0020FCE770B505469D
:103970000E461446002C07D031462846FFF780FF3C
:10398000002801D0012070BD0020FCE7FEF774F98B
:10399000FFF790F8FFF75AF8FFF76CFAFF210020C5
:1039A000FFF77AFD07210120FFF776FD07210220AE
:1039B000FFF772FD07210320FFF76EFDBF210420F2
:1039C000FFF76AFDBF210520FFF766FDFFF790FEB8
:1039D00000F018F8FFF72AF800F02CF800BFFEE717
:1039E00070B50546FFF7B4F9002802D00524E4437A
:1039F00005E00024002D02D0284600F051FF2046AB
:103A000070BD000010B5FFF7A3F9002802D005240F
:103A1000E4430AE006480068002804D10120044974
:103A20000860002401E00024E443204610BD0000AB
:103A30006400002010B5FFF78BF9002802D00524A0
:103A4000E44312E00A48006801280CD100BF0021BD
:103A5000801FFFF741F900BF02200549086000F010
:103A600083FF002401E00024E443204610BD000051
:103A700064000020F7B586B0144600200490FFF7DC
:103A800067F900285BD10698002858D080261825B1
:103A900000200590471E002C32D02068002801D05D
:103AA00020680590A069002800D0A569002D06D0E7
:103AB000382D04D82079C007C00F002802D000207C
:103AC00009B0F0BD6069002801D060698608A0686F
:103AD00000280AD0E0685C2807D32069002804D0B9
:103AE0006069002801D001270BE0A068002808D1F8
:103AF000E068002805D12069002802D1002700E0F5
:103B00000027012F0CD12169A06800950191029036
:103B10003246079B0599069801F091FA04900EE051
:103B2000002F0CD104A8B2B200950190079B059913
:103B3000069801F053FA012801D00020049004985F
:103B4000BEE70000F8B505460E4617480768174857
:103B50000068001D00F078FD681C002808D1002EC8
:103B600006D012480168091D114800F0C4FD1AE092
:103B70007C190E4800684460BC4207D20B480168BB
:103B8000091D0C48006800F09BFD0CE00748016827
:103B9000091D0948006800F093FD08480068844248
:103BA00001D206480460F8BD28000020140000205F
:103BB000FC0500201C00002018000020440000200C
:103BC00010B5044600F0A4FD22480068401C2149BD
:103BD000086021480068002808D11F480460084692
:103BE000006801280ED100F0EDF90BE01B480068D9
:103BF000002807D118480068C06AE16A884201D8E5
:103C00001548046016480068401C154908600846BD
:103C1000006860641349E06A0968884202D9114962
:103C2000E06A08601422E16A51430F4A8818211D96
:103C300000F061FD00F07AFD08480068002807D018
:103C400005480068C06AE16A884201D200F0E0FDE0
:103C500010BD0000240000201400002030000020CF
:103C6000400000202C0000204C01002008B500F08E
:103C70004FFD1348006800281ED1124800F010FDC7
:103C8000114800F00DFD0F48104908600E4810491A
:103C9000086000200F4B104A102100900A2000F00D
:103CA00029FF0749086008460068002804D00BA1D6
:103CB0000348006800F0B8FD00F038FD08BD0000C2
:103CC000580000201006002024060020500000208C
:103CD000540000203806002088060020546D7251E0
:103CE0000000000010B516E000F012FD0C48C0689E
:103CF000C468201D00F0A8FC0A480068401E09495D
:103D0000086009480068401E0749086000F00EFD81
:103D1000204600F061F8044800680028E4D110BD96
:103D2000E8050020240000202000002070B5044693
:103D30000D46206C00280ED0216CE0684118E1602F
:103D4000A168E068884201D32168E1602846226CBE
:103D5000E168FCF74DFD70BDF8B504460F46154609
:103D600000200090A66B206C002809D12068002854
:103D70002ED1A06801F05EFA00900020A06027E03C
:103D8000002D0FD13946226C6068FCF731FD216CA3
:103D9000606840186060A1686068884218D3206835
:103DA000606015E03946226CE068FCF721FD216C6B
:103DB000E068411AE1602168E068884203D2216C22
:103DC000A068411AE160022D02D1002E00D0761EBB
:103DD000701CA0630098F8BD10B504465920005D22
:103DE000002806D1206B00F0B5FC204600F0B2FCA4
:103DF00013E05920005D012803D1204600F0AAFC01
:103E00000BE05920005D022801D1012000E00020D4
:103E1000002802D172B600BFFEE710BD0146094A74
:103E200012681268002A01D1012200E000220A6013
:103E30000A68002A04D1034A1268D268106800E0B8
:103E4000002070475000002030B503239B02174824
:103E50004407640F002C05D0C01DC008C000134CDF
:103E6000041B1B1B0246124C22600024104D6C6088
:103E7000D0180838C008C0000E4C206000240D4D3A
:103E80002D686C600B4D2D682C601146441A4C60F7
:103E9000084C24680C60084D4C682C60074D4C6839
:103EA0002C600124E407064D2C6030BDE00D00209D
:103EB00068000020700000207800002074000020BE
:103EC0008400002000BFFFF70DFF034800680128B1
:103ED000F9D900F09DFCF6E74C010020FFB581B058
:103EE00006460D4617460A9C002D01D1246000E0CD
:103EF0002760E66325640121204600F04BFE4C213B
:103F00000498085505B0F0BDFFB581B00E460A9F74
:103F10000C9C039A9100A522206BFCF7AAFC216B54
:103F20000398401E8000081800900098C008C00048
:103F3000009000984007400F002801D1012000E0C8
:103F40000020002802D172B600BFFEE7002E11D07B
:103F5000002508E0715D204634304155705D002831
:103F600000D102E06D1C102DF4D300BF00214320CE
:103F7000015502E0002134200155382F00D33727A6
:103F8000E762E76400202065201D00F096FB2046D4
:103F9000183000F092FB24613820C01BA0616462DD
:103FA00000206065002158200155049A019900986D
:103FB00000F03AFB20600B98002801D00B980460B9
:103FC00005B0F0BD10B5002406E0142161430E4A8F
:103FD000881800F065FB641C382CF6D30B4800F001
:103FE0005FFB0B4800F05CFB0A4800F059FB0A48F5
:103FF00000F056FB094800F053FB044808490860EC
:1040000003480849086010BD4C010020AC050020A1
:10401000C0050020D4050020E8050020FC05002094
:10402000180000201C00002010B50146164800E0D2
:10403000006803688B42FBD3024643689B188B429F
:1040400004D143684C681B19436001460A464B681B
:104050009B180468A34211D10C4C03682468A34246
:1040600008D04B68046864681B194B6003681B68C0
:104070000B6005E0054B1B680B6001E003680B60FB
:10408000884200D0016010BD680000207000002050
:10409000F8B504460D4616461F46002000906560A0
:1040A0002461B5420CD8F01BA169884202D30120DB
:1040B000009011E0211D0948006800F001FB0BE0B1
:1040C000BE4204D2BD4202D30120009004E0211D73
:1040D0000348006800F0F4FA0098F8BD540000208E
:1040E0005000002070B5054600F012FBA86B0028B8
:1040F00001D1012400E0002400F018FB204670BD2F
:1041000070B5054600F004FBA86BE96B884201D14D
:10411000012400E0002400F009FB204670BD0000EF
:10412000F8B505460F4617480068C068C468201DEA
:1041300000F08AFA2820005D04210840002817D0EA
:10414000A06941192B463A462046FFF7A1FF0028F7
:1041500014D0002003462A4601460090204601F074
:10416000A1F90646002E02D172B600BFFEE705E0B7
:104170002820005D41084900282001552046216A79
:104180008847F8BD50000020F0B587B090E0039854
:1041900000280ADA04AF002F02D172B600BFFEE792
:1041A0003A68B9687868904700BF039800287FDBB9
:1041B000059C6069002801D1012000E00020002852
:1041C00002D1201D00F040FA02A800F0D1F8054607
:1041D00003980300FEF720FD0A0A0608353D59073B
:1041E00009363E6A00BF00BF00BF00BF2820005D47
:1041F00001210843282108550498A2698118034623
:104200002A462046FFF744FF002819D02046216A9D
:1042100088472820005D04210840002810D0002095
:1042200000900498A169421800231946204601F025
:1042300039F90646002E02D172B600BFFEE700BF74
:1042400035E000BF2820005D4108490028200155C5
:104250002DE000BF2820005D0121084328210855DA
:104260000498A061A069002801D0012000E000208E
:10427000002802D172B600BFFEE7A06941192B46A3
:104280002A462046FFF704FF11E02820005D0221A6
:104290000840002803D1204600F05CFA05E0282001
:1042A000005D410849002820015500E000BF00BF23
:1042B000002203A90448006800F0BAFD002800D0DD
:1042C00065E707B0F0BD000058000020F8B50546CE
:1042D0000C4600F099FB684600F04AF80646009844
:1042E000002822D1002C08D1B54206D801F02AF8C6
:1042F00031462846FFF714FF19E0002C08D00C487F
:1043000000680068002801D1012000E00020044678
:10431000A91B22460748006800F09CFA01F012F839
:10432000002804D100F074FA01E001F00BF8F8BDA8
:1043300054000020580000200B4909680968002932
:1043400001D1012100E00021002904D00021C9434E
:10435000064A116006E004490968C968C868034A4A
:1043600041681160704700001800002044000020E0
:1043700070B5044600F0BAFE05460748006885425D
:1043800004D200F00BF80120206001E00020206042
:1043900001480560284670BD60000020FEB52EE093
:1043A00021480068C06805681F480068C068C46884
:1043B000201D00F049F92046216A88472820005D29
:1043C0000421084000281AD0A0694619AE4207D936
:1043D00066602461211D1448006800F071F90EE048
:1043E000002003462A4601460090204601F05AF874
:1043F0000746002F02D172B600BFFEE700BF0A4891
:1044000000680068002801D1012000E00020002899
:10441000C6D0054800680190044800680249086059
:10442000024901980860FEBD5000002054000020A1
:1044300007480068401C002801D1012000E000204E
:10444000002802D172B600BFFEE772B600BFFEE7D9
:104450008800002008B500BF6846FFF7DFFC04466F
:1044600020460099FFF732FFFFF78EFEF4E770B5A4
:10447000044600F04DF94520055713E0606A002816
:1044800001D1012000E00020002808D1204624307E
:1044900000F014FF002803D000F030FA00E003E041
:1044A000681E45B2002DE9DC00BF0021C94345204C
:1044B000015500F03BF900F02BF94420055713E0BB
:1044C0002069002801D1012000E0002000280AD145
:1044D0002046103000F0F2FE002801D000F00EFA65
:1044E000681E45B200E001E0002DE9DC00BF0021BC
:1044F000C9434420015500F019F970BDF8B50446D0
:104500000020009000F080FA41480068002801D1A6
:10451000FFF79AFC3F4800682040002866D1002C35
:1045200015D008346007400F002810D06007400FF6
:104530000821081A04196007400F002801D1012042
:1045400000E00020002802D172B600BFFEE7002C78
:104550004CD031480068844248D8304E3046056817
:1045600001E02E462D686868A04202D22868002823
:10457000F7D127480068854238D03068083000906D
:10458000286830606868001B102813D92F19780735
:10459000400F002801D1012000E00020002802D1B6
:1045A00072B600BFFEE76868001B78606C60384632
:1045B000FFF73AFD184968680968081A1649086043
:1045C0000846006816490968884203D21248006804
:1045D000134908600F49686809680843686000204B
:1045E000286010480068401C0E49086000F0AAFED0
:1045F00000984007400F002801D1012000E0002072
:10460000002802D172B600BFFEE70098F8BD000096
:10461000700000208400002074000020680000204A
:10462000780000207C000020001F01231B0603608F
:10463000001F0160001F034B036014380260203824
:10464000704700003144000801460A694B688868D9
:1046500098608B68486858605068884201D18868C3
:104660005060002008611068401E1060106870479C
:10467000034B0360034B0B60802313607047000003
:104680002807002084070020034B0360034B0B60C6
:10469000FF2301331360704784090020E0090020E4
:1046A0000146083141600021C9438160014608315B
:1046B000C160016100210160704700210161704704
:1046C00010B502460B685C1C002C01D1106907E094
:1046D0001046083000E04068446824689C42FAD9DB
:1046E00044684C604C68A160886041600A6114684D
:1046F000641C146010BD42684A6093688B609368C4
:1047000059609160086103685B1C0360704700009A
:1047100072B605480068401C03490860BFF34F8F1C
:10472000BFF36F8F704700008800002008480068C2
:10473000002802D172B600BFFEE705480068401E9F
:104740000349086008460068002800D162B6704737
:104750008800002070B506463546002E3AD0083D48
:104760002C461D49606809680840002801D00120D6
:1047700000E00020002802D172B600BFFEE72068EA
:10478000002801D1012000E00020002802D172B6EB
:1047900000BFFEE71049606809680840002819D08A
:1047A0002068002816D10C49606809688843606059
:1047B00000F02AF90949606809684018074908604B
:1047C0002046FFF731FC06480068401C0449086099
:1047D00000F0B8FD70BD00008400002074000020CF
:1047E0008000002010B500200749086188617D2104
:1047F000C90006480068FCF765F8401E0249486198
:104800000720086110BD000000E000E0100000205B
:104810000120000703494860BFF34F8FBFF36F8F3C
:104820007047000000ED00E010B5024600200BE0EC
:10483000C300074CE358002B05D1C300E150C3006F
:104840001B195A6002E0401C0828F1D300BF10BDBC
:104850000C010020F8B505460E4617462C46FFF71A
:1048600057FF44210857401C002802D10021442052
:10487000015545210857401C002802D10021452040
:104880000155FFF753FFA06B002805D13A4631468A
:104890002046243000F04EF82046FFF7E8FDF8BD32
:1048A00070B504460025002C14D00D48006800287F
:1048B00001D1012000E00020002802D172B600BF23
:1048C000FEE700F0A1F800212046FFF73BF900F0D9
:1048D00039FD0546002D01D1FFF79AFF70BD00009C
:1048E0004C000020034909680160034909684160E0
:1048F000704700003C0000202800002001200149F2
:10490000086070473800002070B504460D46002C42
:1049100002D172B600BFFEE7054801681831204693
:10492000FFF7CEFE01212846FFF70CF970BD00000D
:104930001400002070B505460E461446002D02D125
:1049400072B600BFFEE70748016818312846FFF736
:10495000D2FE002C01D00026F64321463046FFF758
:10496000F1F870BD1400002010B586B0002005904D
:10497000049003AA04A905A8FFF77AFE002204996F
:104980000598134600920191029018A11948039AC4
:1049900000F055FB1849086008460068002801D05F
:1049A000012400E00024012C02D100F043FD044664
:1049B000012C0DD172B60020C043104908600120BF
:1049C0000F49086000200F49086000F065F80AE010
:1049D000601C002801D0012000E00020002802D146
:1049E00072B600BFFEE706B010BD000049444C455A
:1049F00000000000C53E00084800002044000020E0
:104A0000300000202800002002480068401C0149B6
:104A1000086070474C0000201A480068002803D046
:104A20000120194908602CE0002017490860174848
:104A3000016805E0002902D172B600BFFEE7491EF9
:104A400014204843124A1058002801D1012000E0E8
:104A500000200028EED114224A430D4BD0184268A2
:104A600052684260024608324368934202D142686B
:104A7000526842604268D268064B1A60034801607F
:104A800000BF70474C000020380000202C000020A0
:104A90004C0100201400002010B50B48006AFF21D3
:104AA00009040843084908620846006AFF2109060C
:104AB000084305490862FFF795FE00200349086096
:104AC000FBF7CCFB002010BD00ED00E088000020CB
:104AD00010B5FBF7D7FB044600F00EFB002803D00F
:104AE00001200007024948602046FBF7CFFB10BDBC
:104AF00000ED00E0FFB581B00E4617461D46019857
:104B0000002801D0012000E00020002802D172B668
:104B100000BFFEE7002D01D0012000E000200028AA
:104B200002D172B600BFFEE7002F01D0002E01D0E7
:104B3000012000E00020002802D172B600BFFEE78D
:104B4000002F01D1002E01D1012000E0002000281B
:104B500002D172B600BFFEE75020009000985028A6
:104B600001D1012000E00020002802D172B600BF70
:104B7000FEE700BF2C46002C09D00121462001553C
:104B800000943A4631460A9B0198FFF7A7F9204660
:104B900005B0F0BD70B505460E462C46002C02D17E
:104BA00072B600BFFEE7FFF7B3FD216CE06B484330
:104BB00021684018A0600020A06320686060E06B5E
:104BC000401E216C484321684118E1600021C9431F
:104BD0004420015545200155002E10D120690028A0
:104BE00001D1012000E00020002810D12046103023
:104BF00000F064FB00280AD0FFF70AFE07E0204619
:104C00001030FFF74DFD20462430FFF749FDFFF738
:104C10008DFD012070BDFFB583B006461D46002006
:104C200002903446002C02D172B600BFFEE7049811
:104C3000002802D1206C002801D1012000E00020D2
:104C4000002802D172B600BFFEE7022D02D1E06B50
:104C5000012801D1012000E00020002802D172B615
:104C600000BFFEE700F030FA002802D105980028C6
:104C700001D1012000E00020002802D172B600BF5F
:104C8000FEE700BFFFF744FDA06BE16B884201D354
:104C9000022D1FD12A4620460499FFF75DF80746EA
:104CA000606A002801D1012000E00020002808D11E
:104CB0002046243000F002FB002806D0FFF7A8FDB4
:104CC00003E0002F01D0FFF7A3FDFFF72FFD012028
:104CD00007B0F0BD0598002803D1FFF727FD00209D
:104CE000F6E70298002804D16846FFF7FBFD012093
:104CF0000290FFF71BFDFFF787FEFFF709FD442138
:104D00000857401C002802D10021442001554521AC
:104D10000857401C002802D1002145200155FFF70B
:104D200005FD05A9684600F01FF9002819D12046A5
:104D3000FFF7E6F900280ED0204610300599FFF75E
:104D4000E3FD2046FFF793FB00F0FCFA002899D121
:104D5000FFF75EFD96E72046FFF789FB00F0F2FAC9
:104D600090E72046FFF783FB00F0ECFA0020AFE766
:104D7000FFB585B0064617461D463446002C02D1C5
:104D800072B600BFFEE70698002802D1206C00280A
:104D900001D1012000E00020002802D172B600BF3E
:104DA000FEE7022D02D1E06B012801D1012000E0D5
:104DB0000020002802D172B600BFFEE7FBF762FABE
:104DC0000390A06BE16B884201D3022D28D14520CE
:104DD00001570291A06B01902A4620460699FEF7E2
:104DE000BBFF0298401C002812D1606A002801D144
:104DF000012000E00020002809D12046243000F0E6
:104E00005DFA002803D0002F01D00120386004E0B3
:104E10000298401C41B2452001550120049001E058
:104E2000002004900398FBF731FA049809B0F0BD14
:104E3000F7B584B005460E46002003902C46002CA2
:104E400002D172B600BFFEE7002E02D1206C00280E
:104E500001D1012000E00020002802D172B600BF7D
:104E6000FEE700F031F9002802D10698002801D1B0
:104E7000012000E00020002802D172B600BFFEE74A
:104E800000BFFFF745FCA76B002F1AD03146204624
:104E9000FEF74CFF781EA0632069002801D1012095
:104EA00000E00020002807D12046103000F006FA6C
:104EB000002801D0FFF7ACFCFFF738FC012007B059
:104EC000F0BD0698002803D1FFF730FC0020F6E77C
:104ED0000398002804D101A8FFF704FD01200390E6
:104EE000FFF724FCFFF790FDFFF712FC4421085761
:104EF000401C002802D100214420015545210857BB
:104F0000401C002802D1002145200155FFF70EFC6E
:104F100006A901A800F028F8002819D12046FFF7BB
:104F2000E1F800280ED0204624300699FFF7ECFC6B
:104F30002046FFF79CFA00F005FA0028A1D1FFF700
:104F400067FC9EE72046FFF792FA00F0FBF998E72E
:104F50002046FFF78CFA00F0F5F92046FFF7C2F87B
:104F600000288ED00020AAE770B505460C46002D1B
:104F700002D172B600BFFEE7002C02D172B600BFAC
:104F8000FEE7FFF7C5FB134802686868131A20683C
:104F9000401C002801D1002617E00F492868096845
:104FA000884204D06868904201D801260DE020684C
:104FB000984207D92068C01A20602846FFF792FC63
:104FC000002602E0002020600126FFF7AFFB3046FC
:104FD00070BD0000280000203C000020FFB585B017
:104FE0001746B800FFF78AFA0646002E0BD05C2061
:104FF000FFF784FA0446002C01D0266304E0304613
:10500000FFF7A8FB00E00024002C13D0002159205A
:10501000015500220F990E986B4613C303923A462E
:10502000089B06990598FEF76FFF2046FEF7C8FD1E
:10503000012501E00025ED43284609B0F0BDFFB58C
:1050400085B00E9F0F9E109C002E01D0012000E025
:105050000020002802D172B600BFFEE7002C01D06C
:10506000012000E00020002802D172B600BFFEE758
:105070005C20039003985C2801D1012000E000200F
:10508000002802D172B600BFFEE700BF002C15D089
:10509000002E13D025462E6302212C46592041555F
:1050A000002004A9009702950191039005A80FC85C
:1050B000FEF72AFF2846FEF783FD01E0002004905A
:1050C000049809B0F0BD000006490968002901D123
:1050D000012006E004490968002901D1022000E00E
:1050E00000207047300000204C0000200149086873
:1050F0007047000028000020F8B5002000904248CA
:105100000068002878D141480068451C3F48056088
:10511000002D1CD13E4800680068002801D1012004
:1051200000E00020002802D172B600BFFEE7384838
:1051300007683848006836490860364807603648CE
:105140000068401C34490860FFF7F6F800BF334898
:10515000006885423DD300BF2D48006800680028E4
:1051600001D1012000E00020002804D00020C0432D
:105170002A4908602CE026480068C068C468666850
:10518000B54202D22548066022E0201DFFF75CFAF6
:10519000A06A002803D020461830FFF755FA2049AE
:1051A000E06A0968884202D91D49E06A0860142251
:1051B000E16A51431B4A8818211DFFF79CFA1A49DE
:1051C000E06A0968C96A8842C6D301200090C3E733
:1051D00000BF15480068C06A1421484311490858A7
:1051E000012801D90120009010480068002801D052
:1051F0000120009005E0FFE70D480068401C0C49C5
:1052000008600098F8BD00004C0000202800002035
:10521000180000201C0000203C000020440000205A
:105220002C0000204C010020140000203800002039
:105230003400002070B505462C460026002D35D0E0
:105240001B480068844201D1012000E000200028B2
:1052500002D172B600BFFEE7206D002802D172B6FF
:1052600000BFFEE7206D401E2065E16CE06A8842C9
:105270001CD0206D002819D1201DFFF7E5F9E06C46
:10528000E0623821E06A081AA0610A49E06A096808
:10529000884202D90749E06A08601422E16A514352
:1052A000054A8818211DFFF726FA0126304670BDF1
:1052B000140000202C0000204C01002070B5064690
:1052C000F068C468002C02D172B600BFFEE7204629
:1052D0001830FFF7B9F915480068002813D1201DD0
:1052E000FFF7B2F91249E06A0968884202D9104909
:1052F000E06A08601422E16A51430E4A8818211DB1
:10530000FFF7F9F904E0214618310B48FFF7F3F9EC
:105310000A49E06A0968C96A884204D9012501205E
:105320000749086000E00025284670BD4C000020B9
:105330002C0000204C010020D40500201400002087
:105340003800002070B5002400263248006800288C
:1053500002D172B600BFFEE7FFF7DAF92D48006808
:10536000401E2C4908600846006800284DD12A4894
:105370000068002849D022E02848C068C468204658
:105380001830FFF761F9201DFFF75EF92449E06A44
:105390000968884202D92249E06A08601422E16A59
:1053A0005143204A8818211DFFF7A5F91E49E06ADC
:1053B0000968C96A884202D301201C49086017485D
:1053C0000068002801D1012000E000200028D3D08F
:1053D000002C01D0FEF7B0FF15480568002D0DD058
:1053E00000BFFFF789FE002802D001200F490860A6
:1053F0006D1E002DF5D100200D4908600B48006896
:10540000002802D00126FFF703FAFFF78FF9304694
:1054100070BD00004C00002024000020D4050020B6
:105420002C0000204C010020140000203800002037
:105430003400002010B586B00024FEF717FC144895
:10544000006800281BD000200590049003AA04A93E
:1054500005A8FFF719F90222049905980023009284
:10546000019102900BA10D48039AFFF7E8FD0C494A
:10547000086008460068002800D0012400BF002C06
:1054800002D172B600BFFEE7204606B010BD000094
:1054900058000020546D7220537663005544000874
:1054A0005C000020F0B585B004460D4616461F4648
:1054B00000200490002C02D172B600BFFEE7154810
:1054C0000068002822D0009501960294062D15DA76
:1054D000FFF7FAFD022808D1002369460D480A9A11
:1054E0000068FFF798FB049010E000231A46694615
:1054F00008480068FFF78FFB049007E000233A4656
:10550000694604480068FFF733FC0490049805B02E
:10551000F0BD00005800002010B500290AD008781E
:10552000002807D005487844FCF746FB002801D046
:10553000002010BD0248784410BD00007603000032
:105540006E03000010B500290AD00878002807D0A3
:1055500005487844FCF730FB002801D0002010BD3E
:105560000248784410BD0000660300005E0300009E
:1055700003B402487844844603BC6047FBB9FFFF8C
:1055800003B402487844844603BC604765BCFFFF0F
:10559000081C3044586C80002858000800000000A7
:1055A00000000000000000000000000000020000F9
:1055B000180000000000000000000000081C30443B
:1055C000586C800000000000000000000000000097
:1055D00000000000000000000000000000000000CB
:1055E00000000000010000000200000003000000B5
:1055F0000400000006000000070000000800000092
:105600000900000000000000000000000000000091
:105610000000000001000000020000000300000084
:1056200004000000656C6F675F73746172740065DD
:105630006C6F675F73746F7000656C6F675F736525
:10564000745F6F75747075745F656E61626C6564AC
:1056500000656C6F675F7365745F746578745F6312
:105660006F6C6F725F656E61626C656400656C6F14
:10567000675F7365745F666D7400656C6F675F73F9
:1056800065745F66696C74657200656C6F675F73E3
:1056900065745F66696C7465725F6C766C00656CCE
:1056A0006F675F7365745F66696C7465725F746160
:1056B000675F6C766C00656C6F675F6765745F66CB
:1056C000696C7465725F7461675F6C766C00656CA1
:1056D0006F675F6F7574707574006765745F666D72
:1056E000745F656E61626C656400656C6F675F66B0
:1056F000696E645F6C766C00656C6F675F66696E7F
:10570000645F74616700656C6F675F737472637068
:105710007900656C6F675F6370796C6E00656C6FA4
:10572000675F6D656D6370790030313233343536C3
:1057300037383941424344454640305800303132D1
:1057400033343536373839616263646566403078A2
:10575000000400000800000000000000020001003A
:105760000010000000000000000000003031323363
:105770003435363738396162636465667870003075
:10578000313233343536373839414243444546584F
:105790005000000002400000000000A000000000D7
:1057A00005400000000000C8000000000C400000A0
:1057B0000000409C00000000194000000020BCBE1A
:1057C0000000000034400000BFC91B8E0000000430
:1057D000B5400000504BCFD06607E2CF010000007B
:1057E0006C4100003E8251AADFEEA73401000000A8
:1057F000D9420000DCB5A0E23A301F97FFFFFFFF5F
:10580000B4450000FD25A0C8E9A3C14FFFFFFFFF7D
:10581000FF3F00000000008000000000FF3F00008C
:10582000000000800000000064656661756C7454BF
:1058300061736B00412F0000442F0000452F0000D2
:10584000492F0000562F0000572F000033313B3204
:10585000326D000033323B32326D000033333B3265
:10586000326D000033343B32326D000033353B3251
:10587000326D000033363B32326D0000C8590008EB
:1058800000000020C000000000010008885A000845
:10589000C0000020782400001C0100081C0000004B
:1058A00043000000F8FFFFFF0C0000000E000000A6
:1058B0000F0000002E000000100100004300000057
:1058C000F8FFFFFF00404040404040404040414121
:1058D00041414140404040404040404040404040C5
:1058E000404040404005020202020202020202025F
:1058F000020202020220202020202020202020025C
:1059000002020202020290909090909010101010EB
:105910001010101010101010101010101010101087
:10592000020202020202888888888888080808081B
:1059300008080808080808080808080808080808E7
:10594000020202024000000000000000000000000F
:105950000000000000000000000000000000000047
:105960000000000000000000000000000000000037
:105970000000000000000000000000000000000027
:105980000000000000000000000000000000000017
:105990000000000000000000000000000000000007
:1059A00000000000000000000000000000000000F7
:1059B00000000000000000000000000000000000E7
:1059C00000000000000000000000000000000000D7
:1059D00004000000010000000024F40000000000AA
:1059E00000000000000000000000000000000000B7
:1059F00000000000000000000000000000000000A7
:105A00000000000000000000000000000000000096
:105A10000000000000000000000000000000000086
:105A20000000000000000000000000000000000076
:105A30000000000000000000000000000000000066
:105A40000000000000000000000000000000000056
:105A5000AAAAAAAA345800083C58000848580008C6
:105A60004058000838580008445800086C5800088E
:105A70004C5800085C580008745800085458000836
:085A800064580008000000005A
:04000005080000BD32
:00000001FF
