:020000040800F2
:10000000282800202D0300084D350008650300084E
:1000100000000000000000000000000000000000E0
:100020000000000000000000000000005135000842
:100030000000000000000000A30200085D35000879
:100040003F0300083F0300083F0300083F03000888
:100050003F0300083F0300083F0300083F03000878
:100060003F0300083F0300083F0300083F03000868
:100070003F0300083F0300083F0300083F03000858
:100080003F0300083F030008E93500083F0300086C
:100090003F0300083F0300083F0300083F03000838
:1000A0003F0300083F0300083F0300083F03000828
:1000B0003F0300083F0300083F03000800F002F878
:1000C00000F0C5F80CA030C8083824182D18A24636
:1000D000671EAB4654465D46AC4201D100F0B7F80E
:1000E0007E460F3E0FCCB6460126334200D0FB1AA7
:1000F000A246AB46334318475C7300007C73000094
:10010000103A02D378C878C1FAD8520701D330C860
:1001100030C101D504680C60704700000023002442
:1001200000250026103A01D378C1FBD8520700D32E
:1001300030C100D50B60704710B56E2902D100F0B8
:100140000DFA10BD702902D100F0F1FA10BD662938
:1001500002D106F013FB10BD652902D106F00EFB9B
:1001600010BD672902D106F009FB10BD612902D13B
:1001700006F00CFB10BD03681B0A01D38023194352
:10018000692902D100F0B4F910BD642902D100F050
:10019000AFF910BD752902D100F0AAF910BD6F2981
:1001A00002D100F06FFA10BD782902D100F0ACFA4C
:1001B00010BDE92902D100F021FE10BDE42902D1D1
:1001C00000F01CFE10BDF52902D100F017FE10BD95
:1001D000EF2902D100F062FA10BDF82902D100F037
:1001E000A1FA10BD0368DB0901D3802319436329F9
:1001F00002D100F0CBFD10BD732902D100F0CEFD7D
:1002000010BDE32902D100F0ECFD10BDF32902D1AD
:1002100000F0EFFD10BD002010BD1FB50098019942
:1002200002F027F801F006FB04000020002106F090
:1002300079FA401C60600020002106F089FAE06035
:1002400001F008FA1FBD10B501F070FA10BD01F001
:10025000D2FA1146FFF7E1FF04F01CFC01F0D8FFD1
:1002600003B4FFF7F0FF03BC02F0B8F9084B1968BC
:100270000868203080F30988022080F31488BFF3D7
:100280006F8F3FBCAE4608BC04BC62B61847000086
:1002900014000020EFF3108072B6704780F31088CE
:1002A0007047EFF309800E4B1A6820381060F0C0D9
:1002B00044464D4656465F46F0C008B572B605F056
:1002C000B1FC62B60CBC116808681030F0C8A046DA
:1002D000A946B246BB4680F309882038F0C81847C3
:1002E00014000020EFF308807047EFF30980704797
:1002F0006846704770B505460C46164602E00FCCBE
:100300000FC5103E102EFAD2082E02D303CC03C51F
:10031000083E042E07D301CC01C5361F03E0217827
:100320002970641C6D1C761EF9D270BD0748804789
:1003300007480047FEE7FEE7FEE7FEE7FEE7FEE7C9
:1003400004480549054A064B70470000E735000898
:10035000BD00000828220020282800202824002092
:10036000282400207046694603F0F8FAFFF7FEFFE4
:100370007CB51D4616460C00009001D00019401EA9
:10038000084B7B442A4669460190304600F0D3FC76
:10039000002C054603D06946002000F0DFFC28460B
:1003A0007CBD0000E10900000FB4054910B503AAA7
:1003B000029800F0F7FC10BC08BC04B0184700001D
:1003C0001C2100200FB41CB5084B06AA7B446946CB
:1003D0000090059800F0AFFC04460020694600F04C
:1003E000BDFC20461CBC08BC04B018478D090000A9
:1003F0000FB47CB50C0009AA009001D00019401E72
:10040000094B7B4469460190089800F094FC002C4D
:10041000054603D06946002000F0A0FC28467CBCBD
:1004200008BC04B0184700006109000070B504461C
:1004300085690068C10601D5302600E02026C00786
:1004400007D070BD62683046A1689047206A401CA2
:1004500020626D1EF6D570BD70B5044685690078C2
:10046000C00707D170BD6268A16820209047206A4C
:10047000401C20626D1EF6D570BD09684A0501D585
:1004800040B27047C905FCD500B2704709684A05FB
:1004900001D5C0B27047C905FCD580B2704770B5B0
:1004A0000C460546012A05D02878800600D5EA6961
:1004B000002302E0012305E05B1C934202D2E05CD2
:1004C0000028F9D1A869E618C01AA861286AC018DE
:1004D00028622846FFF7AAFF04E06A682078A96826
:1004E000641C9047B442F8D32846FFF7B5FF70BDAF
:1004F000F7B5002575291068009914A611D0FFF7EB
:10050000BCFF002802DA404211A608E00099096801
:100510008A0701D50FA602E0490704D50EA60125DA
:1005200001E0FFF7B3FF009F0024243704E000F050
:10053000BDFC30313955641C0028F8D12B463246B9
:100540002146009800F09AFBFEBD0000000000006C
:100550002D0000002B000000200000001168026840
:10056000006A530501D5087009E0D30501D508805C
:1005700005E0130602D5C21705C100E0086001209E
:1005800070470000F7B50446154686B02B487844FE
:10059000002703C83E460090019111E007986A4683
:1005A0007100415A02A800F061FC411C07D021787B
:1005B000890603D5E269391891420ED83F18761C96
:1005C0002078800602D5E069B84206DDAE42E5DB60
:1005D00007987100405A0028E0D1A069C01BA061B3
:1005E0002046FFF723FF154878445A3803C8009087
:1005F0000020019116E041006A460798415A02A87E
:1006000000F034FC0590401C0AD0002505E062682B
:1006100002A8A168405D90476D1C05988542F6D3FD
:100620000498401CB0420490E5DB206AC0192062A7
:100630002046FFF711FF09B0F0BD0000A2640000E2
:1006400070B504460021243408E05507D2086D0F28
:10065000303565545D072A43DB08491C15461D43A8
:10066000F3D10468002310A2250708D5A40601D4FD
:10067000002904D0C46901230CA2641EC46100F0E7
:10068000FDFA70BD10B5044621461068FFF7FEFE66
:10069000002302462046FFF7D3FF10BDD21DD1082C
:1006A000C9000CC9CCE700000000000030000000C9
:1006B000F8B50F460188090502D5224C7C4402E0BA
:1006C000204C7C440E3405460021243508E01607F2
:1006D0001209360FA65D6E541E0732431B09491CD2
:1006E00016461E43F3D1224604780023240705D57D
:1006F000702F06D0002901D00223113200F0BEFA7B
:10070000F8BD01231032F9E770B504460D462146C5
:100710001068FFF7BBFE0023024629462046FFF77C
:10072000C7FF70BDD21DD308DB000CCBC0E730B4CF
:10073000036820241268234303600823C36130BC8C
:100740000023B5E77C630000F3B50446002081B0C8
:1007500020622046E1688847002872D0252802D010
:100760006268A168ABE0594F00267F442046E168EB
:1007700088472028054608DB312D06D27819203815
:100780000078002801D00643F0E7B00701D5042027
:1007900086430020E0610746A0612A2D0AD0284642
:1007A00003F039F8002827D0B8000019303D009038
:1007B000856119E00298BA00121902C8916102908D
:1007C0002046E1688847012F054617D1E0690028D7
:1007D0001FDA202086431CE000980A2180694843E4
:1007E00000994019303888612046E16888470546FD
:1007F00003F011F80028EFD1012F0AD02E2D08D1D7
:100800002046E16888470546202006437F1C022FCA
:10081000C3DBA069002803DA4042A061012006433F
:10082000F00701D0102086436C2D0BD0682D09D025
:100830004C2D3CD06A2D38D0742D38D07A2D36D03E
:1008400016E040E0E1682F4620468847B84205465A
:1008500009D16C2F29D001208002E168064320468F
:100860008847054604E06C2F1DD0FF200130064369
:10087000002D28D028464138192803D80120C0026D
:1008800006432035204626602946029A1646FFF781
:1008900053FC002810D001280BD0F61DF008C00032
:1008A0000830029055E74020E1E78020D5E700209E
:1008B000D3E7361D02964CE762682846A168904748
:1008C000206A401C44E7206AFEBD0000F66200007A
:1008D00030B505460B462A461C781078521C5B1C26
:1008E000002801D0A042F7D0002C03D0002802D06D
:1008F0006D1CEFE7284630BD30B5441C03E001789D
:10090000401C00290DD08107F9D10B4BDD0104C833
:10091000D11A91432940FAD0001B0A0603D0C01E09
:1009200030BD001B30BD0A0401D0801E30BD09025D
:10093000FCD0401E30BD0000010101010346F0B5AE
:100940000B439B072DD1244DEF01042A29D308C85E
:1009500010C95E1B9E43121F3E4017D0D8B2E1B2B1
:10096000401A3106014310D198B2A1B2401A3104A5
:1009700001430AD118022102000A090A401A310271
:10098000014302D1180E210E401AF0BDA342DCD063
:1009900018BA21BA884201D90120F0BD0020C04315
:1009A000F0BD002A01D10020F0BD03780C78401C76
:1009B000491C002B0DD0A3420BD1521E09D0037845
:1009C0000C78401C491C002B03D0A34201D1521EBD
:1009D000EBD1181BF0BD000001010101F8B5042A9C
:1009E0002CD3830712D00B78491C0370401C521E75
:1009F00083070BD00B78491C0370401C521E8307E1
:100A000004D00B78491C0370401C521E8B079B0FAF
:100A100005D0C91ADF002023DE1B08C90AE0FFF752
:100A200069FCF8BD1D4608C9FD401C46B4402C4376
:100A300010C0121F042AF5D2F308C91A521EF0D4AE
:100A40000B78491C0370401C521EEAD40B78491CD9
:100A50000370401C012AE4D409780170F8BDD2B2B9
:100A600010B513029A1813049A1800F00EF810BD6E
:100A700001E004C0091F0429FBD28B0701D50280C5
:100A8000801CC90700D00270704700290BD0C30733
:100A900002D00270401C491E022904D3830702D5EC
:100AA0000280801C891EE3E70022EEE70022DFE7D8
:100AB000F8B507460B4639461943890713D1164C3A
:100AC000E601042A0FD302CB0D1B8D43354202D120
:100AD00002C0121FF5E7CBB20370401C521E002B60
:100AE00013D0090AF7E7002A14D01978521E5B1CAC
:100AF0000170401C002908D0002A0BD01978521E22
:100B00005B1C0170401C0029EDD1002A02D0114667
:100B1000FFF7CAFF3846F8BD0101010100220309B1
:100B20008B422CD3030A8B4211D300239C464EE008
:100B300003460B433CD4002243088B4231D30309C4
:100B40008B421CD3030A8B4201D394463FE0C30976
:100B50008B4201D3CB01C01A524183098B4201D38E
:100B60008B01C01A524143098B4201D34B01C01A79
:100B7000524103098B4201D30B01C01A5241C308F1
:100B80008B4201D3CB00C01A524183088B4201D360
:100B90008B00C01A524143088B4201D34B00C01A4C
:100BA0005241411A00D201465241104670475DE061
:100BB000CA0F00D04942031000D3404253400022E4
:100BC0009C4603098B422DD3030A8B4212D3FC228D
:100BD000890112BA030A8B420CD3890192118B420C
:100BE00008D3890192118B4204D389013AD0921122
:100BF00000E08909C3098B4201D3CB01C01A5241DD
:100C000083098B4201D38B01C01A524143098B42A5
:100C100001D34B01C01A524103098B4201D30B018E
:100C2000C01A5241C3088B4201D3CB00C01A5241B3
:100C300083088B4201D38B00C01A5241D9D243089A
:100C40008B4201D34B00C01A5241411A00D20146D7
:100C5000634652415B10104601D34042002B00D541
:100C60004942704763465B1000D3404201B5002003
:100C7000C046C04602BD704770477047FFB5044686
:100C80000D4681B0243000902168880604D51022DA
:100C9000E0699143216000E00120A84201DD471B8B
:100CA00000E000270498A1697A191018081AA061B9
:100CB0002078C00602D42046FFF7B8FB002608E0E3
:100CC00003986268A168805D9047206A401C761C8A
:100CD000206204988642F3DB2078C0060AD52046BD
:100CE000FFF7A4FB06E06268A16830209047206A05
:100CF000401C206238467F1E0028F4DC07E0009884
:100D00006268A168405D9047206A401C20622846C6
:100D10006D1E0028F3DC2046FFF79EFB20780006BE
:100D200002D5022005B0F0BD0120FBE701694A1C95
:100D300002610878704700B58FB0029100210591DB
:100D40000549019379440391114604906846FFF7E1
:100D5000FBFC0FB000BD0000E5FFFFFF0A6810704C
:100D6000521C0A6070470CC908399A4202D2531CBF
:100D70000B601070704710B54369002B02D0C0465D
:100D8000C04601E0FFF78BFB012010BD1278014641
:100D900024310A7000224A700122ECE71168002217
:100DA000D243E8E7084B70B50D467B44FFF7C3FF1D
:100DB0000446284600F04AFC002802D00020C04328
:100DC00070BD204670BD00002F3B000010B5436988
:100DD000002B02D0C046C04601E0FFF7D3FB012044
:100DE00010BD12880146243182840022C28401226F
:100DF000ECE711680022D243E8E70000F7B5D21D06
:100E00000025D20815A6D200F52905CA11D0002A5E
:100E100005DA00214042914111A60A4608E00099F6
:100E200009688B0701D50FA602E0490701D50EA678
:100E300001251146009F0024243704E000F052F8F9
:100E400030323A55641C02460A43F7D12B463246EB
:100E500021460098FFF712FFFEBD000000000000D1
:100E60002D0000002B0000002000000070B5164689
:100E70000C46054600F02EF80368FF200230C05CE7
:100E8000012807D0FF2C0ED8185D00280BD00120B8
:100E90002C7070BDFF333246214608331868C318E2
:100EA0002846984770BD0020C04370BD01468008A9
:100EB000081A02091018020A1018020C1018C008AB
:100EC000820012185200891A01E0401C0A390A29CE
:100ED000FBD2704710B500F0ADFC001D10BD00BF87
:100EE000455800000B4670B5024689078008084344
:100EF00019469D08141AA941250908070543080940
:100F00002C194841250A01060D43010A2C194141BB
:100F1000200C0D0428430D0C00194D4100214019EF
:100F20004D41C00869070843E908840F8D00254337
:100F3000840024184D4124196D41121BAB4107E078
:100F40000925ED432C11521963410024401C6141D5
:100F50001C460A250026551BB441F1D270BD000085
:100F60007047FFB50C461E468FB003CA0890099122
:100F70004F007D0D00D16D1E002108460020C046A7
:100F80000321099A89050840002A03DA82008018A3
:100F900040080840800D01280A9002DD0020C0436F
:100FA0000A90089807430DD0EF48F04928184843A5
:100FB0000714189800281DD07542291E1DDD0A98B7
:100FC00042421BE01898012802D00020302104E0A2
:100FD0000020F24305E02154401CB042FBDB3046C8
:100FE0000022189B002121540F998B600A604860F1
:100FF00013B0F0BDBD1B6D1CDFE70A9A002900DAB3
:1010000069420BA800F084FC0BAB07CB03AB07C312
:101010000899099800F0E0FC6B4607C30146D448E4
:101020000918002D00910ADDD14903980A9A494216
:10103000401803A90390684600F001FF07E00399F8
:101040000A9A081803A90390684600F0C0FE6B4690
:1010500007C30004000C03D00020C043410800E097
:101060001046189A002A03D00022009215461EE06E
:10107000751E05D4FFF736FF303262556D1EF9D567
:1010800001220843079602D000227F1C04E020784A
:10109000302801D100227F1E002A069789D01EE049
:1010A000112D07DAFFF71EFF303262556D1C024624
:1010B0000A43F5D1084303D00098002819D00EE068
:1010C0000021681E05E0235C625C63542254401ECC
:1010D000491C8142F7DBA81B401E07950690079A22
:1010E00018990020A0540F98079B069A81600CC0A5
:1010F0007EE71126002018905BE7D21DF0B50D4663
:101100000446D10893B0C90003C90C900D9102F0B8
:10111000F1FA02460D98C00F01D02D2007E020689B
:10112000810701D52B2002E04007C00F4001032AB0
:101130000F9001D0072A05DB03462946204600F020
:10114000A3FB0EE12078800601D5E76900E00627C1
:101150002846652D04D0662814D0672D69D12DE06E
:101160000020112F009001DB112300E07B1C0CAA52
:1011700003A910A8FFF7F5FE1199002610987D1C11
:101180000E9142E001203B460CAAC0070B900120C3
:10119000009003A910A8FFF7E4FE119D1298109982
:1011A000002600280E9501D1781C0D18781B02D45A
:1011B00046427D1C761EE81B00903AE0012F00DAC3
:1011C00001270020112F009001DD112300E03B4694
:1011D0000CAA03A910A8FFF7C4FE11993D46109868
:1011E00000260E91217809070BD40E99A94200DA46
:1011F0000D4603A9012D04DD4A19203AD27F302A79
:1012000006D0B84201DA011D04DA012100910FE095
:101210006D1EEFE7002802DC86192D1A03E0411C41
:10122000A94200DD0D46801B401C00900120C00734
:101230000B902078000705D40098A84202DB00201C
:10124000C043009069460020C8720B98012102AF8C
:101250000337C907884225D0022010902B20119017
:101260000B9800280BDA40420B902D20119006E0DD
:101270000B98FFF71BFE30317F1E0B9039701099D1
:10128000481E00291090F3DC0B980028F0D111982B
:101290007F1E38702088000501D5452000E06520BC
:1012A0007F1E387001A8C01BC01D0B900F9800282E
:1012B00000D0012041190098C01709180B98081890
:1012C000A169081A401EA0612078C00602D42046F9
:1012D000FFF7ACF80F98002805D06268A168904726
:1012E000206A401C20622078C00625D52046FFF7E2
:1012F0009DF821E0002E07DB0E98B04204DD03A824
:101300006268805DA16802E06268A1683020904751
:10131000206A761C401C20620098401E0028009025
:101320000AD100F087FAC06862680168405CA16871
:101330009047206A401C206228466D1E0028D9DC98
:1013400007E062683878A1687F1C9047206A401CDB
:1013500020620B99481E00290B90F2DC2046FFF713
:101360007BF8032044E6000001FCFFFF104D000065
:10137000E1DFFFFFD21DF0B504460D46D0088DB069
:10138000C000466807683146384602F0B3F90246A5
:10139000F00F01D02D2307E02068810701D52B2312
:1013A00002E04007C00F43016846002B037001D0E4
:1013B000012000E00020032A0A9001D0072A04DB64
:1013C0002946204600F060FA2DE12078800601D4FD
:1013D0000D2500E0E5697000400D0D2D01904BDA00
:1013E000300D00210B9008460020C04603218905DE
:1013F0000840002E05DA82008018C20F1018401035
:1014000008408015012801DD0020C043A900002309
:10141000182906D39C460A460123183A1B07D340D5
:1014200003E001221205CA4094460C31202902D360
:101430003A46203900E032468A40002802DD002A80
:1014400006D119E0002817D10121C9078A4213D318
:10145000194663467F185E41002806D10120C00767
:10146000824202D1084687439E430B98310D814248
:1014700002D00198401C01902088000502D57149D6
:10148000794402E06F49794419396B460A98302251
:101490001A540A980A7C401C1A54401C0A9001985D
:1014A000002801DC302000E031201872019A012070
:1014B000002A02D0644BD21804E072003A4302D0F2
:1014C000614A521C0192002D02DC2278120703D5DA
:1014D0006A462E20507202200022864694460CE076
:1014E00032033601120F6D1E8B5C02AA1354624642
:1014F000521C401C9446052A01DA002DF0DC002223
:1015000002AE08E03B0F3F01CB5C521C6D1E335412
:10151000401C082A01DA002DF4DC23689A0601D564
:1015200011E0401E704504DD3218203AD27F302A87
:10153000F7D0002807DD3218203AD27F2E2A02D1B8
:101540001A0700D4401E002D03DD3E223254401CF9
:101550006D1E497C31540199401C002906DA2D2169
:10156000471C315401984042019003E02B21471C55
:10157000315401987D21C900884206DBFFF7D8FA73
:101580003030F0557F1C019101E0642808DB0198A0
:101590006421FFF7CDFA3030F0557F1C019101E056
:1015A0000A2806DB01980A21FFF7C2FA3030F0550D
:1015B0007F1C01980A21FFF7BBFA3031F1550A98D8
:1015C000A1697F1C7A191018081AA0612078C0063A
:1015D00002D42046FEF72AFF216A6E460A980818B0
:1015E000206204E062683078A168761C90470A980F
:1015F000401E0A90401CF5D12078C00602D5204636
:10160000FEF714FF02AE09E03078761C3E280DD0BC
:101610006268A1689047206A401C20627F1EF3D256
:101620002046FEF719FF0DB00320F0BD206A4019D7
:10163000206203E06268A168302090476D1EEDD300
:10164000F8E700000456000001FCFFFFC06880219D
:101650000840704710B543485421FFF727FA424825
:101660005421FFF723FA41485421FFF71FFA40485D
:101670003C493D4B404A01603E4803603B48106096
:101680005A1C0A65411C1965012101653C48354A0F
:101690003AA1784400F022FD002804D1384878446B
:1016A0000C3800F0BDFD38482F4A36A1784400F0D0
:1016B00015FD002804D1344878440C3800F0B0FD02
:1016C00032482A4A2FA1784400F008FD002804D1AE
:1016D0002E4878440C3800F0A3FD40232148DC005C
:1016E0000021224600F0D4FC002804D0244878448D
:1016F0005C3800F095FD1C4822464023002100F094
:10170000C7FC002804D0204878445C3800F088FDED
:10171000164822461023002100F0BAFC002804D00D
:101720001A4878445C3800F07BFD10BD0F4870B556
:10173000006D44080B48640000F044FD0A4800F0C6
:1017400041FD0A4800F03EFD09E0206D45082046B5
:101750006D0000F037FD204600F070F82C46002C9C
:10176000F3D170BDC82000201C2100207021002072
:10177000D4000020D8000020DC000020720000000F
:101780000554000077000000EF530000D95300001B
:101790000EB501910090FFF7AFF802906946012065
:1017A000ABBE0EBD08B5694600900220ABBE08BDB9
:1017B0001FB56B4607C369460520ABBE04B010BD1C
:1017C0001FB56C460FC469460620ABBEF6E708B5E8
:1017D000694600900920ABBE08BD1CB500900A20E8
:1017E00001916946ABBE1CBD704708B569460090C3
:1017F0000C20ABBE08BD754600F018FDAE460500D6
:1018000069465346C008C000854618B020B5FEF7AB
:1018100097FD60BC00274908B6460026C0C5C0C574
:10182000C0C5C0C5C0C5C0C5C0C5C0C5403D4900D4
:101830008D46704700487047E421002070B504468B
:10184000051F00F0F9FC0068002C1AD0446801E084
:1018500020466468002C01D0AC42F9D301680A1814
:10186000AA4204D12A6805468918016000E0456053
:1018700028684119A14205D1616869602168401852
:10188000286070BD6C6070BDF8B51F46044601232A
:101890000068DB02032601461840072A05DB002802
:1018A00001D017A506E017A504E0002801D016A571
:1018B00000E016A5102081432160A069C01E002F02
:1018C000A06101D0401EA0612046FEF7AFFD002FB1
:1018D00009D038466268A1689047206A401C20629F
:1018E000C01C206206E0206AFAE762682878A168D6
:1018F0006D1C9047761EF8D22046FEF7ADFDF8BD70
:101900004E414E006E616E00494E4600696E6600A3
:10191000F7B516468AB02F4878446C4603467C33A8
:10192000C06F5A689B680DC42A487844763003AC6F
:101930000DC80DC43720C001081837211B30FFF730
:10194000F7F805460C46803D1B3C02D56442012059
:1019500000E00020002709900FE0E0070BD00C20EA
:101960001C497843794432464C394118684600F0A6
:101970002EFA6B4607C364107F1C002CEDD1154F67
:101980007F442C3F15E0E80711D02001C0190EC894
:101990000691089307920068F04201D198190890C7
:1019A000324606A903A800F012FA03AB07C36D1074
:1019B000641C002DE7D1324669460998002803A827
:1019C00002D000F03CFA01E000F001FA0A9B07C3E4
:1019D0000DB0F0BD8C510000034640000A4610B522
:1019E000400D0BD00121C9070F24A40200191C03CC
:1019F00064082143540D2143D20207E00021012055
:101A0000F2E7D40F490021435200401E0029F8DAC2
:101A1000DB0FDB07184310BDFFB50D46144685B03C
:101A20004868516801F040FE00910190A868A168E3
:101A300001F03AFE02910390A868616801F034FE5B
:101A4000029A12188242029201D2012000E0002084
:101A5000019A0B18D2180028019202D08A4202D9AA
:101A600003E08A4201D2012000E00020009908181A
:101A700000906868A16801F017FE029A121882426D
:101A8000029201D2012000E00020019A0B18D21826
:101A90000028019202D08A4202D903E08A4201D290
:101AA000012000E0002000990818009028682168B3
:101AB00040004900400849084018F549471814E01B
:101AC00001994000C90F0843009001980299400015
:101AD000C90F08430190029803994000C90F0843B9
:101AE0000290039840007F1E039000980028E7DAD8
:101AF0000898002801D0E74E00E00026B74228DA17
:101B0000F71BF806C00E15D0029B2021091A039A74
:101B10008B401A430392029A019BC2408B401A43A6
:101B20000292019A009BC2408B4000991A43019295
:101B3000C14000917A110BD06B460320811A01D568
:101B4000002101E0890059588700401ED951F5D580
:101B5000374603980299002800D0012001430898D5
:101B60000291002808460CD0002800D001200199DD
:101B7000019A490508430121D20AC902D202019201
:101B800000E001210E9B0122D207012B02D0002B85
:101B900003D013E0002807D116E0904204D8904209
:101BA0000CD1019B0B4209D0019B5918019105D121
:101BB0000099491C009101D17F1C0092002803D09C
:101BC000102108460020C04628682168019B009A21
:101BD0004840C10F0598C90739430EC009B0F0BD90
:101BE000FFB587B0099A08980899536892684068C9
:101BF000896896460022039317469446089A12680D
:101C00005300099A5B081268520052089A1AA24BB4
:101C1000D4180A9A002A01D0352200E04022069208
:101C20000022012315460492DB07059324E0002DD2
:101C300005D175460346039E4D1BB34109D3754636
:101C40006646039B491B049D9841059B7519AC464C
:101C50005F4163463B4308D0059B049EDD07760841
:101C60002E435B080496059301E0521E641EC50FC7
:101C7000ED0749184041521C069B9A42D7DB002DC4
:101C800004D17546039A6B1A824101D203200CE0FD
:101C9000039A0B466B404240134303D0014303D0E9
:101CA000012002E0022000E00020614601910021B5
:101CB000009702910A99002905D06146400201432C
:101CC000744B019102E08007002302909C423ADAB3
:101CD0001A1BD006C00E15D0029D2021019C091AA6
:101CE000C5408C402543029C8C4000D001242543F4
:101CF000019C02953D46C4408D4039462C43C1406D
:101D00000194009154111DD06D4602210022022938
:101D10000CD10320001B07E0002804DB8600AE592D
:101D2000002E00D00122401C0328F5DB081B02D541
:101D300088002A5004E08000285810438A00A850E8
:101D4000491EE3D51C460A98002802980CD00028AA
:101D500000D001200199019A490508430121D20AC6
:101D6000C902D202019200E00121109B0122D20798
:101D7000012B02D0002B03D013E0002807D116E07E
:101D8000904204D890420CD1019B0B4209D0019B98
:101D90005918019105D10099491C009101D1641C89
:101DA0000092002803D0102108460020C046089861
:101DB0000999019A0068096848400099C30F07987B
:101DC000DB0723430360826041600BB0F0BD1FB5A9
:101DD000002300920A46014601A8FFF71DFE01AB51
:101DE00007CB04B010BDF0B585B0012300920A46C0
:101DF000014601A8FFF710FE01990F2202989202F6
:101E0000CF0F4900039E49088C1AFF0700210028C4
:101E100000DB0C46450021486D08844206D30D4680
:101E20000E460446102108460020C0462005E90A57
:101E3000084369053843F20A05B01143F0BD1FB5E8
:101E4000002300920A46014601A8FFF7C9FE01AB34
:101E500007CBC6E71FB5012300920A46014601A839
:101E6000FFF7BEFE01AB0F2407CBA402C30F400057
:101E7000DB074008001B002900DB002049000005AB
:101E80004908CC0A204349051843D20A1143A8E760
:101E900002C0FFFF013C0000FF3F0000FF07000001
:101EA000F8B505460C46C8680521C90488430121D8
:101EB00089050843E060800602D5204600F008FB53
:101EC0007149E0680140022903D0204600F0AAFAD7
:101ED000BCE00521012249030140D20391420FD108
:101EE000C00306D56168E06A884200D80846606091
:101EF00006E02069E06260606069FFF776FCA0613F
:101F0000A1680022EEB200290EDAE06883050BD446
:101F1000C943A1600921226049030843E060606869
:101F2000411C61600670ACE0E06801214903084390
:101F3000E060002020602069002831D16069FFF74F
:101F400046FC012527462437ED02002816D0A0893B
:101F50008005800F08D0E06900F0B8F90028206102
:101F600002D0E068284318E001202761E061E068C2
:101F7000032109028843012189020DE0E06900F094
:101F8000A5F900282061EFD0E0682843E0608105D2
:101F9000890F03D1FF2101310843E06020696060AF
:101FA000E2683A4F2569D0051FD56168E06A88422A
:101FB00000D80846411B05D02246284600F03CFACE
:101FC000002843D1E068010204D5E5620020656085
:101FD000A06053E0691CE1626160E169491E384319
:101FE000A160E06030462E70F8BD100201D53A4085
:101FF00009E06068411C61600670E06838430A2EA1
:10200000E06006D00022E16A6068814203D90B4695
:1020100002E00122F7E70346A7895B1B7F0504D492
:10202000E7699F4201DD002A1ED0814200D80146A7
:102030000F1A0020E5626560002BA06009DD2246D2
:102040001946284600F0F8F9002802D00020C043C5
:10205000F8BD002F08D0A069E5626560C01BA061D3
:10206000E06810210843E060E068000209D561687B
:10207000A069E562491B40186560A0610120C0436A
:10208000F8BD3046F8BD00008210000000000100DD
:1020900070B5C468A50713D0650211D4D51FF93DEA
:1020A0000AD0FF3D6D1E07D0FF3DFF3D022D07D139
:1020B00001462431012305E0074E5D1EB54201D3E0
:1020C000012070BD0161C36141600F2109028C4391
:1020D0001443C460002070BDFFFFFF00F7B5164633
:1020E0000C46104600F06EF82078611C61280AD07A
:1020F000722802D0772839D102E00125002404E0BB
:102100000225042401E02D4D082402220323012787
:102110000878491C2B2806D0622807D02039C87FB0
:10212000742807D008E01D431443F1E70420054359
:102130003C43EDE71020044300982146FFF728FBBD
:10214000411C13D00021316171600121F560490209
:10215000F1617061200704D530460222002100F0B1
:10216000E7F8306D384330653046FEBD0020FEBDD7
:10217000F8B50D460646124C206DC10704D0410843
:1021800004D044086400F7E7224610E0542000F031
:102190009DF8070010D07908206D490001221143F5
:1021A0000843542120653846FEF780FC3A4629460C
:1021B0003046FFF793FFF8BD0020F8BD0280000015
:1021C000C8200020FEB50446466900690F4F019003
:1021D000E56800200090A80707D0204600F052F9DB
:1021E0003046FFF7DFFA002801DA3846FEBD280541
:1021F00002D50198FFF722FB4C212046FEF756FC42
:10220000206D4008400020650098FEBDFFFFFFFFE5
:1022100010B50446C046C0462046FEF721F810BD62
:1022200010B500F07DF900F075F910BD0048704759
:10223000C42100207047000000487047CC210020D6
:10224000704770477047704738B504460A4600200B
:102250006946C046C046002805D00246204600997F
:1022600000F0C9F9012038BD10B5012000F018FABE
:1022700010BDF8B5C046C046054600200C461020EB
:10228000C0460646A819A0420DD93246694600202C
:10229000C046C046070001D100F002FA0098A042F3
:1022A00000D00546C419FFF7C7FFF61D07460560B5
:1022B000F008C0004619284600F096F9B44204D050
:1022C00031463868A21B00F096F9F8BD70B5064695
:1022D000FFF7B2FF056830460B30C408E400B44293
:1022E00001D8002070BD68682A46002818D001680F
:1022F000A14211D30B46214608318B4208D34368D3
:1023000001194B6003681B1B0B605160046001E006
:1023100041685160001D70BD024640680028E6D14A
:1023200021462846FFF790FF0028DCD170BD000051
:10233000F8B5044616460D464769007B800730D045
:102340003846FFF744FA00282BD132461026002ADF
:1023500025D0012A02D0022A23D104E0204600F031
:1023600064F945191BE03846FFF73FFAE16831434D
:102370000028E16004DA204600F054F80120F8BD9E
:10238000C9030BD56268E16A914200D81146A2697F
:1023900089182269891A814200DD08462D18002D0E
:1023A00001DA0220F8BDE16A6068E268814206D283
:1023B0009103E06203D5012149048A433243A669AF
:1023C000AE4211DCE16A814201D90B4600E00346CE
:1023D0009F192369FF1AAF4206DD814201D90F46DA
:1023E00000E007469F4206D1202002430020A06063
:1023F000A56220600DE0AD1BE669AE1B8142A660C0
:1024000000D90846C01A281A206058196060202098
:102410008243034802400020E26040342072F8BD4D
:10242000BFCFD7FFC1688022114392039143C1609F
:102430000021816001607047F7B514460E463348AD
:10244000D5685769054209D03846A169FFF7C5F933
:10245000002811DB2D48C0430540E5602B4632467D
:1024600038460099FFF7A4F94200A1695208B21A50
:1024700089180028A16104D02046FFF7D3FF00206F
:10248000C043FEBD70B504460569C06A61688842F4
:1024900000D80846E1680522D2049143E160C903EF
:1024A00014D5A84209D02246411B2846FFF7C4FF95
:1024B000002802D00020C04370BDE56200206560A6
:1024C000A060E068012109048843E060002070BD3D
:1024D00010B50446C06820218843E060A16AA06965
:1024E00088420ED02046FFF7CDFFE06803210903A4
:1024F000884310210843E060A06AA0612069E0627F
:1025000060600349E0680840E06010BD1000020010
:10251000BFBFFFFF10B5002801D000F05FF810BD6D
:1025200010B5014602A000F0A1F8012010BD000086
:1025300053494752545245443A2052656469726582
:1025400063743A2063616E2774206F70656E3A2061
:1025500000000000024670B50A4392072AD11E4DC2
:10256000EE0104C808C9541B9443344017D0D0B2BC
:10257000D9B2401A2106014310D190B299B2401A43
:10258000210401430AD110021902000A090A401A63
:102590002102014302D1100E190E401A70BD9A4259
:1025A000DFD010BA19BA884201D9012070BD0020CD
:1025B000C04370BD02780B78401C491C002A09D02A
:1025C0009A4207D102780B78401C491C002A01D09E
:1025D0009A42EFD0D01A70BD0101010101491820C3
:1025E000ABBEFEE726000200002101604160806072
:1025F00070471020704710B50346406801E003465D
:102600004068002801D08842F9D31868C3188B426B
:1026100006D0CB1CD808C000001D411A521A014632
:10262000081D0A60FFF70AF910BD10B50146C2681F
:10263000900703D0900607D5886A0AE000F03CF8BE
:1026400001210160881E10BD8B694868C0180B69A4
:10265000C01A40310B7A002B02D0497A401A10BDC3
:102660001103FCD50028FADD401E10BD70B50546EB
:102670000C460A2000E06D1C00F018F8002D06D072
:1026800028780028F7D102E0641C00F00FF8002C35
:1026900002D020780028F7D10A2000F007F870BD9A
:1026A00010B500F00DF8FFF735FF10BD08B569460D
:1026B00008700320ABBE08BD00487047C42100204D
:1026C00010B5012805D0002103A0FFF7CFFF01209E
:1026D00010BD09A1F8E7000053494752544D454D3C
:1026E0003A204F7574206F662068656170206D65B3
:1026F0006D6F7279000000003A2048656170206DAE
:10270000656D6F727920636F7272757074656400A5
:1027100072B600BFFEE70000014800687047000085
:102720000400002003480068034909784018014963
:1027300008607047040000200C00002010B5002441
:1027400008480068FF21013108430649086003205A
:1027500000F00AF8002801D0012401E000F04AF856
:10276000204610BD0020024070B586B0044600250A
:10277000002600222146122000F07AF8122000F0F4
:1027800065F800BF1648C06B202108431449C86390
:102790000846C06B20210840009000BF00BF01A97F
:1027A00002A800F085F900F0A7F905460D49284672
:1027B000FEF7B4F9461E0C480C4908600C490B485A
:1027C000C160466000210161816000F008FD0028C1
:1027D00004D1064800F03AFD06B070BD0120FBE7C9
:1027E0000010024040420F0000140040E0000020B2
:1027F000E703000008B500BF134800680121084343
:102800001149086008460068C007C00F009000BF6B
:1028100000BF00BF0C484038C06B890508430A4917
:102820004039C8630846C06B09040840009000BFE7
:1028300000BF00220321481F00F01AF803204002C5
:1028400000F0BEFC08BD0000401002400146002917
:1028500009DB00BF00BFCB06DB0E01229A40034B11
:102860001A6000BF00BF00BF7047000000E100E039
:1028700070B504460D4616462946204600F050FF26
:1028800070BD000070B5044611480068032149027C
:10289000884320430E4908604815844216D10D49EB
:1028A00009680622514308460B49FEF737F9451CD3
:1028B00005E0002D01D06D1E01E0032070BD04482D
:1028C00040690121890208408842F2D00020F5E7E2
:1028D000007000401000002040420F0070B5044618
:1028E0000D46002C01D1012070BD6B4800684007E7
:1028F000400FA84218D268480068C008C0002843AA
:1029000065490860FFF708FF064607E0FFF704FF88
:10291000801B6249884201D90320E5E75E480068D0
:102920004007400FA842F1D1022120680840022848
:1029300015D1042120680840042807D15848806830
:102940000721090388434018554988605448806826
:102950000F2109028843A168084351498860207803
:10296000C007C00F002854D06068012808D14C4827
:10297000006801214904084000282ED10120B3E756
:102980006068022808D146480068012149060840CD
:10299000002822D10120A7E76068002808D140481C
:1029A0000068012189020840002816D101209BE718
:1029B0006068032808D13A484030006A0221084084
:1029C00000280AD101208FE735484030C069022134
:1029D0000840002801D1012086E731488068C008FE
:1029E000C000616808432E498860FFF795FE0646DF
:1029F00007E0FFF791FE801B2849884201D9032098
:102A000072E727488068382108406168C900884219
:102A1000EFD1214800684007400FA84218D91E484E
:102A20000068C008C00028431B490860FFF774FE17
:102A3000064607E0FFF770FE801B1849884201D95F
:102A4000032051E7144800684007400FA842F1D125
:102A5000042120680840042808D111488068072113
:102A600009038843E16808430D49886000F058F87D
:102A70000B4989680F2212021140090A8900094A8C
:102A8000515CC906C90EC84007490860074800687C
:102A9000FFF76AFE28E700000020024088130000CC
:102AA00000100240D067000810000020080000203D
:102AB000072202600B4A92685207520F4260094A8D
:102AC00092680F231B021A408260064A926807230D
:102AD0001B031A40C260044A12685207520F0A6070
:102AE00070470000001002400020024001480068CA
:102AF000704700001000002000B5FFF7F7FF0649FF
:102B00008968072212031140090B8900034A515CAE
:102B1000C906C90EC84000BD001002401068000878
:102B2000FEB5354880683821084000280DD132486C
:102B3000006809020840C10A0120884000902F481F
:102B40000099FDF7EBFF044654E02B4880683821DC
:102B50000840082801D12A4C4CE0274880683821D9
:102B60000840102834D12448C0688607B60F224890
:102B7000C068702108400009401C0190022E0FD04F
:102B8000032E0CD11E480199FDF7C8FF1A49C968E8
:102B90007F2212021140090A484305460DE000BF9A
:102BA00016480199FDF7BAFF1349C9687F2212023E
:102BB0001140090A4843054600BF00BF0E48C068DF
:102BC000400F471C39462846FDF7A8FF044611E090
:102BD0000948806838210840202801D1840209E092
:102BE0000548806838210840182802D17D24240235
:102BF00000E000242046FEBD001002400024F40046
:102C000000127A00FEB50446002C01D10120FEBD61
:102C10002078C007C00F00286FD0F7488768382198
:102C20000F40C0688607B60F102F01D1032E01D0C8
:102C3000082F0BD1F0480068012149040840002802
:102C40005BD06068002858D10120E0E700BF012177
:102C500009046068884205D1E74800680843E649EE
:102C6000086021E005210904606888420ED1E2482D
:102C70000068012189040843DF49086008460068AC
:102C8000012109040843DC4908600DE0DA480068C6
:102C9000012109048843D8490860084600680121D9
:102CA00089048843D449086000BF6068002812D0B6
:102CB000FFF732FD054606E0FFF72EFD401B6428B6
:102CC00001D90320A3E7CC4800680121490408404A
:102CD0000028F1D011E0FFF71FFD054606E0FFF7E1
:102CE0001BFD401B642801D9032090E7C2480068FF
:102CF0000121490408400028F1D102212068084040
:102D0000022873D1BC488068382108400746BA4879
:102D1000C0688607B60F102F01D1022E01D0002FF8
:102D200036D1B5480068012189020840002804D046
:102D3000E068002801D1012069E7AF4840687F21A1
:102D400009028843616909020843AB494860002FC2
:102D500016D1084600680721C90288432169084343
:102D6000A5490860084600680722D2021040C20A3E
:102D7000012090400146A148FDF7D0FEA04908601F
:102D8000A0480068FFF7F0FC002849D001203EE78A
:102D9000E06800282BD0984800680721C9028843C2
:102DA000216908439449086008460068891508436A
:102DB00091490860FFF7B0FC054606E0FFF7ACFC60
:102DC000401B022801D9032021E78B48006801211C
:102DD000890208400028F1D0874840687F21090215
:102DE00088436169090208438349486018E08248C2
:102DF0000068FF21013188437F490860FFF78CFCA0
:102E0000054606E0FFF788FC401B022801D9032095
:102E1000FDE6794800680121890208400028F1D1C7
:102E2000082120680840082849D173488068382163
:102E3000084018280BD170484030006A0221084031
:102E400000283CD0A069002839D10120DFE6A06924
:102E500000281AD068484030006A012108436649BA
:102E600040310862FFF758FC054606E0FFF754FCC6
:102E7000401B022801D90320C9E65F484030006AA0
:102E8000022108400028F1D019E05B484030006A78
:102E900040084000584940310862FFF73DFC0546B4
:102EA00006E0FFF739FC401B022801D90320AEE6FB
:102EB00051484030006A022108400028F1D1042125
:102EC0002068084004287CD1002001904A4880688E
:102ED0003821084020280BD147484030C0690221E2
:102EE000084000286ED0A06800286BD101208EE633
:102EF0004148C06B010F01208843002810D000BF5B
:102F00003D48C06B0121090708433B49C863084697
:102F1000C06B09040840009000BF00BF0120019071
:102F200039480068FF2101310840002816D1364891
:102F30000068084334490860FFF7EEFB054606E0E9
:102F4000FFF7EAFB401B022801D903205FE62E4869
:102F50000068FF21013108400028F1D000BFA068BF
:102F6000012808D124484030C06901210843224982
:102F70004031C86120E0A06805280FD11E484030CC
:102F8000C069042108431C494031C8610846C06932
:102F90000121084318494031C8610DE0164840300E
:102FA000C0694108490014484030C161C06904212A
:102FB000884311494031C86100BFA068002816D07D
:102FC00001E040E03EE0FFF7A7FB054607E0FFF722
:102FD000A3FB401B0D49884201D9032017E6064890
:102FE0004030C069022108400028F0D01EE0FFF701
:102FF00093FB054614E00000001002400024F4009A
:10300000100000200800002000700040881300001D
:10301000FFF782FB401B6649884201D90320F6E591
:103020006448C069022108400028F1D101980128B4
:1030300008D160484038C06B0121090788435D49C9
:103040004039C86300BFE06900285CD05948403867
:1030500080683821084010287CD0E069022853D1CC
:1030600054484038006801210906884351494039D5
:103070000860FFF751FB054606E0FFF74DFB401BDC
:10308000022801D90320C2E54A48403800680121DE
:10309000490608400028F0D1616A206A0843A16A05
:1030A00009020843E16A0843216B0843616B084346
:1030B00040494039C968404A114008433D494039B8
:1030C000C8600846006801210906084339494039AB
:1030D00008600846C0680904084336494039C8609A
:1030E000FFF71AFB054606E0FFF716FB401B022818
:1030F00001D903208BE52F4840380068012149069B
:1031000008400028F0D050E02A48403800680121EB
:1031100009068843274940390860FFF7FDFA05464C
:1031200006E0FFF7F9FA401B022801D903206EE5FB
:103130002048403800680121490608400028F0D1A5
:103140001C484038C0681D4908401A494039C860C9
:103150002BE0FFE7E069012800D158E51548403829
:10316000C668B107890F206A81421CD170203040A7
:10317000616A884217D17F2000023040A16A0902AB
:10318000884210D11F2040043040E16A88420AD1B1
:10319000072040063040216B884204D1710F490757
:1031A000606B814201D0012031E500202FE5000055
:1031B00088130000401002408C80C111FCFFFEEE1D
:1031C000044909680322520291430143014A1160F4
:1031D000704700000000014070477047704710B50D
:1031E0000446002C01D1012010BD3D20005D0028C7
:1031F00005D100213C200155204600F026F802218F
:103200003D200155211D206800F0F6F901214820DC
:10321000015500BF3E2001553F200155402001557A
:1032200041200155422001554320015500BF00BFF8
:1032300044200155452001554620015547200155A0
:1032400000BF3D2001550020CEE7704701463D20DC
:10325000405C012801D00120704702233D204354E7
:103260000868C068012318430B68D860144B0868CD
:1032700098420CD001239B070868984207D0114B55
:103280000868984203D0104B086898420FD108682C
:1032900082680E4B1A40062A0FD0D81F82420CD0EB
:1032A00008680068012318430B68186005E0086887
:1032B0000068012318430B6818600020CCE7000069
:1032C000002C0140000400400040014007000100C4
:1032D0007047000010B504462068006902210840CC
:1032E000400800281CD02068C0680840400800281A
:1032F00016D0481F21680861012020772068806966
:103300008007800F002803D02046FFF7E1FF05E08B
:10331000204600F0DBF8204600F0D9F800202077A6
:103320002068006904210840800800281DD020681A
:10333000C06808408008002817D0C8432168086189
:1033400002202077206880690321090208400028B4
:1033500003D02046FFF7BCFF05E0204600F0B6F89A
:10336000204600F0B4F8002020772068006908218A
:103370000840C00800281CD02068C0680840C00869
:10338000002816D0C84321680861042020772068EF
:10339000C0698007800F002803D02046FFF798FF00
:1033A00005E0204600F092F8204600F090F800205A
:1033B00020772068006910210840000900281DD0EE
:1033C0002068C06808400009002817D0C843216859
:1033D0000861082020772068C0690321090208409D
:1033E000002803D02046FFF773FF05E0204600F0D9
:1033F0006DF8204600F06BF8002020772068006907
:10340000C007C00F01214840484000280CD0206868
:10341000C068084048404840002805D0C81E2168C0
:103420000861204600F054F82068006980210840B7
:10343000C00900280BD02068C0680840C0090028D7
:1034400005D0C843216808612046FFF7C6FE206802
:103450000069FF2101310840000A00280CD02068D3
:10346000C06880210840C009002805D0164821689E
:1034700008612046FFF7B0FE20680069402108403F
:10348000800900280BD02068C06808408009002807
:1034900005D0C84321680861204600F025F820685F
:1034A000006920210840400900280BD02068C0682E
:1034B00008404009002805D0C8432168086120461B
:1034C000FFF78CFE10BD0000FFFEFFFF7047704746
:1034D00010B5044603492068884201D1FFF722F95C
:1034E00010BD0000001400407047000010B5044AF1
:1034F0000021044801F062FB0349086010BD000090
:10350000A4670008533500080000002008B500BF7C
:103510000D48406B202108430B4948630846406B27
:1035200020210840009000BF00BF00BF0648406B4C
:1035300001210843044948630846406BC007C00F97
:10354000009000BF00BF08BD0010024000BFFEE7B2
:10355000704700BF012001F0E7FAFBE710B504480F
:10356000006902F0B7FE012801D002F0B7FB10BDE0
:1035700000E000E000B593B0382105A8FDF796FA09
:103580000020019002900390049001204002FFF778
:1035900079F9012005900004069002200C90032187
:1035A0000D9100210E9110210F910104109101063F
:1035B00011910107129105A8FFF724FB002801D003
:1035C000FFF7A6F807200190022002900020039048
:1035D0000490022101A8FFF781F9002801D0FFF72C
:1035E00097F813B000BD704710B50248FFF772FEA0
:1035F00010BD0000E000002010B50268244B984286
:1036000006D001239B07984202D0224B984205D155
:1036100070241346A3431A464B681A431C4B984226
:1036200012D001239B0798420ED01A4B98420BD020
:10363000194B984208D0194B984205D0184B984224
:1036400002D0184B984206D1032424021346A34308
:103650001A46CB681A4380241346A3434C6923437C
:103660001A4602608B68C3620B688362084B9842FB
:1036700008D00A4B984205D0094B984202D0094B1A
:10368000984201D10B6903630123436110BD00001F
:10369000002C014000040040002000400040014098
:1036A0000044014000480140F8B5040C8BB22646A6
:1036B00082B25E43104658430D0C370C360400218D
:1036C0008019164679416E43370C36048019264618
:1036D00079416E438919F8BD30B47446641E25786B
:1036E000641CAB4204D3635D5B00E31830BC184735
:1036F0001D46F8E74900CA020243100000D004202A
:103700004A0D01D001221043044A490D914201D1D2
:1037100002210843012800D105207047FF0700005F
:1037200010B5002819DB1A4A03231B02D21883089C
:103730009B00D2588307DC0EFF23A3409A438B07DC
:103740001B0E8407E40EA3401A43114B03242402EA
:103750001B198408A4001A5118E00E4A03071B0F16
:10376000083B9B089B00D2588307DC0EFF23A34035
:103770009A438B071B0E8407E40EA3401A43054BA4
:103780000407240F083CA408A4001A5110BD00002F
:1037900000E100E01CED00E010B5002819DB1A4A3A
:1037A00003231B02D21883089B00D2588307DC0E28
:1037B000FF23A3409A438B071B0E8407E40EA3400C
:1037C0001A43114B032424021B198408A4001A5124
:1037D00018E00E4A03071B0F083B9B089B00D258BA
:1037E0008307DC0EFF23A3409A438B071B0E84073D
:1037F000E40EA3401A43054B0407240F083CA40819
:10380000A4001A5110BD000000E100E01CED00E032
:10381000EFF30580704730380A2801D20120704745
:1038200000207047F7B584B006464448006803900E
:10383000002543480068019000200090414800782E
:1038400000282CD04048007800281ED13F488269CB
:1038500028466D1C800032503C484069441E3C485C
:103860000068844211D33A4800683A490968401810
:10387000A0420AD3202D08D20598854205D22846B9
:103880006D1C8000345001200090334800780028DF
:1038900011D001AA03A902A801F034F80BE0FCF74B
:1038A00027FD0746FCF721FD874204D101AA03A9A1
:1038B00002A801F027F824480078002801D00398D6
:1038C000069031E006980068041FE007C00F00284A
:1038D00000D126E006980068441E1D480068001DBF
:1038E00084421DD31A4800681A4909684018A0424A
:1038F00016D3202D14D2201F00F0D6F900280FD0A7
:10390000059885420CD2022D06D10098002803D0DC
:103910007068A04200D104E028466D1C800034503D
:1039200000BF0698001D069001990398411806985B
:103930008142C7D8284607B0F0BD0000C000002073
:10394000C4000020D1000020D200002084200020EC
:10395000C8000020CC000020D3000020F0B591B0BA
:1039600007460E4635462C4600201090202264491A
:1039700008A8FCF7BFFC634800680790624800682D
:10398000069062480078002809D1614A61A163A0CD
:10399000FCF70AFD69A0FCF707FD00BFFEE76848D9
:1039A0000078002809D05A4A66A15CA0FCF7FCFC0C
:1039B00062A0FCF7F9FC00BFFEE701206049087037
:1039C00063A0FCF7F1FC5DA0FCF7EEFC00F006F94B
:1039D0000420384080085F490870084600780028B5
:1039E0001AD000F08AFF002802D000F086FF00E025
:1039F00059A05B490590886A0599FCF7D5FC4FA052
:103A0000FCF7D2FCFCF771FC0546044606AA07A9A0
:103A100010A800F077FF06E05149C86AFCF7C4FC23
:103A200046A0FCF7C1FC20350798854204D30699CF
:103A300007984018A8420DD20699079843180246E5
:103A400029464848FCF7B0FC3CA0FCF7ADFC01203F
:103A5000454908702A460699079800F043F94049FD
:103A6000086BFCF7A1FC35A0FCF79EFC3F492068E1
:103A7000086060684860A0688860E068C860206985
:103A8000086160694861A0698861E069C8610846A9
:103A9000C068364A0B9992680A9B0193029203917F
:103AA00004903248406800903048099B026830A07A
:103AB0000899FCF779FC21A0FCF776FC2B48C0693B
:103AC0002A4A0F9992690E9B0193029203910490E6
:103AD00026484069009025480D9B026924A00C9956
:103AE000FCF762FC15A0FCF75FFC2CA0FCF75CFC6B
:103AF00012A0FCF759FC284601F0C8F811B0F0BD3F
:103B0000146A0008C0000020C4000020D00000207B
:103B1000FE690008696E69745F6F6B002825732960
:103B20002068617320617373657274206661696CCB
:103B300065642061742025732E0000000D0A0000CA
:103B4000D1000020216F6E5F6661756C740000000B
:103B500000000000D30000204E4F5F4E414D450055
:103B6000386900080C740008D2000020842000206E
:103B7000202025733A2025303878202025733A20DC
:103B800025303878202025733A20253038782020B9
:103B900025733A2025303878000000003D3D3D3D3A
:103BA0003D3D3D3D3D3D3D3D3D3D3D3D3D3D3D3D45
:103BB0003D3D3D3D3D3D3D3D3D3D3D3D3D3D3D3D35
:103BC0003D3D3D3D3D3D3D3D3D3D3D3D3D3D3D3D25
:103BD0003D3D3D3D3D3D3D3D3D3D000010B5054970
:103BE000054B064A48680649FCF7DEFB05A0FCF7D2
:103BF000DBFB10BD38690008421F0020211F002098
:103C0000001F00200D0A000070B504460E46154640
:103C1000202221461648FCF74BFF2022314615484A
:103C2000FCF746FF202229461348FCF741FF1348C2
:103C30001349086013480968401A1349086013487B
:103C40001349086013480968401A134908600E4870
:103C50000068002807D111490868FCF7A5FB10A0EF
:103C6000FCF7A2FB70BD01200E49087000BFF9E708
:103C7000001F0020211F0020421F002028240020B8
:103C8000C000002028280020C400002000000008F8
:103C9000C8000020A0750008CC000020386900088A
:103CA0000D0A0000D000002010B501460B884A889C
:103CB0001F20C00210401F24E402A04206D1184079
:103CC0000F242403A04201D1012010BDFF200002D7
:103CD000104047242402A04201D10120F5E7002032
:103CE000F3E70000F8B505460E46144610271F48B6
:103CF000007800281CD01E480078002808D01D49F4
:103D000088692146FCF750FB1BA0FCF74DFB07E040
:103D10001849C8692146FCF747FB17A0FCF744FB8C
:103D2000AC4201D22C4603E0A819A04200D2AC1943
:103D300010490869FCF738FB0FA0FCF735FB09E0D8
:103D400021460EA02268FCF72FFB0BA0FCF72CFBF2
:103D5000241D7F1EA819A04201D9002FF0D10EA06A
:103D6000FCF722FB04A0FCF71FFBF8BDD2000020EB
:103D7000D3000020386900080D0A0000202061648B
:103D800064723A20253038782020202064617461E4
:103D90003A202530387800003D3D3D3D3D3D3D3DDC
:103DA0003D3D3D3D3D3D3D3D3D3D3D3D3D3D3D3D43
:103DB0003D3D3D3D3D3D3D3D3D3D3D3D0000000027
:103DC00070B586B00646002E1CD127480068002832
:103DD00011D1FF20E130254925A22AA304900193A7
:103DE0000292039100900B462FA236A1002000F012
:103DF00095F800BFFEE7FF22E1321C491CA01A4BD8
:103E00001B689847002405253048007C002802D113
:103E1000284606B070BD00F09BFA00241CE060014B
:103E200021182A48AF38081820300078012811D10D
:103E3000600122182548AF381018411C1E22304658
:103E4000FCF77CFD002805D1600121181F48AF3820
:103E5000455C03E0601CC4B2052CE0DB00BF00F051
:103E6000A9FA2846D5E70000BC000020C268000877
:103E700074616720213D202828766F6964202A29F3
:103E8000302900002825732920686173206173732D
:103E9000657274206661696C6564206174202573A5
:103EA0003A256C642E0000002E2E5C656173796CDF
:103EB0006F676765725C7372635C656C6F672E63B6
:103EC00000000000656C6F6700000000E81A002029
:103ED00010B500241048007C012801D1204610BDF7
:103EE00000F086FA0446002C01D02046F7E70120B6
:103EF00000F040FA00210848C1740175012000F06B
:103F0000BFFB052000F07AFA00F0D6FA0121024842
:103F100001742046E3E70000E81A00200FB4F0B572
:103F20008FB005460F463846FCF7E6FC0E9000249D
:103F300001200D9000200B900C90079008900990A4
:103F40000A90052D1ADDD7480068002810D1D64800
:103F5000D649D7A2DDA30490019302920391009069
:103F60000B46E3A2E9A10020FFF7D8FF00BFFEE760
:103F7000CD4ACE49CEA0CB4B1B689847E548407C44
:103F8000002804D10FB0F0BC08BC04B01847E148C9
:103F9000E0380078A84204DB3846FFF711FFA8425A
:103FA00000DAEFE7DB49DF393846FCF791FC0028FF
:103FB00000D1E7E71AA8069000F0CAF9D548407D7D
:103FC00000280FD0D4480119D4A2204600F004FCE8
:103FD0000419A800D24B1A58CF480119204600F006
:103FE000FBFB04190121284600F0CEFC002808D074
:103FF000A800CC4B1A58C8480119204600F0ECFB29
:1040000004190221284600F0BFFC00281ED0C24837
:1040100001193A46204600F0DFFB04190E980F28DC
:104020000DD80F220E98111A202207A8FCF717FDB1
:10403000B948011907AA204600F0CEFB0419B6487A
:104040000119B9A2204600F0C7FB04191C2128461B
:1040500000F09AFC002857D0AF480119B3A22046BF
:1040600000F0BAFB04190421284600F08DFC00285A
:1040700016D000F0B9F90590A74801192046059A15
:1040800000F0AAFB04191821284600F07DFC002846
:1040900006D0A1480119A4A2204600F09DFB0419F6
:1040A0000821284600F070FC002816D000F094F992
:1040B0000590994801192046059A00F08DFB0419D6
:1040C0001021284600F060FC002806D09248011913
:1040D00095A2204600F080FB04191021284600F02C
:1040E00053FC002809D000F07BF905908A4801199B
:1040F0002046059A00F070FB0419874801198CA22C
:10410000204600F069FB041920212846169A00F089
:10411000A1FC00280DD140212846179A00F09AFCF6
:10412000002806D180212846189A00F0A3FC002818
:1041300068D0794801197FA2204600F04DFB041990
:1041400020212846169A00F085FC002823D07248CA
:1041500001192046169A00F03FFB04194021284619
:10416000179A00F077FC002807D06B48011972A25B
:10417000204600F031FB04190DE080212846189AF2
:1041800000F078FC002806D06348011966A220469A
:1041900000F022FB041980212846189A00F06AFCDE
:1041A00000281AD065A205210BA8189BFCF720F95E
:1041B000594801190BAA204600F00EFB04194021B2
:1041C0002846179A00F046FC002806D052480119EC
:1041D00055A2204600F000FB041940212846179AFA
:1041E00000F038FC002806D04B4801192046179AE9
:1041F00000F0F2FA04194848011951A2204600F0D3
:10420000EBFA041901208002011B434800190590B4
:10421000069B199AFCF7ACF8064600200690A019F8
:1042200001218902884203D8002E01DBA41901E094
:104230000124A402201D0D99401801218902884201
:1042400003D90C46241F0D98241A3248C038007830
:1042500000280CD00020304908552E49C0392E487E
:10426000FCF736FB002802D100F0A4F88AE62948C2
:10427000407D002806D02848011932A2204600F0CF
:10428000ABFA04192448011930A2204600F0A4FA20
:1042900004192146204800F0ADF800F08BF800BF6B
:1042A00070E60000BC0000203E020000DA68000852
:1042B0006C6576656C203C3D20454C4F475F4C5605
:1042C0004C5F564552424F53450000002825732944
:1042D0002068617320617373657274206661696C14
:1042E00065642061742025733A256C642E000000FB
:1042F0002E2E5C656173796C6F676765725C737293
:10430000635C656C6F672E6300000000656C6F670F
:1043100000000000E81A0020001B00201B5B0000CA
:10432000A40000208C000020200000005B000000A2
:104330005D200000280000003A000000256C6400A9
:10434000290000001B5B306D000000000A00000027
:1043500010B50748807C002805D000F04CF80121FA
:104360000348017502E001210148C17410BD00003D
:10437000E81A002010B504460D488474807C00289B
:1043800014D00B48007D002806D10948C07C0028C5
:1043900002D000F030F809E00548007D002805D083
:1043A0000348C07C002801D100F026F810BD0000B1
:1043B000E81A002010B50748807C002805D000F0DE
:1043C0001BF800210348017502E000210148C17477
:1043D00010BD0000E81A002000A070470000000097
:1043E00000A070470000000000A07047000000001F
:1043F00000207047704770477047000010B586B0C6
:104400000446052C1CDD10480068002811D1FF204F
:104410005B300E490EA215A3049001930292039102
:1044200000900B461AA221A10020FFF777FD00BFE4
:10443000FEE7FF225B32054905A0034B1B68984746
:104440001C48047006B010BDBC000020966800082F
:104450006C6576656C203C3D20454C4F475F4C5663
:104460004C5F564552424F534500000028257329A2
:104470002068617320617373657274206661696C72
:1044800065642061742025733A256C642E00000059
:104490002E2E5C656173796C6F676765725C7372F1
:1044A000635C656C6F672E6300000000656C6F676E
:1044B00000000000081A002010B5002400BF14E01E
:1044C000610162180A495118481C1F21FCF7ECFAD7
:1044D0000021600122180648815460012218044816
:1044E000101820300170601CC4B2052CE8DB10BD30
:1044F000391A002030B585B004460D46052C1CDD68
:1045000010480068002811D1FF2041300E490FA249
:1045100015A3049001930292039100900B461BA2F5
:1045200021A10020FFF7FAFC00BFFEE7FF22413285
:10453000054906A0034B1B689847A1001C4845503D
:1045400005B030BDBC000020796800086C65766558
:104550006C203C3D20454C4F475F4C564C5F5645C8
:1045600052424F534500000028257329206861738B
:1045700020617373657274206661696C6564206183
:10458000742025733A256C642E0000002E2E5C6585
:104590006173796C6F676765725C7372635C656C7D
:1045A0006F672E6300000000656C6F6700000000FD
:1045B000E01A002010B586B00446002C1ED0012C55
:1045C0001CD010480068002811D1FF2016300E4979
:1045D0000EA218A3049001930292039100900B463F
:1045E0001DA224A10020FFF799FC00BFFEE7FF22D7
:1045F0001632054905A0034B1B6898471F484474B1
:1046000006B010BDBC0000204568000828656E613A
:10461000626C6564203D3D2066616C736529207C79
:104620007C2028656E61626C6564203D3D2074725B
:1046300075652900282573292068617320617373CB
:10464000657274206661696C6564206174202573ED
:104650003A256C642E0000002E2E5C656173796C27
:104660006F676765725C7372635C656C6F672E63FE
:1046700000000000656C6F6700000000E81A002071
:1046800010B586B00446002C1ED0012C1CD010485A
:104690000068002811D1FF2022300E490EA218A375
:1046A000049001930292039100900B461DA224A155
:1046B0000020FFF733FC00BFFEE7FF22223205494E
:1046C00005A0034B1B6898471F48447506B010BDF2
:1046D000BC0000205D68000828656E61626C65643E
:1046E000203D3D2066616C736529207C7C20286517
:1046F0006E61626C6564203D3D20747275652900B1
:104700002825732920686173206173736572742092
:104710006661696C65642061742025733A256C6458
:104720002E0000002E2E5C656173796C6F676765E3
:10473000725C7372635C656C6F672E6300000000CF
:10474000656C6F6700000000E81A00200EB50B488A
:10475000007C002800D10EBD0120FFF72BFF08A030
:1047600009A1F622124B00920191029011A218A108
:104770000320FFF7D3FB00BFEDE70000E81A00209D
:10478000322E322E39390000456173794C6F6767DC
:1047900065722056257320697320696E697469619A
:1047A0006C697A6520737563636573732E0000000E
:1047B000306800082E2E5C656173796C6F676765E1
:1047C000725C7372635C656C6F672E63000000003F
:1047D000656C6F6700000000F0B585B006460D46B9
:1047E00014462746002D1AD125480068002810D10C
:1047F0002C20244924A225A3049001930292039122
:1048000000900B462AA232A10020FFF787FB00BFD1
:10481000FEE72C221B491CA0194B1B689847002C53
:104820001AD117480068002810D12D2015492AA256
:1048300016A3049001930292039100900B461CA2D0
:1048400023A10020FFF76AFB00BFFEE72D220D49E0
:1048500021A00B4B1B6898470BE03046761C0121CA
:104860008902884204D220782870641C6D1C00E004
:1048700002E020780028F0D100BFE01B05B0F0BDB9
:10488000BC00002012690008647374002825732995
:104890002068617320617373657274206661696C4E
:1048A00065642061742025733A256C642E00000035
:1048B0002E2E5C656173796C6F676765725C7372CD
:1048C000635C656C6F675F7574696C732E63000061
:1048D000656C6F67000000007372630010B58A6832
:1048E000002A02DCFDF7DCFA10BD521E8A604A681D
:1048F000C0B2531C4B60107010BD10B501F0F8F839
:1049000010BD000070B506460C461546002C09D1B6
:104910000E4A0FA111A0FBF747FD18A0FBF744FDBD
:1049200000BFFEE7002D09D1084A15A10BA0FBF737
:104930003BFD12A0FBF738FD00BFFEE701F00EF9CA
:10494000206001F011F98000286070BDD069000876
:1049500073746172745F6164647200002825732946
:104960002068617320617373657274206661696C7D
:1049700065642061742025732E0000000D0A00007C
:1049800073697A650000000030B585B004460D46B5
:10499000052C1ADD12480068002810D11148124970
:1049A00012A219A3049001930292039100900B4666
:1049B0001EA225A10020FFF7B1FA00BFFEE7094AB9
:1049C00009490AA0064B1B689847A1002048405897
:1049D0002840002802D0012005B030BD0020FBE7B0
:1049E000BC000020DF020000E66800086C65766508
:1049F0006C203C3D20454C4F475F4C564C5F564524
:104A000052424F53450000002825732920686173E6
:104A100020617373657274206661696C65642061DE
:104A2000742025733A256C642E0000002E2E5C65E0
:104A30006173796C6F676765725C7372635C656CD8
:104A40006F672E6300000000656C6F670000000058
:104A5000E01A002070B505460E461446002C07D01B
:104A600031462846FFF790FF002801D0012070BD95
:104A70000020FCE770B505460E461446002C07D012
:104A800031462846FFF780FF002801D0012070BD85
:104A90000020FCE7FDF752FEFEF76CFDFEF736FD49
:104AA000FFF716FAFF210020FFF724FD0721012060
:104AB000FFF720FD07210220FFF71CFD072103203F
:104AC000FFF718FDBF210420FFF714FDBF210520CB
:104AD000FFF710FDFFF73AFE07A0FBF765FC0BA2FE
:104AE0000AA10CA0FFF790F800F030F8FEF7FEFCEA
:104AF00000F044F800BFFEE74B65696C20436D424F
:104B000061636B7472616365210D0A0056312E304A
:104B10002E300000425945313330305F56315F321C
:104B20005F3039323430310070B50546FEF770FE23
:104B3000002802D00524E44305E00024002D02D023
:104B4000284600F0A1FF204670BD000010B5FEF71A
:104B50005FFE002802D00524E4430AE0064800680E
:104B6000002804D1012004490860002401E0002449
:104B7000E443204610BD00006400002010B5FEF79D
:104B800047FE002802D00524E44312E00A480068EA
:104B900001280CD100BF0021801FFEF7FDFD00BFE2
:104BA00002200549086000F0E5FF002401E0002430
:104BB000E443204610BD000064000020F7B586B035
:104BC000144600200490FEF723FE00285BD10698CF
:104BD000002858D08026182500200590471E002C5C
:104BE00032D02068002801D020680590A0690028F4
:104BF00000D0A569002D06D0382D04D82079C00733
:104C0000C00F002802D0002009B0F0BD6069002864
:104C100001D060698608A06800280AD0E068602892
:104C200007D32069002804D06069002801D001273B
:104C30000BE0A068002808D1E068002805D12069B1
:104C4000002802D1002700E00027012F0CD12169A4
:104C5000A0680095019102903246079B059906983D
:104C600001F0F3FA04900EE0002F0CD104A8B2B2C8
:104C700000950190079B0599069801F0B5FA012867
:104C800001D0002004900498BEE7000070B5A2B0E7
:104C900006460025802102A8FBF708FF32462021A6
:104CA00002A8FEF7BFFD0546002410E0A10002ABFC
:104CB0005A58E1006118134BC81813A1FBF782FB87
:104CC0002021E000201808300E4A1154641CAC4228
:104CD000ECD3002D0DD00B48E9006B180C49009067
:104CE0000CA2086A0D49FBF75FFB0DA0FBF75CFB0C
:104CF00006E00749486AFBF757FB09A0FBF754FB9E
:104D000022B070BD631F00202530386C7800000091
:104D1000386900082E61786600000000001F00203E
:104D20000D0A0000F8B505460E46174807681748F3
:104D30000068001D00F07CFD681C002808D1002ED2
:104D400006D012480168091D114800F0C8FD1AE09C
:104D50007C190E4800684460BC4207D20B480168C9
:104D6000091D0C48006800F09FFD0CE00748016831
:104D7000091D0948006800F097FD08480068844252
:104D800001D206480460F8BD28000020140000206D
:104D90001C0600201C0000201800002044000020F9
:104DA00010B5044600F0A8FD22480068401C2149C7
:104DB000086021480068002808D11F4804600846A0
:104DC000006801280ED100F0F1F90BE01B480068E3
:104DD000002807D118480068C06AE16A884201D8F3
:104DE0001548046016480068401C154908600846CC
:104DF000006860641349E06A0968884202D9114971
:104E0000E06A08601422E16A51430F4A8818211DA4
:104E100000F065FD00F07EFD08480068002807D01E
:104E200005480068C06AE16A884201D200F0E4FDEA
:104E300010BD0000240000201400002030000020DD
:104E4000400000202C0000206C01002008B500F07C
:104E500053FD1348006800281ED1124800F014FDCD
:104E6000114800F011FD0F48104908600E48104924
:104E7000086000200F4B104A102100900A2000F01B
:104E80003FFF0749086008460068002804D00BA1CE
:104E90000348006800F0BCFD00F03CFD08BD0000C8
:104EA000580000203006002044060020500000205A
:104EB0005400002058060020A8060020546D7251AE
:104EC0000000000010B516E000F016FD0C48C068A8
:104ED000C468201D00F0ACFC0A480068401E094967
:104EE000086009480068401E0749086000F012FD8C
:104EF000204600F061F8044800680028E4D110BDA5
:104F000008060020240000202000002070B5044680
:104F10000D46206C00280ED0216CE0684118E1603D
:104F2000A168E068884201D32168E1602846226CCC
:104F3000E168FBF753FD70BDF8B504460F46154612
:104F400000200090A66B206C002809D12068002862
:104F50002ED1A06801F074FA00900020A06027E034
:104F6000002D0FD13946226C6068FBF737FD216CAC
:104F7000606840186060A1686068884218D3206843
:104F8000606015E03946226CE068FBF727FD216C74
:104F9000E068411AE1602168E068884203D2216C30
:104FA000A068411AE160022D02D1002E00D0761EC9
:104FB000701CA0630098F8BD10B504465920005D30
:104FC000002806D1206B00F0B9FC204600F0B6FCAA
:104FD00013E05920005D012803D1204600F0AEFC0B
:104FE0000BE05920005D022801D1012000E00020E3
:104FF000002802D172B600BFFEE710BD0146094A83
:1050000012681268002A01D1012200E000220A6021
:105010000A68002A04D1034A1268D268106800E0C6
:10502000002070475000002030B503239B02174832
:105030004407640F002C05D0C01DC008C000134CED
:10504000041B1B1B0246124C22600024104D6C6096
:10505000D0180838C008C0000E4C206000240D4D48
:105060002D686C600B4D2D682C601146441A4C6005
:10507000084C24680C60084D4C682C60074D4C6847
:105080002C600124E407064D2C6030BD080E002082
:1050900068000020700000207800002074000020CC
:1050A0008400002000BFFFF70DFF034800680128BF
:1050B000F9D900F0A1FCF6E76C010020FFB581B042
:1050C00006460D4617460A9C002D01D1246000E0DB
:1050D0002760E66325640121204600F061FE4C2133
:1050E0000498085505B0F0BDFFB581B00E461746CF
:1050F0000C9CE765B900A522206BFBF7B0FC781E7D
:105100008000216B081800900098C008C000009033
:1051100000984007400F002801D1012000E0002046
:10512000002802D172B600BFFEE7002E11D0002584
:1051300008E0715D204634304155705D002800D193
:1051400002E06D1C102DF4D300BF00214320015557
:1051500002E00021342001550A98382801D3372075
:105160000A900A98E0620A98E06400202065201DF9
:1051700000F097FB2046183000F093FB24613821A3
:105180000A98081AA0616462002060650021582016
:105190000155049A0199009800F03AFB20600B98A1
:1051A000002801D00B98046005B0F0BD10B50024B4
:1051B00006E0142161430E4A881800F065FB641C68
:1051C000382CF6D30B4800F05FFB0B4800F05CFB7B
:1051D0000A4800F059FB0A4800F056FB094800F065
:1051E00053FB04480849086003480849086010BD9B
:1051F0006C010020CC050020E0050020F405002013
:10520000080600201C060020180000201C000020BA
:1052100010B50146164800E0006803688B42FBD3D6
:10522000024643689B188B4204D143684C681B19A3
:10523000436001460A464B689B180468A34211D19B
:105240000C4C03682468A34208D04B680468646867
:105250001B194B6003681B680B6005E0054B1B685E
:105260000B6001E003680B60884200D0016010BD54
:105270006800002070000020F8B504460D46164670
:105280001F460020009065602461B5420CD8F01BD9
:10529000A169884202D30120009011E0211D094834
:1052A000006800F001FB0BE0BE4204D2BD4202D315
:1052B0000120009004E0211D0348006800F0F4FA8A
:1052C0000098F8BD540000205000002070B505463D
:1052D00000F012FBA86B002801D1012400E000249B
:1052E00000F018FB204670BD70B5054600F004FBC9
:1052F000A86BE96B884201D1012400E0002400F092
:1053000009FB204670BD0000F8B505460F4617485A
:105310000068C068C468201D00F08AFA2820005D7B
:1053200004210840002817D0A06941192B463A46AD
:105330002046FFF7A1FF002814D0002003462A468C
:1053400001460090204601F0B3F90646002E02D136
:1053500072B600BFFEE705E02820005D4108490065
:10536000282001552046216A8847F8BD50000020BA
:10537000F0B587B090E0039800280ADA04AF002F58
:1053800002D172B600BFFEE73A68B9687868904704
:1053900000BF039800287FDB059C6069002801D1CD
:1053A000012000E00020002802D1201D00F040FA7A
:1053B00002A800F0D1F8054603980300FEF78CF927
:1053C0000A0A0608353D590709363E6A00BF00BF84
:1053D00000BF00BF2820005D012108432821085597
:1053E0000498A269811803462A462046FFF744FF25
:1053F000002819D02046216A88472820005D042112
:105400000840002810D0002000900498A16942189C
:1054100000231946204601F04BF90646002E02D122
:1054200072B600BFFEE700BF35E000BF2820005D78
:1054300041084900282001552DE000BF2820005DCB
:1054400001210843282108550498A061A06900287B
:1054500001D0012000E00020002802D172B600BF78
:10546000FEE7A06941192B462A462046FFF704FFB4
:1054700011E02820005D02210840002803D12046C9
:1054800000F05CFA05E02820005D41084900282072
:10549000015500E000BF00BF002203A904480068D6
:1054A00000F0CCFD002800D065E707B0F0BD00009B
:1054B00058000020F8B505460C4600F0ABFB6846E6
:1054C00000F04AF806460098002822D1002C08D1A6
:1054D000B54206D801F03CF831462846FFF714FFE4
:1054E00019E0002C08D00C4800680068002801D1A1
:1054F000012000E000200446A91B2246074800685E
:1055000000F09CFA01F024F8002804D100F074FAAD
:1055100001E001F01DF8F8BD540000205800002003
:105520000B4909680968002901D1012100E0002127
:10553000002904D00021C943064A116006E004494D
:105540000968C968C868034A41681160704700006B
:10555000180000204400002070B5044600F0CCFE86
:10556000054607480068854204D200F00BF8012088
:10557000206001E00020206001480560284670BDE1
:1055800060000020FEB52EE021480068C068056874
:105590001F480068C068C468201D00F049F9204613
:1055A000216A88472820005D0421084000281AD07D
:1055B000A0694619AE4207D966602461211D1448CE
:1055C000006800F071F90EE0002003462A4601460B
:1055D0000090204601F06CF80746002F02D172B609
:1055E00000BFFEE700BF0A4800680068002801D13C
:1055F000012000E000200028C6D005480068019086
:105600000448006802490860024901980860FEBD2C
:10561000500000205400002007480068401C00286B
:1056200001D1012000E00020002802D172B600BFA5
:10563000FEE772B600BFFEE78800002008B500BF95
:105640006846FFF7DBFC044620460099FFF732FF6F
:10565000FFF78EFEF4E770B5044600F04DF94520E3
:10566000055713E0606A002801D1012000E0002006
:10567000002808D12046243000F026FF002803D05F
:1056800000F030FA00E003E0681E45B2002DE9DCCE
:1056900000BF0021C9434520015500F03BF900F04F
:1056A0002BF94420055713E02069002801D101207F
:1056B00000E0002000280AD12046103000F004FF4E
:1056C000002801D000F00EFA681E45B200E001E0AB
:1056D000002DE9DC00BF0021C9434420015500F042
:1056E00019F970BDF8B504460020009000F092FA58
:1056F00041480068002801D1FFF796FC3F48006848
:105700002040002866D1002C15D008346007400FD7
:10571000002810D06007400F0821081A04196007FC
:10572000400F002801D1012000E00020002802D114
:1057300072B600BFFEE7002C4CD0314800688442AE
:1057400048D8304E3046056801E02E462D6868681E
:10575000A04202D228680028F7D127480068854275
:1057600038D0306808300090286830606868001BC6
:10577000102813D92F197807400F002801D10120D4
:1057800000E00020002802D172B600BFFEE7686882
:10579000001B78606C603846FFF73AFD184968686E
:1057A0000968081A16490860084600681649096819
:1057B000884203D212480068134908600F4968689C
:1057C0000968084368600020286010480068401C91
:1057D0000E49086000F0BCFE00984007400F00280A
:1057E00001D1012000E00020002802D172B600BFE4
:1057F000FEE70098F8BD0000700000208400002043
:105800007400002068000020780000207C00002048
:10581000001F01231B060360001F0160001F034BD4
:1058200003601438026020387047000019560008E1
:1058300001460A694B68886898608B6848685860B8
:105840005068884201D18868506000200861106863
:10585000401E106010687047034B0360034B0B60E1
:10586000802313607047000048070020A80700202D
:10587000034B0360034B0B60FF230133136070473E
:10588000A8090020080A00200146083141600021D3
:10589000C943816001460831C16001610021016096
:1058A000704700210161704710B502460B685C1C0F
:1058B000002C01D1106907E01046083000E0406874
:1058C000446824689C42FAD944684C604C68A160E2
:1058D000886041600A611468641C146010BD4268ED
:1058E0004A6093688B6093685960916008610368AF
:1058F0005B1C03607047000072B605480068401CDE
:1059000003490860BFF34F8FBFF36F8F70470000EC
:105910008800002008480068002802D172B600BF45
:10592000FEE705480068401E034908600846006815
:10593000002800D162B670478800002070B5064686
:105940003546002E3AD0083D2C461D49606809684E
:105950000840002801D0012000E00020002802D1EA
:1059600072B600BFFEE72068002801D1012000E0E8
:105970000020002802D172B600BFFEE7104960681F
:1059800009680840002819D02068002816D10C4961
:10599000606809688843606000F03CF90949606804
:1059A00009684018074908602046FFF731FC06489F
:1059B0000068401C0449086000F0CAFD70BD00008A
:1059C00084000020740000208000002010B500201A
:1059D0000749086188617D21C90006480068FBF716
:1059E0009DF8401E024948610720086110BD000073
:1059F00000E000E01000002001200007034948609B
:105A0000BFF34F8FBFF36F8F7047000000ED00E0D2
:105A100010B5024600200BE0C300074CE358002BF2
:105A200005D1C300E150C3001B195A6002E0401CBD
:105A30000828F1D300BF10BD2C010020F8B50546A1
:105A40000E4617462C46FFF757FF44210857401CC7
:105A5000002802D100214420015545210857401C4F
:105A6000002802D1002145200155FFF753FFA06B0C
:105A7000002805D13A4631462046243000F054F83B
:105A80002046FFF7E8FDF8BD70B504460025002C60
:105A900014D00D480068002801D1012000E000204A
:105AA000002802D172B600BFFEE700F0B3F8002173
:105AB0002046FFF737F900F04BFD0546002D01D1D8
:105AC000FFF79AFF70BD00004C00002003490968F1
:105AD0000160034909684160704700003C000020F4
